:020000040000fa
:080000000002040000000000f2
:020000040000fa
:10000800aa020000aa020000aa020000aa02000038
:10001800aa020000aa020000aa020000aa02000028
:10002800aa020000aa020000aa020000aa02000018
:10003800aa020000aa020000aa020000aa02000008
:020000040000fa
:020000040000fa
:100400006f8120000eff20000e0188000000000018
:10041000000020000000e000020032000001200087
:10042000200288000c00070000912100010020003c
:1004300011000700000020000000e0000200320070
:1004400000000200000000002a1802000000000066
:100450000040da000000fe004440a90080002000b7
:100460000000e0000300320000002000a00188002e
:100470004440a80000000600910188008000780038
:100480000000eb0015003700e280400032a0b4000d
:100490009101ba00e280400032a0b4009102ba009b
:1004a000e280400032a0b4000002eb00472bde00e7
:1004b000f507b200602ce10004003a000059eb009f
:1004c0008301e900fdff3e00040037006128e100e0
:1004d000010032000082eb00040007001101ba00a5
:1004e0000200e000e8ff3a00000006003159ba00bf
:1004f0008301e9000c0032002159ba008301e900b0
:10050000080032000400e00003003a00e2804000ee
:1005100032a0b400f5ff370011d9ba008301e90019
:10052000faff3a008100e800e180400032a0b40008
:1005300000000600000000000000000000000000b5
:1005400000000000000000000000000000000000ab
:10055000000000000040da000000fe0003f0a200ee
:10056000889fbe008a9fbe008c1f7800f90007009c
:10057000000133006450e1004f0032006420e100cc
:100580005200320003826c0007003b000905d000d6
:100590000306d000820f54000c065d0002003900f3
:1005a0000200320089017800030678008582550038
:1005b00004003d000003fd008103fd008502ea0008
:1005c0008b854200840f720002003b006000100027
:1005d000e08018006011b8000005eb007a28e10007
:1005e0000a00390006007800c75ddd00f707b20099
:1005f000878075002d003700828171000a01780024
:10060000610560008180d1000080d3008502e9008f
:10061000f9ff3b00060440008784480002003b00cd
:1006200060041400e0841c000988a3000700320065
:100630008a81710082817100610164008904d100a6
:100640000884d3008b05e800170037000978a30061
:1006500013003a000b00e000130034008b05e900a2
:100660000804440089844c000a4474000978a300fb
:100670000d003a000b00e000070034008b05e90094
:100680000804440089844c0001003a000b0020005b
:100690000978a300f7ff32000001eb0002003700e9
:1006a000828171000a0178006f0007000cf0a7003a
:1006b00001f0a000b80037006420e10002003a0019
:1006c000838f6c00b80033000801be000200be003a
:1006d000b10037000001eb00a20237000081eb00ff
:1006e000cb013700889fbe008a9fbe008c1f780018
:1006f000980007009f00330003866c006450e100ff
:100700002e0032006420e100330032006150e1002d
:100710002f0032006120e100310032008585550054
:10072000eb07b00009002000080420000500370096
:100730000804440089844c000a0031000603430089
:1007400087834b000001530081815b00f8ff330079
:100750000203be000800a0000804440089844c0085
:10076000f6ff3900c639dd00830173000100320055
:10077000130020008904d1000884d3000998a30045
:10078000050032000800a7000300a0008904d10082
:100790000884d3008b05e8008904d1000884d300c5
:1007a0000001eb000281d2002f00070001f0a10040
:1007b0000cf0a70001f0a000770037006420e100f2
:1007c000790032000801be000200be00f7ff3700ca
:1007d0006120e100740032006000b800f3ff3700d0
:1007e0000000200001f82700f0ff3700f4ff2f0081
:1007f0004c0337000001be00410007000470a70051
:1008000003f0a10003f8a30013003a006509b1004a
:1008100010003200090035006928e10002003500af
:100820000100280000000500000040008180480011
:100830008502e900fcff3a0000000600f88f420044
:10084000050035008100d1000080d3008502e8005a
:10085000fcff3a00000006008000eb0000000500ed
:100860006011b800700337008100200061805500de
:100870000b003d000b00200061fe2f000100e10095
:100880001d00340082817100610164008904d1007f
:100890000884d3000000e800faff3a00710020004d
:1008a0006100640003007000020060000900320073
:1008b00061044400e0844c000988a5000500320072
:1008c0008b05e8006808e10002003a008904d100c5
:1008d0000884d300f20f20000258e10005003d001b
:1008e000c75ddd00f907b200898075000800780057
:1008f000000006000bf827008b00780000000500c0
:10090000c70ade00f107b200f50fb200080032009e
:10091000e1cf4200020032000170a0002400050077
:10092000810f70000100320004080500440005003a
:10093000810f700002003a00140005008502e900f2
:100940000000400081c04800fcff3b000170a00097
:10095000240005000004be00e9ff07000003be00fc
:100960000405be000200be00e5ff0700844f7500cd
:10097000000006000200be006450e10005003600e1
:100980006420e100020036000968a30001003a007b
:100990000800be000160a0004f0678004f05be00b1
:1009a0004f04be0000000600f0ff2f00f1ff2700fb
:1009b000f9ff3700889fbe008a9fbe008c1f780019
:1009c000e4ff0700ebff330003866c006450e10096
:1009d000240032006420e100270032006150e10071
:1009e000220032006120e100210032008b854200ac
:1009f000eb07b1000134b800003ab8000804420027
:100a000089844a00013ab8000030b800888040006c
:100a100009014a00040033000000400081804800c2
:100a2000020149008b05e900c909dd00830170005e
:100a30000100320013002000c814de004814dd005d
:100a40004709de001200b200c808de00088470000a
:100a500085ff070001f0a1000cf0a70001f0a00045
:100a6000cdff37006120e100cfff32000801be005a
:100a70000200be00f7ff37006150e100fcff3a00c2
:100a8000c9ff37000c00fa00889fbe008a9fbe0095
:100a90008c9fbe00afff07000206be0084057800f1
:100aa0000200be00020020007702070005003a00a5
:100ab0008b02b300120020007302070001003a000d
:100ac000f8856d000c01be00c60007000800be00de
:100ad0009b0032000b08a3009e003a000df0a70017
:100ae0000be0a00009f0a7000bf0a00009f0a100a6
:100af0000801be00bb0007000bf0a6009500320005
:100b000001003c000bd0a0008acf7500b20033007a
:100b10006000b8006250e10099003900a1003e0079
:100b20000b28a300a2003a000bf8a3000600320035
:100b30000b58a300a70032000801be00a90007005f
:100b40000800be00940032000800be0078010700d3
:100b50000004be00050578000bf0a7000b30a600ce
:100b60000bf0a1005b079800324f200053f32300e5
:100b70008702070005003d000800be0012002000ab
:100b8000290307000004be000a05e9004a0798008f
:100b90006150b900a1020700008fbe000c01be0029
:100ba00084ff07007c020700300798000100e00086
:100bb00002003d0060001000e0801800f2ff2700f6
:100bc000820f5000e08f580064003e000c00be0011
:100bd0007102070020079800f2072000820f5000e2
:100be000e08f580005003c0012f82f00f3ff2f00a3
:100bf000820f5000838f580009003d000a00e0007a
:100c00000300320001003c000201ea000205780006
:100c10006000b800200798003a07980019003700d4
:100c20003e0090006100b9007c020700809fbe007a
:100c30000c00be004109dd004811de007208b10061
:100c4000110207000005be001e01be0059ff07008b
:100c50004f01be0041fe0700809fbe000c00be0099
:100c60000a01be003dfe07001e01be0051ff070045
:100c70004f01be003afe07008221270013f3230034
:100c80004cff07000005be002e0090006100b90077
:100c90006202070001f0a2000c01be0030fe070056
:100ca0000006be000800be00010307000c01be00e4
:100cb00040ff07000a01be0029fe0700809fbe001a
:100cc0004a0007002e0590000af0a7000a05ea0076
:100cd000050037000800be000801be0035ff070010
:100ce0000004be000c00be000801be000a00a70000
:100cf00030ff07000006be000a05d100f5ff3a00ec
:100d00005e01900002e0a600030037000001be0073
:100d10003600070073fe07000004be004f00be004f
:100d2000770107000801be0022ff07003e01900086
:100d3000bd020700de0590000bf0a70001f0a20045
:100d40004f06be004f05be004f04be000080fa00f3
:100d50000000060025000700f9ff37002700070004
:100d60006000b8000bd0a7000bc0a0000be0a700ec
:100d70000bc0a2000bc0a70001f82700f0ff37004e
:100d80000df8a300020032001e0007001900070042
:100d90000bf8a300eaff32000b30a70001f0a2001d
:100da000e7ff37000df8a300f9ff3a00f7ff37001f
:100db0000801be000b000700e6ff320001003c0006
:100dc0000df0a2006000b8000df0a70009000700b8
:100dd000dbff37000b000700f1ff2700f0ff2f00bb
:100de000d7ff370001000700e901370001f82300b1
:100df0000000050001f82700000005002002200087
:100e00000100370010022000a0408800000006000a
:100e1000889fbe008a9fbe008c9fbe00820578001e
:100e20000004be00b6fe07000800be006420e1001a
:100e30000700390002003a00f1ff2700f0ff2f0001
:100e40000160a00012022000a24088005500370077
:100e50006120e10003003a000b00a70001f8230025
:100e60005000370001f0a10002002100936424002b
:100e7000c70107000800be0004003500b2fd2000d5
:100e8000930c2400170207000004be000005eb00cd
:100e90000b00a6004f0dde0001f0a1000004be0013
:100ea00032982f0023ea2300c2fe07000001eb0066
:100eb00003f023000b00a70003f82300a8fd0700a0
:100ec000b50107000000a7000a00a200d301070037
:100ed0000b00e000030032000200200003f02300ba
:100ee0009efd070001f0a2000006be0002002000e7
:100ef00093042400affe07000801be0098fd070020
:100f0000809fbe000c00be0022a22a00d3a72300af
:100f1000a8fe07004f01be0091fd07000004be00bf
:100f200001f0a100020020000398230098010700af
:100f30000800be00190035000001be009dfe07003c
:100f40000006be00b2c52900e362230099fe070037
:100f500022222b00f3942b0081fd07000c01be0020
:100f600094fe0700e273280083c023007cfd070085
:100f70000c01be008ffe070042aa2a00a3e22b004c
:100f800077fd07000c01be008afe07000801be00c5
:100f900088fe07000801be0071fd07000a00a700d7
:100fa00001f0a2004f06be004f05be004f04be0078
:100fb000000006000001eb0095ff3700889fbe008f
:100fc0008a9fbe000004be004dfe07000800be0060
:100fd0006420e1000700390002003a00f1ff270019
:100fe000f0ff2f000160a00012022000a240880044
:100ff0004c00370001f0a10002802000935c240027
:10100000630107000800be0004003500b2fd2000a7
:1010100093042400b30107000004be0032982f009f
:1010200023f2230063fe07000200200003f02300e8
:1010300001f0a70003f0a00049fd070056010700da
:10104000801f78007501070001f0a2000005be00b6
:101050000200200093fc230056fe07000801be009a
:101060003ffd0700809fbe000a00be0022a22a00aa
:10107000d39f23004ffe07004f01be0038fd07003d
:101080000004be0001f0a10002002000039823002c
:10109000d6fd070003003d000000200001f82300fa
:1010a000180037000800be000001be0041fe070026
:1010b0000005be00823b230043dc2b003dfe070001
:1010c0000801be003bfe07000801be0024fd07002a
:1010d0000004be000a00be0052372300f3c1230003
:1010e00034fe0700f27a2b00b3ed2b001cfd070045
:1010f0000a01be002ffe07000200200003f82300b3
:1011000017fd07004f00a600030037000801be00ce
:1011100003f0a200020037000001be000800be007c
:1011200070fd07004f05be004f04be000000060022
:101130000003be00f2fd07006220e1000200320061
:101140000600be0005000500e507b100f107b2008a
:1011500004f023008480700007f0a70001f0a000d5
:1011600024000500889fbe008a9fbe008c9fbe00a1
:101170000206780001f0a7000cf0a0000004be00f9
:10118000dffd07000800be006420e1000700390011
:1011900002003a00f1ff2700f0ff2f000160a000dd
:1011a00012022000a24088005100370009f0a1007f
:1011b0000800be000200200003f823008bfd07009a
:1011c000f4ff3c000800be0002002000039823004a
:1011d000ef0007000800be003000350002002000cc
:1011e00003f0230081fd070005003c000800be005d
:1011f0000801be00effd07000005be000e0037002d
:101200000c10a2000000200001f823000801be001d
:10121000d2fc07000200200003f02300e5fd0700d8
:101220000005be00f90107000200200003002c00a9
:10123000e0fd07000004be000a00be00b2d0280096
:10124000130b2c00c6fc07000a01be00d9fd0700e5
:10125000020f2500330b2400c1fc0700809fbe0055
:101260000a00be005206220013f02b00d1fd070039
:10127000b2662100f3f62300b9fc07000a01be00a4
:10128000ccfd07004f01be0016fd07000801be009f
:10129000c8fd07000801be00b1fc07000c00a70054
:1012a00007003700b2fd200093fc23000c10a700bc
:1012b000abfc07000cf0a70001f0a2000c00370007
:1012c0000cf0a7000200370001f0a2000400370074
:1012d000b2fd2000930424000c10a6000300370088
:1012e000b2fd200093fc23000c10a7009cfc07001b
:1012f0004f06be004f05be004f04be0000000600b2
:10130000889fbe008a9fbe008c9fbe000004be0066
:101310007bfd07000800be006420e10048003e009d
:101320005500320072212700132b24002ffd0700e7
:1013300047003c000800be00c2ec2800e32c2c0053
:1013400093000700470035000800be0001f0a1002f
:1013500002002000033823008d0007004300350001
:101360000800be00b2a32a0083fb230091fd070002
:101370000200200003f0230001f0a70003f0a0000a
:1013800077fc0700840007000005be00a3000700eb
:1013900001f0a2000006be000200280013f32300a3
:1013a00084fd07000801be006dfc0700809fbe00a1
:1013b0000c00be0032082800e3952b007dfd0700dd
:1013c0004f01be0066fc07000006be000001be0023
:1013d00078fd0700809fbe004241250083b82300ae
:1013e00074fd07000200200003e823005cfc0700f6
:1013f0000c01be006ffd07000006be004f00be00de
:10140000f2f92b00c3d423006afd0700020020007c
:1014100003f0230052fc07000c01be004ffc070044
:101420000001be000c00be00aefc07000200200060
:1014300003f023004afc070061014500fa000700a1
:101440004f06be004f05be004f04be000000060060
:1014500001f827000000200022022000a24088009e
:10146000f7ff37006000b800fbff370001f82300ea
:1014700000002000f2ff370009f8a300f0ff32005f
:101480006000b800eeff3700889fbe008a9fbe0054
:101490000003be001afd0700850578008281520016
:1014a000020020006220e10004003a00f307b100ce
:1014b000040035007718e100040035000600be0086
:1014c000140037006000b8000f003700f50f20004f
:1014d000faff2f008502d1000a85d3008301e900bd
:1014e000fcff3b008184620000046500890f7400ea
:1014f000f2ff32008582ea000a85ea0081846200f8
:1015000000046500d8fc070007f0a70001f0a00068
:101510000081eb000200e0004f05be004f04be005a
:1015200000000600889fbe008a9fbe00841f7800ce
:1015300008fd07004f00780011003300f0ff2f0076
:10154000838f6c0006003b00040565000a00a700bd
:101550000800370009f0a60010002000080037003e
:10156000820f5400838f5c000300390010002000bc
:1015700001003e000000200009f0a7000000ea0082
:101580004f05be004f04be000000e0000000060052
:1015900014002000e3ff37000001be00d8fc070064
:1015a0000470a70003f0a1006509b1001600320025
:1015b0000d0035006828e10006003500f0ff2f001f
:1015c000f1ff27000300e00013003b0001002800aa
:1015d0000000050000004000818048008502e9000d
:1015e000fcff3a0008003700f88f420002003c0080
:1015f0008000eb00000005008100d1000080d300d6
:101600008502e800fcff3a000300e00002003b0016
:1016100060001000e0801800000006004f89de0026
:10162000820178002e013700889fbe008a9fbe008d
:1016300000827000040271000482710026003200f2
:101640000004be000200be006011b8006b0920005b
:10165000950220000182cf000a0039000541b10047
:101660000082cf00070039000541b1000982cf0098
:10167000040039000541b1000882cf0001003900a3
:101680000541b10005425200120032000a003b0041
:1016900082817100610164008100d1000080d3006b
:1016a0008984d3000884d3008b05e8000442e80055
:1016b000f7ff3a00070037000804440089844c0013
:1016c00000004800818048008b05e9000442e900e1
:1016d000f9ff3a0064fc07004f05be004f04be004e
:1016e000000006000400200000003700889fbe00b4
:1016f0008a9fbe008c1f78004f26dd0095fc0700f6
:101700009cfc33006120e100430032006250e100a4
:1017100041003e003e0039006420e1003c00320000
:10172000058255000f003b000402e80038003a0033
:10173000800f5300818f5b00350034000800be002d
:1017400003f0a10001f0a60003f0a0000cf0a70038
:1017500083fb070090fc37000603430087834b00a0
:101760000c4646000005530081855b0002003300f3
:101770000a03be000c00a0000402e900f6ff3b00d3
:10178000850578000602430087824b0004003a007a
:101790006000b80009f0a70001f0a0007efc37004f
:1017a0000002520081825a000704e0000400330066
:1017b0000603430087834b008b05e900faff3700df
:1017c000090578000604be000203be006011b800df
:1017d00025fc0700e00f5200e08f5a00070035009b
:1017e00002003c000c08a300040032000601be0009
:1017f00003f0a0000cf0a70059fb07000a85680061
:1018000001f0a1000af0a70001f0a00062fc37007f
:101810000800be0060fc3700100220000cf0a6009b
:10182000a040880060fc37000003be0034fc0700c5
:101830006220e100020032000600be000000060047
:1018400085024100e30f20000328e10005003c0071
:10185000a3fe2f000328e10007003d000500200043
:1018600001003700f50f200020022000a040880072
:101870006000b80008003700130020008381520088
:1018800005003d008100d1000080d3008301e80005
:10189000fcff3a0005002000c72add00f107b20076
:1018a0008580700007f0a70001f0a000000006008e
:1018b000889fbe008a9fbe008c9fbe001cfe070052
:1018c000850478000005be006420e10049003e0068
:1018d0006220e10003003200090035000bf8a3008c
:1018e000440032000bf8a300080032001002200070
:1018f000a0408800f0ff2f00f1ff27003d003700d7
:1019000001f82f00000020003a0037003d000700da
:1019100012fb07000006be000a00be00324f200086
:1019200053f32300b1fb0700060034000c00be0097
:101930003400070009fb07000006be000a00be00d5
:10194000020037008904e9000c00be002d000700ea
:1019500018fc07002b00070001fb07000001be0078
:101960000c00be005ffb07000005be000001be00ca
:1019700010fc07000006be00a2f32300430d2c005c
:10198000f7fa0700809fbe000c00be00d2e32700dc
:10199000d3f02b0007fc07004f01be0051fb0700ee
:1019a0000006be000a01be0002fc07000a01be00dc
:1019b000ebfa07000006be006148b90017ff0700f8
:1019c0000005be0032082800e3952b00f9fb070054
:1019d0000c01be00e2fa07000006be000a00be00cd
:1019e0000200280013f32300f2fb07000c01be00e5
:1019f000dbfa07004f06be004f05be004f04be00d5
:101a00000000060003f0230002000500889fbe00ce
:101a10008a9fbe008c1f78000004be00b8fb070040
:101a20000478a30026003a006120e100250032007e
:101a300009f8a30025003a006420e10021003200eb
:101a4000f507b1000508a3000200320000004000c5
:101a5000818048006044b80003102000020020008c
:101a600000004000818048000805440089854c0042
:101a70000a0541008b8549000a0550008b855800f6
:101a8000030033000a00be00020474008384740063
:101a90008301d1000281d300830f7100f0ff3a006f
:101aa0008904d1000884d3006001490082017800d4
:101ab000c1adde00fb07b0006bfb0700b6fb3700d3
:101ac0000960a0000800be00b3fb3700120220002e
:101ad000a2408800f0ff2f00f1ff2700aefb370087
:101ae000881f7800030478000300e00007003d0031
:101af00060001000e080180060011900e08119000a
:101b000002003b0001f02d0003003700c6fe070075
:101b100008f0a70001f0a0004f04780000000600c4
:020000040000fa
:101b200035fa00000e3c000000000000804000007c
:020000040000fa
:101b30000400fa00100798000002eb00040f780080
:101b4000010037001e0fe8009e0278001e02900080
:101b5000848f5200fbff39000080fa00000006006d
:101b60000400fa00100798001e029000241088005c
:101b700007e2a9000722a8008620a90007e2a80022
:101b800004108000040f7800a4e22000040001008b
:101b90000080fa00000006000200fa000002eb00dc
:101ba000040f780006a2a900a0002000e0ff0700b3
:101bb0000602a80000000000060037001000200008
:101bc000dbff07001e0fe8001e027800f40f520032
:101bd00005003c003410800061026200e00f5200fa
:101be000f6ff3a000100370000000000200020004e
:101bf000cfff07000080fa00000006000200fa0094
:101c00000002eb00040f78000622a800000000008c
:101c10000600370010002000c5ff07001e0fe80077
:101c20001e027800f40f520005003c0034108000c2
:101c300062026200e00f5200f6ff3a000100370036
:101c40000000000020002000b9ff07000080fa001b
:101c5000000006000200fa000002eb00040f78000a
:101c60000642a8000600370010002000b0ff070061
:101c70001e0fe8001e027800f40f520005003c0021
:101c80003410800064026200e00f5200f6ff3a0058
:101c900001003700000000000662a9008620a900ac
:101ca00008e2a9000942a900a0002000a0ff070047
:101cb0000080fa00000006000400fa0010079800f7
:101cc000000000004410800061026200e00f52003a
:101cd000fcff3a008620a9001e0290001410880024
:101ce0000002eb00040f7800080037004510800068
:101cf0000400240004826200e00f52000800320059
:101d0000100020008aff07001e0fe800341f20008b
:101d10009e027800848f5200f4ff340001003700e7
:101d200000000000441f20009e027800848f5200b3
:101d300002003a0014c0b3000b00370045108000c9
:101d40000400280004826200e00f52000300320009
:101d5000c0ff070014c0b3000300370010002000cc
:101d600073ff07000042eb00044078000080fa0097
:101d7000000006000400fa000002eb00040f7800e7
:101d80000042eb00244798000662a80005003700d7
:101d90001e0fe800047d20009e027800848f520010
:101da00005003c004410800062026200e00f520017
:101db000f7ff32000100370000000000041080002f
:101dc000244798002e429000044078000080fa00da
:101dd000000006000400fa000002eb00040f780087
:101de0000042eb00244798000662a8000500370077
:101df0001e0fe800047d20009e027800848f5200b0
:101e000005003c004410800062026200e00f5200b6
:101e1000f7ff3200010037000000000004108000ce
:101e2000244798000682a8001000200040ff070009
:101e30002e429000044078000080fa000000060066
:101e40000200fa00004f78001147980052ff070087
:101e50001e02fb000400780097ff07001e4290005e
:101e60000402fb000400780093ff070079ff0700dd
:101e70000080fa00000006000400fa00004f78001d
:101e8000114798002247980043ff07001e02fb00fd
:101e90000400780088ff07001e4290000402fb0047
:101ea0000400780084ff07002e4290000402fb002b
:101eb0000400780080ff070066ff07000080fa003a
:101ec000000006000600fa00004f78001147980055
:101ed0002247980033479800444798002eff070098
:101ee0001e02fb000400780073ff07001e429000f2
:101ef0000402fb00040078006fff07002e429000f0
:101f00000402fb00040078006bff07003e429000d3
:101f10000402fb000400780067ff07004e429000b7
:101f20000402fb000400780063ff070049ff07007c
:101f30000080fa00000006000600fa00881f780002
:101f400020479800314798002207980012ff0700a9
:101f50002e4290000404a0000402fb00040078005c
:101f600055ff07000002eb00040f78000002eb00b1
:101f7000040f7800090037001e027800ae029000be
:101f80000484420093ff070000427800044c78006c
:101f900040012000e6fe07001e0fe8003e429000d0
:101fa0000402fb000402e9009e0f5200f2ff3c0015
:101fb0003e4290000402fb000402e900ae029000e1
:101fc000048442006bff070000427800044c780054
:101fd00020ff07004f0478000080fa000000060090
:101fe0000400fa00100798000002eb0004278800a4
:101ff0000002eb00142788001e029000a410880045
:1020000017e2a9001722a8008a40a90017e2a80039
:1020100084108000040f78002407210004000100d0
:102020000080fa00000006000200fa000002eb0047
:10203000040f780016a2a900a0002000bcfe070033
:102040001602a80000000000060037001000200063
:10205000b7fe07001e0fe8001e027800f40f5200c2
:1020600005003c00b410800061026200e00f5200e5
:10207000f6ff3a00010037000000000020002000b9
:10208000abfe07000080fa00000006000200fa0024
:102090000002eb00040f78001622a80000000000e8
:1020a0000600370010002000a1fe07001e0fe80008
:1020b0001e027800f40f520005003c00b4108000ae
:1020c00062026200e00f5200f6ff3a0001003700a2
:1020d000000000002000200095fe07000080fa00ac
:1020e000000006000200fa000002eb00040f780076
:1020f0001642a80006003700100020008cfe0700e2
:102100001e0fe8001e027800f40f520005003c008c
:10211000b410800064026200e00f5200f6ff3a0043
:1021200001003700000000001662a9008a40a900e3
:1021300018e2a9001942a900a00020007cfe0700b7
:102140000080fa00000006000400fa001007980062
:1021500000000000c410800061026200e00f520025
:10216000fcff3a008a40a9001e02900094108800eb
:102170000002eb00040f780008003700c510800053
:102180000400240004826200e00f520008003200c4
:102190001000200066fe07001e0fe800341f20001c
:1021a0009e027800848f5200f4ff34000100370053
:1021b00000000000441f20009e027800848f52001f
:1021c00002003a0014c0b3000b003700c5108000b5
:1021d0000400280004826200e00f52000300320075
:1021e000c0ff070014c0b300030037001000200038
:1021f0004ffe07000042eb00044078000080fa0028
:10220000000006000400fa000002eb00040f780052
:102210000042eb00244798001662a8000500370032
:102220001e0fe800047d20009e027800848f52007b
:1022300005003c00c410800062026200e00f520002
:10224000f7ff32000100370000000000841080001a
:10225000244798002e429000044078000080fa0045
:10226000000006000400fa000002eb00040f7800f2
:102270000042eb00244798001662a80005003700d2
:102280001e0fe800047d20009e027800848f52001b
:1022900005003c00c410800062026200e00f5200a2
:1022a000f7ff3200010037000000000084108000ba
:1022b000244798001682a800100020001cfe07008a
:1022c0002e429000044078000080fa0000000600d2
:1022d0000200fa00004f78001147980052ff0700f3
:1022e0001e02fb000400780097ff07001e429000ca
:1022f0000402fb000400780093ff070079ff070049
:102300000080fa00000006000400fa00004f780088
:10231000114798002247980043ff07001e02fb0068
:102320000400780088ff07001e4290000402fb00b2
:102330000400780084ff07002e4290000402fb0096
:102340000400780080ff070066ff07000080fa00a5
:10235000000006000600fa00004f780011479800c0
:102360002247980033479800444798002eff070003
:102370001e02fb000400780073ff07001e4290005d
:102380000402fb00040078006fff07002e4290005b
:102390000402fb00040078006bff07003e4290003f
:1023a0000402fb000400780067ff07004e42900023
:1023b0000402fb000400780063ff070049ff0700e8
:1023c0000080fa00000006000600fa00881f78006e
:1023d00020479800314798002207980012ff070015
:1023e0002e4290000404a0000402fb0004007800c8
:1023f00055ff07000002eb00040f78000002eb001d
:10240000040f7800090037001e027800ae02900029
:102410000484420093ff070000427800044c7800d7
:1024200040012000c2fd07001e0fe8003e42900060
:102430000402fb000402e9009e0f5200f2ff3c0080
:102440003e4290000402fb000402e900ae0290004c
:10245000048442006bff070000427800044c7800bf
:1024600020ff07004f0478000080fa0000000600fb
:102470000000fa00048120001442780012c0b3006a
:1024800001c3b300044078007bfe07000071220006
:10249000a7fd0700048120001442780082c0b30029
:1024a00001c3b3000440780073fe070000712200ee
:1024b0009ffd0700048120001442780002c9b30088
:1024c00061c0b300044078006bfe07000071220079
:1024d00097fd0700048120001442780002ccb3006d
:1024e00081c0b3000440780063fe07000071220041
:1024f0008ffd0700048120001442780002c4b3005d
:10250000a1c1b300044078005bfe07000071220007
:1025100087fd0700048120001442780032c3b30015
:1025200031c3b3000440780053fe0700007122005d
:102530007ffd07000080fa00000006000a00fa0094
:102540003007980041079800048120001442780069
:1025500061c3b3000440780039fe07006102470000
:1025600003000900005aeb000481200014427800a7
:102570008e02e8000501780041c0b30004407800f5
:102580006dfe07003e0290000402e800ae4290009b
:10259000054a78004e0290000402e800be42900016
:1025a000054a78004e429000044f78009e02fb00de
:1025b000040320000482620044a2de00844278000a
:1025c0003e029000054a78009e02fb00040c2000a9
:1025d0000482620046a2de00844278004e0290002f
:1025e000054a78000080fa00000006000000fa00aa
:1025f000148120001442780012c0b30001c3b3005c
:102600000440780040ff07000071220048fd0700e9
:10261000148120001442780082c0b30001c3b300cb
:102620000440780038ff07000071220040fd0700d9
:10263000148120001442780002c9b30061c0b300c5
:102640000440780030ff07000071220038fd0700c9
:10265000148120001442780002ccb30081c0b30082
:102660000440780028ff07000071220030fd0700b9
:10267000148120001442780002c4b300a1c1b30049
:102680000440780020ff07000071220028fd0700a9
:10269000148120001442780032c3b30031c3b30068
:1026a0000440780018ff07000071220020fd070099
:1026b0000080fa00000006000a00fa0030079800c7
:1026c00041079800048120001442780061c3b300e0
:1026d00004407800fefe0700610247000300090085
:1026e000005aeb0014812000144278008e02e800aa
:1026f0000501780041c0b3000440780032ff0700b4
:102700003e0290000402e800ae429000054a7800c4
:102710004e0290000402e800be429000054a780094
:102720004e429000044f78009e02fb0004032000fc
:102730000482620044a2de00844278003e029000df
:10274000054a78009e02fb00040c2000048262000f
:1027500046a2de00844278004e029000054a7800ce
:102760000080fa00000006000200fa00c002a90082
:10277000c202a9000002eb00040f78000002eb0087
:10278000040f780009003700cc42a800cd02a80051
:10279000cd22a800cde2a800cc42a900cd02a9001c
:1027a000cd22a900cde2a9001e0fe8001e0278008c
:1027b000e90f5200f4ff340040062000e8fc070057
:1027c0004006200006fe070029ff070087ff0700dc
:1027d0000080fa00000006001600fa00881f78004a
:1027e000100f9800210f98000002eb00040f9800d2
:1027f0000e0a9000740798007e029000640798000b
:102800006e02900054079800ec0247006a024700ed
:10281000850078000400780048ff0700f0024700b8
:102820006e0247008500780004007800a2ff0700d0
:102830005e029000e00f5200030032007e02900022
:10284000e00f520001003a00c7ff07006a0247008c
:10285000140798006c024700240798006e02470096
:102860003407980070024700440798002e02900039
:1028700014427800ae0290008502e800154078000e
:102880009e029000954378009e0290008502e80029
:10289000154378002581200095427800804178001a
:1028a000074178008640780005407800a9fe0700bf
:1028b0004e02900014427800ce0290008502e8009b
:1028c00015407800be02900095437800be0290004b
:1028d0008502e800154378002581200095427800a4
:1028e00080417800074178008640780005407800f4
:1028f00098fe07005e029000e00f520005003a00cb
:102900007e029000e00f520002003a0034c0b30093
:10291000044f7800de029000e43f2000848f5200d4
:1029200004003400fe029000e43f2000848f520037
:1029300025003c00de029000e43f2000848f52001e
:1029400004003c00fe029000e43f2000848f52000f
:1029500010003400286f21008e0890007e00900047
:10296000ee0390005e039000f402470072024700fd
:102970008101780000017800870078000600780067
:102980000800010014c0b300044f780000000000ec
:102990000f003700274f2100fe0290005e029000da
:1029a0007400470072034700800178000601780038
:1029b00085007800040078000700010024c0b300ff
:1029c000044f7800020037000042eb00044f78000b
:1029d0001e427800044078004f0478000080fa001e
:1029e000000006002400fa00889fbe008a9fbe00f7
:1029f000400f9800510f9800620f9800730f9800d5
:102a0000041798001517980002002c00d3402400ea
:102a10004e089000de089000d0f607000002be00cd
:102a200002002c00f34724000400be002df707002d
:102a30000002be0002002000432024000400be006b
:102a4000dcf707000002be0002002000433b240028
:102a50000400be0023f707000002be000401be0010
:102a60000400be00bef607000002be00b2fd20005a
:102a7000930424000400be00cef707000002be004d
:102a8000048fbe0002002800034024006e0890005e
:102a9000fe089000b1f607000002be0002002c0004
:102aa000f34724000400be000ef707000002be003a
:102ab00002002000432024000400be00bdf70700f0
:102ac0000002be0002002000433b24000400be00c0
:102ad00004f707000002be000401be000400be00af
:102ae0009ff607000002be00b2fd20009304240000
:102af0000400be00aff707000002be0024079800e4
:102b0000350798002e019000be01900000d32c00e4
:102b1000e1032c0091f607000002be000400be0095
:102b200024f907000004be00f2a82a0013092400bb
:102b30001e00be008af607000002be00f2a82a00ae
:102b4000130924000400be0085f607000002be0041
:102b50002e019000be0190000400be0080f6070028
:102b60000002be000400be0012f907000002be0011
:102b700002002000030a24000400be00d9f607006a
:102b80000002be000401be000800be00d5f607002a
:102b90000002be004407980055079800f2a82a00da
:102ba000130924001e00be006df607000002be00df
:102bb0000401be00b0fd200091fc230067f6070071
:102bc0000002be000400be00faf807000004be00c8
:102bd000f2a82a00130924001e00be0060f60700b8
:102be0000002be00f2a82a00130924000400be005f
:102bf0005bf607000002be002e019000be019000af
:102c00000400be0056f607000002be000400be002d
:102c1000e8f807000002be0002002000030a2400ba
:102c20000400be00aff607000002be000401be00b3
:102c30000800be00abf607000002be006407980063
:102c4000750798004e029000de0290000401be005d
:102c50000400be0057f707000002be00020020007b
:102c6000830c24000400be003df607000002be00f5
:102c70000404be004e029000de0290000401be007b
:102c80000400be0036f607000002be00020020006d
:102c9000030224000400be0046f707000002be0045
:102ca0000405be001e01be0000d32c00e1032c0071
:102cb0002af607000002be000400be0087f60700e7
:102cc0000002be000401be000a00be0039f7070082
:102cd0000002be000401be000800be001ff607008f
:102ce0000002be000200200003f023000400be002a
:102cf00064f707000002be001e139000048bbe00a4
:102d00001e1290001403be00060f9800170f9800c3
:102d10001e01be0000d32c00e1032c000ff60700bb
:102d20000002be000400be00a2f807000002be00c0
:102d30000e0990009e0990000400be0069f607008d
:102d40000002be004e019000de0190000400be00b3
:102d500018f707000002be000400be005df6070081
:102d60000002be00b2fd200093fc23000400be0060
:102d7000faf507000002be000e139000048bbe009f
:102d800018c0b3006e019000fe0190004e0090004c
:102d9000de00900095f6070000027800e00f520078
:102da00001003c000044eb00e04f540009003200f9
:102db0000e1290001403be00260f9800370f9800e3
:102dc0002e0a9000be0a900005f0a2000e1390009b
:102dd000048bbe004f05be004f04be000080fa0009
:102de000000006001c00fa00881f780060079800a9
:102df00071079800020f9800130f9800240f980095
:102e0000350f9800460f9800570f980018c0b30070
:102e100002002c00f34724006e009000fe0090009a
:102e200072f6070000027800e00f520001003d003a
:102e30000044eb00e04f54003b0032002e0a9000ab
:102e4000be0a9000048fbe004e0a9000de0a900079
:102e5000240798003507980002002800034024004a
:102e60004e089000de089000bcf507000002be008e
:102e700044079800550798004e009000de0090002f
:102e80004ef807000002be00a29929009301240019
:102e90000400be00c7f607000002be003ebb97005c
:102ea000048bbe0002002800034024002e0890007e
:102eb000be089000a9f507000002be0002002c0029
:102ec000f34724000400be0006f607000002be001f
:102ed00002002000432024000400be00b5f60700d5
:102ee0000002be0002002000433b24000400be009c
:102ef000fcf507000002be000401be000400be0095
:102f000097f507000002be00b2fd200093042400e4
:102f10000400be00a7f607000002be004ebb9700eb
:102f2000048bbe004800370018c0b30002002c001c
:102f3000f34724002e089000be0890002bf60700ef
:102f400000027800e00f520001003d000044eb0059
:102f5000e04f54003b0032006e029000fe029000f1
:102f6000048fbe000e0a90009e0a9000240798006d
:102f70003507980002002000533e24000e08900000
:102f80009e08900075f507000002be0044079800f7
:102f9000550798004e009000de00900007f80700eb
:102fa0000002be00a2992900930124000400be0083
:102fb00080f607000002be003ebb9700048bbe00f7
:102fc00002002c00d34024006e009000fe00900010
:102fd00062f507000002be0002002c00f347240047
:102fe0000400be00bff507000002be000200200082
:102ff000432024000400be006ef607000002be005d
:1030000002002000433b24000400be00b5f5070089
:103010000002be000401be000400be0050f507001f
:103020000002be00b2fd2000930424000400be0094
:1030300060f607000002be004ebb9700048bbe0086
:1030400001003700000000004f0478000080fa0003
:10305000000006000000fa00030007002f00070030
:1030600013e1a800ffff37000000fa00c022a9000a
:10307000c042a900c822a9000002eb000427880072
:103080000002eb0014278800c9a2a800c9c2a8004a
:1030900013e1a8001221a900940880000440a100b7
:1030a0000450a000940888001427200074088800a9
:1030b0000002eb0054088800240d800004a0a0004a
:1030c00004b0a10004c0a100240d8800240d8000dc
:1030d0000400a1000410a0000420a000240d88001a
:1030e000350d800004fe2f0004826200d400b3007e
:1030f000340d8800a6e1a900440580000400a10069
:103100000410a1000420a000440588009500a80038
:103110008500a9000080fa00000006000000fa0007
:103120000002eb00044088006022b8006440880080
:10313000754088006022b8004440880055408800ef
:103140000002eb0014408800046a28002440880034
:10315000c242a900c222a900740880000500200014
:103160000400be00bef507000002be000200200001
:1031700003f023000400be000ef607000002be00ac
:103180000400be009bf507000002be0004027800a8
:10319000540d880013e1a9000080fa000000060029
:1031a0000200fa00000f78001e027800e00f5200c3
:1031b00003003a00c242a900c222a900020037005f
:1031c000c242a800c222a80013e1a8000080fa00b1
:1031d000000006000200fa00000f78001e027800ce
:1031e000e00f520003003a00c242a900c222a80028
:1031f00002003700c242a800c222a90013e1a800c1
:103200000080fa00000006000000fa0013e1a900a7
:10321000c222a900c242a9000080fa0000000600f4
:020000040000fa
:10322000100800000400000002000000b0b0080018
:103230000000000000080000100000000000000076
:103240001408000002000000000000000000000060
:020000040000fa
:0200000401f009
:04000c00f8ff0000f9
:00000001FF
