:020000040000fa
:080000000002040000000000f2
:020000040000fa
:10000800aa020000aa020000aa020000aa02000038
:10001800aa020000aa020000aa020000aa02000028
:10002800aa020000aa020000aa02000010140000a0
:10003800aa020000aa020000aa0200005619000045
:100048004a180000aa020000aa020000aa02000042
:10005800aa020000aa020000aa020000aa020000e8
:10006800aa020000aa020000aa020000aa020000d8
:10007800aa020000aa020000aa020000aa020000c8
:10008800aa020000aa020000aa020000aa020000b8
:10009800aa020000aa020000aa020000aa020000a8
:1000a800aa020000aa020000aa020000aa02000098
:1000b800aa020000aa020000aa020000aa02000088
:1000c800aa020000aa020000aa020000aa02000078
:1000d800aa020000aa020000aa020000aa02000068
:1000e800aa020000aa020000aa020000aa02000058
:1000f800aa020000aa020000aa020000aa02000048
:10010800aa020000aa020000aa020000aa02000037
:10011800aa020000aa020000aa020000aa02000027
:10012800aa020000aa020000aa020000aa02000017
:10013800aa020000aa020000aa020000aa02000007
:10014800aa020000aa020000aa020000aa020000f7
:10015800aa020000aa020000aa020000aa020000e7
:10016800aa020000aa020000aa020000aa020000d7
:10017800aa020000aa020000aa020000aa020000c7
:10018800aa020000aa020000aa020000aa020000b7
:10019800aa020000aa020000aa020000aa020000a7
:1001a800aa020000aa020000aa020000aa02000097
:1001b800aa020000aa020000aa020000aa02000087
:1001c800aa020000aa020000aa020000aa02000077
:1001d800aa020000aa020000aa020000aa02000067
:1001e800aa020000aa020000aa020000aa02000057
:0801f800aa020000aa020000a7
:020000040000fa
:10020800aa020000aa020000aa020000aa02000036
:10021800aa020000aa020000aa020000aa02000026
:10022800aa020000aa020000aa020000101400009e
:10023800aa020000aa020000aa0200005619000043
:100248004a180000aa020000aa020000aa02000040
:10025800aa020000aa020000aa020000aa020000e6
:10026800aa020000aa020000aa020000aa020000d6
:10027800aa020000aa020000aa020000aa020000c6
:10028800aa020000aa020000aa020000aa020000b6
:10029800aa020000aa020000aa020000aa020000a6
:1002a800aa020000aa020000aa020000aa02000096
:1002b800aa020000aa020000aa020000aa02000086
:1002c800aa020000aa020000aa020000aa02000076
:1002d800aa020000aa020000aa020000aa02000066
:1002e800aa020000aa020000aa020000aa02000056
:1002f800aa020000aa020000aa020000aa02000046
:10030800aa020000aa020000aa020000aa02000035
:10031800aa020000aa020000aa020000aa02000025
:10032800aa020000aa020000aa020000aa02000015
:10033800aa020000aa020000aa020000aa02000005
:10034800aa020000aa020000aa020000aa020000f5
:10035800aa020000aa020000aa020000aa020000e5
:10036800aa020000aa020000aa020000aa020000d5
:10037800aa020000aa020000aa020000aa020000c5
:10038800aa020000aa020000aa020000aa020000b5
:10039800aa020000aa020000aa020000aa020000a5
:1003a800aa020000aa020000aa020000aa02000095
:1003b800aa020000aa020000aa020000aa02000085
:1003c800aa020000aa020000aa020000aa02000075
:1003d800aa020000aa020000aa020000aa02000065
:1003e800aa020000aa020000aa020000aa02000055
:0803f800aa020000aa020000a5
:020000040000fa
:100400004f8320000eff20000e0188000000000036
:10041000000020000000e000020032000001200087
:10042000200288000c000700c0ed21000100200020
:1004300011000700000020000000e0000200320070
:100440000000020000000000f01d0200000000009b
:100450000040da000000fe004440a9000000200037
:100460000000e0000300320000002000a00188002e
:100470004440a80000000600910188008000780038
:100480000000eb0015003700e280400032a0b4000d
:100490009101ba00e280400032a0b4009102ba009b
:1004a000e280400032a0b4000002eb00472bde00e7
:1004b000f507b200602ce10004003a000059eb009f
:1004c0008301e900fdff3e00040037006128e100e0
:1004d000010032000082eb00040007001101ba00a5
:1004e0000200e000e8ff3a00000006003159ba00bf
:1004f0008301e9000c0032002159ba008301e900b0
:10050000080032000400e00003003a00e2804000ee
:1005100032a0b400f5ff370011d9ba008301e90019
:10052000faff3a008100e800e180400032a0b40008
:1005300000000600000000000000000000000000b5
:1005400000000000000000000000000000000000ab
:10055000000000000040da000000fe0003f0a200ee
:10056000889fbe008a9fbe008c1f7800fe00070097
:10057000050133006450e1004f0032006420e100c7
:100580005200320003826c0007003b000905d000d6
:100590000306d000820f54000c065d0002003900f3
:1005a0000200320089017800030678008582550038
:1005b00004003d000003fd008103fd008502ea0008
:1005c0008b854200840f720002003b006000100027
:1005d000e08018006011b8000005eb007a28e10007
:1005e0000a00390006007800c75ddd00f707b20099
:1005f000878075002d003700828171000a01780024
:10060000610560008180d1000080d3008502e9008f
:10061000f9ff3b00060440008784480002003b00cd
:1006200060041400e0841c000988a3000700320065
:100630008a81710082817100610164008904d100a6
:100640000884d3008b05e800170037000978a30061
:1006500013003a000b00e000130034008b05e900a2
:100660000804440089844c000a4474000978a300fb
:100670000d003a000b00e000070034008b05e90094
:100680000804440089844c0001003a000b0020005b
:100690000978a300f7ff32000001eb0002003700e9
:1006a000828171000a017800740007000cf0a70035
:1006b00001f0a000bd0037006420e10002003a0014
:1006c000838f6c00bd0033000801be000200be0035
:1006d000b60037000001eb00a70237000081eb00f5
:1006e000d0013700889fbe008a9fbe008c1f780013
:1006f0009d000700a400330003866c006450e100f5
:100700002e0032006420e100330032006150e1002d
:100710002f0032006120e100310032008585550054
:10072000eb07b00009002000080420000500370096
:100730000804440089844c000a0031000603430089
:1007400087834b000001530081815b00f8ff330079
:100750000203be000800a0000804440089844c0085
:10076000f6ff3900c639dd00830173000100320055
:10077000130020008904d1000884d3000998a30045
:10078000050032000800a7000300a0008904d10082
:100790000884d3008b05e8008904d1000884d300c5
:1007a0000001eb000281d2003400070001f0a1003b
:1007b0000cf0a70001f0a0007c0037006420e100ed
:1007c0007e0032000801be000200be00f7ff3700c5
:1007d0006120e100790032006000b800f3ff3700cb
:1007e0000000200001f82700f0ff3700140020006f
:1007f00051033700f4ff2f004f0337000001be0004
:10080000440007000470a70003f0a10003f8a30050
:1008100013003a006509b1001000320009003500ec
:100820006928e100020035000100280000000500f1
:1008300000004000818048008502e900fcff3a008a
:1008400000000600f88f4200050035008100d1004d
:100850000080d3008502e800fcff3a00000006009b
:100860008000eb00000005004f89de008201780067
:100870006d0337006011b8007b0337008100200052
:10088000618055000b003d000b00200061fe2f0031
:100890000100e1001d0034008281710061016400eb
:1008a0008904d1000884d3000000e800faff3a0070
:1008b000710020006100640003007000020060000d
:1008c0000900320061044400e0844c000988a5005e
:1008d000050032008b05e8006808e10002003a00dc
:1008e0008904d1000884d300f20f20000258e100ef
:1008f00005003d00c75ddd00f907b2008980750085
:1009000008007800000006000bf827008b00780034
:1009100000000500c70ade00f107b200f50fb200c3
:1009200008003200e1cf4200020032000170a00056
:1009300024000500810f700001003200040805004a
:1009400044000500810f700002003a001400050009
:100950008502e9000000400081c04800fcff3b0028
:100960000170a000240005000004be00e9ff07009c
:100970000003be000405be000200be00e5ff070044
:10098000844f7500000006000200be006450e100c4
:10099000050036006420e100020036000968a3006b
:1009a00001003a000800be000160a0004f06780078
:1009b0004f05be004f04be0000000600f0ff2f00f0
:1009c000f1ff2700f9ff3700889fbe008a9fbe0015
:1009d0008c1f7800e4ff0700ebff330003866c00f8
:1009e0006450e100240032006420e100270032005e
:1009f0006150e100220032006120e100210032005c
:100a00008b854200eb07b1000134b800003ab80012
:100a10000804420089844a00013ab8000030b80056
:100a20008880400009014a000400330000004000b3
:100a300081804800020149008b05e900c909dd00f9
:100a4000830170000100320013002000c814de0092
:100a50004814dd004709de001200b200c808de00bd
:100a60000884700085ff070001f0a1000cf0a700ca
:100a700001f0a000cdff37006120e100cfff320080
:100a80000801be000200be00f7ff37006150e10020
:100a9000fcff3a00c9ff37000c00fa00889fbe0037
:100aa0008a9fbe008c9fbe00afff07000206be00fb
:100ab000840578000200be000200200077020700d3
:100ac00005003a008b02b3001200200073020700f9
:100ad00001003a00f8856d000c01be00c600070059
:100ae0000800be009b0032000b08a3009e003a00e5
:100af0000df0a7000be0a00009f0a7000bf0a0008c
:100b000009f0a1000801be00bb0007000bf0a60021
:100b10009500320001003c000bd0a0008acf750088
:100b2000b20033006000b8006250e1009900390063
:100b3000a1003e000b28a300a2003a000bf8a3007e
:100b4000060032000b58a300a70032000801be00c7
:100b5000a90007000800be00940032000800be0093
:100b6000780107000004be00050578000bf0a7001f
:100b70000b30a6000bf0a1005b079800324f20005d
:100b800053f3230019ff070005003d000800be00d5
:100b900012002000340307000004be000a05e9002b
:100ba0004a0798006150b9002fff0700008fbe0070
:100bb0000c01be0084ff07007a020700300798008e
:100bc0000100e00002003d0060001000e08018001d
:100bd000f2ff2700820f5000e08f580064003e00b3
:100be0000c00be006f02070020079800f2072000eb
:100bf000820f5000e08f580005003c0012f82f00d3
:100c0000f3ff2f00820f5000838f580009003d0032
:100c10000a00e0000300320001003c000201ea008b
:100c2000020578006000b800200798003a07980095
:100c3000190037003e0090006100b9000aff07006c
:100c4000809fbe000c00be004109dd004811de009f
:100c50007208b100110207000005be001e01be00af
:100c600059ff07004f01be003cfe0700809fbe00f9
:100c70000c00be000a01be0038fe07001e01be00c7
:100c800051ff07004f01be0035fe070082212700fb
:100c900013f323004cff07000005be002e00900058
:100ca0006100b900f0fe070001f0a2000c01be00d7
:100cb0002bfe07000006be000800be000c03070064
:100cc0000c01be0040ff07000a01be0024fe070021
:100cd000809fbe004a0007002e0590000af0a70082
:100ce0000a05ea00050037000800be000801be0042
:100cf00035ff07000004be000c00be000801be0066
:100d00000a00a70030ff07000006be000a05d10058
:100d1000f5ff3a005e01900002e0a60003003700f4
:100d20000001be00360007006efe07000004be0092
:100d30004f00be00770107000801be0022ff070038
:100d40003e019000c8020700de0590000bf0a700ee
:100d500001f0a2004f06be004f05be004f04be00ca
:100d60000080fa000000060025000700f9ff3700a8
:100d7000270007006000b8000bd0a7000bc0a00040
:100d80000be0a7000bc0a2000bc0a70001f82700d2
:100d9000f0ff37000df8a300020032001e0007002c
:100da000190007000bf8a300eaff32000b30a70080
:100db00001f0a200e7ff37000df8a300f9ff3a00a9
:100dc000f7ff37000801be000b000700e6ff320006
:100dd00001003c000df0a2006000b8000df0a7007b
:100de00009000700dbff37000b000700f1ff2700b9
:100df000f0ff2f00d7ff3700010007007bfe370010
:100e000001f823000000050001f82700000005009c
:100e100020022000010037001002200090418800cd
:100e200000000600889fbe008a9fbe008c9fbe0007
:100e3000820578000004be00b6fe07000800be0070
:100e40006420e1000700390002003a00f1ff2700aa
:100e5000f0ff2f000160a0001202200092418800e4
:100e6000550037006120e10003003a000b00a700a5
:100e700001f823005000370001f0a100020021001a
:100e80009364240059fe07000800be0004003500ea
:100e9000b2fd2000930c2400220207000004be00d3
:100ea0000005eb000b00a6004f0dde0001f0a100d5
:100eb0000004be0032982f0023ea2300c2fe070080
:100ec0000001eb0003f023000b00a70003f8230050
:100ed000a3fd0700b30107000000a7000a00a2005d
:100ee00061fe07000b00e00003003200020020005a
:100ef00003f0230099fd070001f0a2000006be00e8
:100f00000200200093042400affe07000801be0089
:100f100093fd0700809fbe000c00be0022a22a00a5
:100f2000d3a72300a8fe07004f01be008cfd0700d9
:100f30000004be0001f0a10002002000039823007d
:100f40002afe07000800be00190035000001be009f
:100f50009dfe07000006be00b2c52900e362230023
:100f600099fe070022222b00f3942b007cfd070042
:100f70000c01be0094fe0700e273280083c023002a
:100f800077fd07000c01be008ffe070042aa2a0071
:100f9000a3e22b0072fd07000c01be008afe0700d1
:100fa0000801be0088fe07000801be006cfd0700b6
:100fb0000a00a70001f0a2004f06be004f05be00c8
:100fc0004f04be00000006000001eb0095ff370053
:100fd000889fbe008a9fbe000004be004dfe070031
:100fe0000800be006420e1000700390002003a005a
:100ff000f1ff2700f0ff2f000160a0001202200087
:10100000924188004c00370001f0a10002802000ce
:10101000935c2400f5fd07000800be0004003500c5
:10102000b2fd200093042400be0107000004be00ae
:1010300032982f0023f2230063fe070002002000f5
:1010400003f0230001f0a70003f0a00044fd070017
:1010500054010700801f780003fe070001f0a20082
:101060000005be000200200093fc230056fe07008e
:101070000801be003afd0700809fbe000a00be00c6
:1010800022a22a00d39f23004ffe07004f01be007b
:1010900033fd07000004be0001f0a10002002000a3
:1010a00003982300d3fd070003003d00000020004b
:1010b00001f82300180037000800be000001be0040
:1010c00041fe07000005be00823b230043dc2b00ed
:1010d0003dfe07000801be003bfe07000801be0000
:1010e0001ffd07000004be000a00be0052372300a7
:1010f000f3c1230034fe0700f27a2b00b3ed2b007e
:1011000017fd07000a01be002ffe070002002000a5
:1011100003f8230012fd07004f00a600030037006c
:101120000801be0003f0a200020037000001be006b
:101130000800be006bfd07004f05be004f04be0057
:10114000000006000003be00f2fd07006220e1007f
:10115000020032000600be0005000500e507b100f0
:10116000f107b20004f023008480700007f0a700ac
:1011700001f0a00024000500889fbe008a9fbe00e9
:101180008c9fbe000206780001f0a7000cf0a000c2
:101190000004be00dffd07000800be006420e1007f
:1011a0000700390002003a00f1ff2700f0ff2f008e
:1011b0000160a00012022000924188005100370017
:1011c00009f0a1000800be000200200003f823007f
:1011d00088fd0700f4ff3c000800be00020020006c
:1011e0000398230081fd07000800be003000350091
:1011f0000200200003f023007efd070005003c00f4
:101200000800be000801be00effd07000005be009b
:101210000e0037000c10a2000000200001f823008f
:101220000801be00cdfc07000200200003f02300ef
:10123000e5fd07000005be000402070002002000d3
:1012400003002c00e0fd07000004be000a00be0001
:10125000b2d02800130b2c00c1fc07000a01be000d
:10126000d9fd0700020f2500330b2400bcfc07004a
:10127000809fbe000a00be005206220013f02b0021
:10128000d1fd0700b2662100f3f62300b4fc07008d
:101290000a01be00ccfd07004f01be0011fd070092
:1012a0000801be00c8fd07000801be00acfc070035
:1012b0000c00a70007003700b2fd200093fc2300bc
:1012c0000c10a700a6fc07000cf0a70001f0a2007c
:1012d0000c0037000cf0a7000200370001f0a2005c
:1012e00004003700b2fd2000930424000c10a60077
:1012f00003003700b2fd200093fc23000c10a70070
:1013000097fc07004f06be004f05be004f04be000d
:1013100000000600889fbe008a9fbe008c9fbe0012
:101320000004be007bfd07000800be006420e10051
:1013300048003e005500320072212700132b240084
:101340002cfd070047003c000800be00c2ec28004e
:10135000e32c2c0025fd0700470035000800be00e7
:1013600001f0a10002002000033823001ffd070048
:10137000430035000800be00b2a32a0083fb23000f
:1013800091fd07000200200003f0230001f0a700f8
:1013900003f0a00072fc0700820007000005be00f9
:1013a00031fd070001f0a2000006be000200280087
:1013b00013f3230084fd07000801be0068fc07004a
:1013c000809fbe000c00be0032082800e3952b0071
:1013d0007dfd07004f01be0061fc07000006be0056
:1013e0000001be0078fd0700809fbe00424125003d
:1013f00083b8230074fd07000200200003e82300e7
:1014000057fc07000c01be006ffd07000006be0080
:101410004f00be00f2f92b00c3d423006afd070081
:101420000200200003f023004dfc07000c01be0069
:101430004afc07000001be000c00be00a9fc07002a
:101440000200200003f0230045fc07006101450075
:10145000050107004f06be004f05be004f04be0049
:101460000000060001f827000000200022022000f2
:1014700092418800f7ff37006000b800fbff37009b
:1014800001f8230000002000f2ff370009f8a30054
:10149000f0ff32006000b800eeff3700889fbe000a
:1014a0008a9fbe000003be001afd07008505780074
:1014b00082815200020020006220e10004003a0014
:1014c000f307b100040035007718e100040035008f
:1014d0000600be00140037006000b8000f0037009f
:1014e000f50f2000faff2f008502d1000a85d300f6
:1014f0008301e900fcff3b00818462000004650079
:10150000890f7400f2ff32008582ea000a85ea0042
:101510008184620000046500d8fc070007f0a70082
:1015200001f0a0000081eb000200e0004f05be00ca
:101530004f04be0000000600889fbe008a9fbe00c8
:10154000841f780008fd07004f0078001100330069
:10155000f0ff2f00838f6c0006003b000405650040
:101560000a00a7000800370009f0a60010002000bc
:1015700008003700820f5400838f5c00030039009d
:101580001000200001003e000000200009f0a7002c
:101590000000ea004f05be004f04be000000e0005e
:1015a000000006000001be00dafc07000470a7007e
:1015b00003f0a1006509b100160032000d003500ee
:1015c0006828e10006003500f0ff2f00f1ff27003a
:1015d0000300e00013003b000100280000000500ac
:1015e00000004000818048008502e900fcff3a00cd
:1015f00008003700f88f420002003c008000eb003a
:10160000000005008100d1000080d3008502e800c1
:10161000fcff3a000300e00002003b006000100005
:10162000e080180000000600881f7800030478009e
:101630000300e00007003d0060001000e08018009b
:1016400060011900e081190002003b0001f02d004b
:10165000030037000400070008f0a70001f0a00015
:101660004f04780000000600889fbe008a9fbe00dd
:1016700000827000040271000482710026003200b2
:101680000004be000200be006011b8006b0920001b
:10169000950220000182cf000a0039000541b10007
:1016a0000082cf00070039000541b1000982cf0058
:1016b000040039000541b1000882cf000100390063
:1016c0000541b10005425200120032000a003b0001
:1016d00082817100610164008100d1000080d3002b
:1016e0008984d3000884d3008b05e8000442e80015
:1016f000f7ff3a00070037000804440089844c00d3
:1017000000004800818048008b05e9000442e900a0
:10171000f9ff3a0059fc07004f05be004f04be0018
:10172000000006000400200000003700889fbe0073
:101730008a9fbe008c1f78004f26dd008afc0700c0
:1017400091fc33006120e100430032006250e1006f
:1017500041003e003e0039006420e1003c003200c0
:10176000058255000f003b000402e80038003a00f3
:10177000800f5300818f5b00350034000800be00ed
:1017800003f0a10001f0a60003f0a0000cf0a700f8
:1017900073fb070085fc37000603430087834b007b
:1017a0000c4646000005530081855b0002003300b3
:1017b0000a03be000c00a0000402e900f6ff3b0093
:1017c000850578000602430087824b0004003a003a
:1017d0006000b80009f0a70001f0a00073fc37001a
:1017e0000002520081825a000704e0000400330026
:1017f0000603430087834b008b05e900faff37009f
:10180000090578000604be000203be006011b8009e
:101810001afc0700e00f5200e08f5a000700350065
:1018200002003c000c08a300040032000601be00c8
:1018300003f0a0000cf0a70049fb07000a85680030
:1018400001f0a1000af0a70001f0a00057fc37004a
:101850000800be0055fc3700100220000cf0a60066
:101860009041880055fc37000003be0029fc0700aa
:101870006220e100020032000600be000000060007
:1018800085024100e30f20000328e10005003c0031
:10189000a3fe2f000328e10007003d000500200003
:1018a00001003700f50f2000200220009041880041
:1018b0006000b80008003700130020008381520048
:1018c00005003d008100d1000080d3008301e800c5
:1018d000fcff3a0005002000c72add00f107b20036
:1018e0008580700007f0a70001f0a000000006004e
:1018f000889fbe008a9fbe008c9fbe0011fe07001d
:10190000850478000005be006420e10049003e0027
:101910006220e10003003200090035000bf8a3004b
:10192000440032000bf8a30008003200100220002f
:1019300090418800f0ff2f00f1ff27003d003700a5
:1019400001f82f00000020003a0037003d0007009a
:1019500002fb07000006be000a00be00324f200056
:1019600053f32300a3fb0700060034000c00be0065
:1019700034000700f9fa07000006be000a00be00a6
:10198000020037008904e9000c00be002d000700aa
:101990000dfc07002b000700f1fa07000001be0054
:1019a0000c00be004ffb07000005be000001be009a
:1019b00005fc07000006be00a2f32300430d2c0027
:1019c000e7fa0700809fbe000c00be00d2e32700ac
:1019d000d3f02b00fcfb07004f01be0041fb0700ca
:1019e0000006be000a01be00f7fb07000a01be00a8
:1019f000dbfa07000006be006148b9009afb070049
:101a00000005be0032082800e3952b00eefb07001e
:101a10000c01be00d2fa07000006be000a00be009c
:101a20000200280013f32300e7fb07000c01be00af
:101a3000cbfa07004f06be004f05be004f04be00a4
:101a40000000060003f0230002000500889fbe008e
:101a50008a9fbe008c1f78000004be00adfb07000b
:101a60000478a30026003a006120e100250032003e
:101a700009f8a30025003a006420e10021003200ab
:101a8000f507b1000508a300020032000000400085
:101a9000818048006044b80003102000020020004c
:101aa00000004000818048000805440089854c0002
:101ab0000a0541008b8549000a0550008b855800b6
:101ac000030033000a00be00020474008384740023
:101ad0008301d1000281d300830f7100f0ff3a002f
:101ae0008904d1000884d300600149008201780094
:101af000c1adde00fb07b00060fb0700abfb3700a9
:101b00000960a0000800be00a8fb370012022000f8
:101b100092418800f0ff2f00f1ff2700a3fb370060
:020000040000fa
:101b20000400fa00100798000002eb00040f780090
:101b3000010037001e0fe8009e0278001e02900090
:101b4000848f5200fbff39000080fa00000006007d
:101b50000400fa00100798001e029000241088006c
:101b600007e2a9000722a8008620a90007e2a80032
:101b700004108000040f780024e22000040001001b
:101b80000080fa00000006000200fa000002eb00ec
:101b9000040f780006a2a900a0002000e0ff0700c3
:101ba0000602a80000000000060037001000200018
:101bb000dbff07001e0fe8001e027800f40f520042
:101bc00005003c003410800061026200e00f52000a
:101bd000f6ff3a000100370000000000200020005e
:101be000cfff07000080fa00000006000200fa00a4
:101bf0000002eb00040f78000622a800000000009d
:101c00000600370010002000c5ff07001e0fe80087
:101c10001e027800f40f520005003c0034108000d2
:101c200062026200e00f5200f6ff3a000100370046
:101c30000000000020002000b9ff07000080fa002b
:101c4000000006000200fa000002eb00040f78001a
:101c50000642a8000600370010002000b0ff070071
:101c60001e0fe8001e027800f40f520005003c0031
:101c70003410800064026200e00f5200f6ff3a0068
:101c800001003700000000000662a9008620a900bc
:101c900008e2a9000942a900a0002000a0ff070057
:101ca0000080fa00000006000400fa001007980007
:101cb000000000004410800061026200e00f52004a
:101cc000fcff3a008620a9001e0290001410880034
:101cd0000002eb00040f7800080037004510800078
:101ce0000400240004826200e00f52000800320069
:101cf000100020008aff07001e0fe800341f20009c
:101d00009e027800848f5200f4ff340001003700f7
:101d100000000000441f20009e027800848f5200c3
:101d200002003a0014c0b3000b00370045108000d9
:101d30000400280004826200e00f52000300320019
:101d4000c0ff070014c0b3000300370010002000dc
:101d500073ff07000042eb00044078000080fa00a7
:101d6000000006000400fa000002eb00040f7800f7
:101d70000042eb00244798000662a80005003700e7
:101d80001e0fe800047d20009e027800848f520020
:101d900005003c004410800062026200e00f520027
:101da000f7ff32000100370000000000041080003f
:101db000244798002e429000044078000080fa00ea
:101dc000000006000400fa000002eb00040f780097
:101dd0000042eb00244798000662a8000500370087
:101de0001e0fe800047d20009e027800848f5200c0
:101df00005003c004410800062026200e00f5200c7
:101e0000f7ff3200010037000000000004108000de
:101e1000244798000682a8001000200040ff070019
:101e20002e429000044078000080fa000000060076
:101e30000200fa00004f78001147980052ff070097
:101e40001e02fb000400780097ff07001e4290006e
:101e50000402fb000400780093ff070079ff0700ed
:101e60000080fa00000006000400fa00004f78002d
:101e7000114798002247980043ff07001e02fb000d
:101e80000400780088ff07001e4290000402fb0057
:101e90000400780084ff07002e4290000402fb003b
:101ea0000400780080ff070066ff07000080fa004a
:101eb000000006000600fa00004f78001147980065
:101ec0002247980033479800444798002eff0700a8
:101ed0001e02fb000400780073ff07001e42900002
:101ee0000402fb00040078006fff07002e42900000
:101ef0000402fb00040078006bff07003e429000e4
:101f00000402fb000400780067ff07004e429000c7
:101f10000402fb000400780063ff070049ff07008c
:101f20000080fa00000006000600fa00881f780012
:101f300020479800314798002207980012ff0700b9
:101f40002e4290000404a0000402fb00040078006c
:101f500055ff07000002eb00040f78000002eb00c1
:101f6000040f7800090037001e027800ae029000ce
:101f70000484420093ff070000427800044c78007c
:101f800040012000e6fe07001e0fe8003e429000e0
:101f90000402fb000402e9009e0f5200f2ff3c0025
:101fa0003e4290000402fb000402e900ae029000f1
:101fb000048442006bff070000427800044c780064
:101fc00020ff07004f0478000080fa0000000600a0
:101fd0000400fa00100798000002eb0004278800b4
:101fe0000002eb00142788001e029000a410880055
:101ff00017e2a9001722a8008a40a90017e2a8004a
:1020000084108000040f7800a40621000400010061
:102010000080fa00000006000200fa000002eb0057
:10202000040f780016a2a900a0002000bcfe070043
:102030001602a80000000000060037001000200073
:10204000b7fe07001e0fe8001e027800f40f5200d2
:1020500005003c00b410800061026200e00f5200f5
:10206000f6ff3a00010037000000000020002000c9
:10207000abfe07000080fa00000006000200fa0034
:102080000002eb00040f78001622a80000000000f8
:102090000600370010002000a1fe07001e0fe80018
:1020a0001e027800f40f520005003c00b4108000be
:1020b00062026200e00f5200f6ff3a0001003700b2
:1020c000000000002000200095fe07000080fa00bc
:1020d000000006000200fa000002eb00040f780086
:1020e0001642a80006003700100020008cfe0700f2
:1020f0001e0fe8001e027800f40f520005003c009d
:10210000b410800064026200e00f5200f6ff3a0053
:1021100001003700000000001662a9008a40a900f3
:1021200018e2a9001942a900a00020007cfe0700c7
:102130000080fa00000006000400fa001007980072
:1021400000000000c410800061026200e00f520035
:10215000fcff3a008a40a9001e02900094108800fb
:102160000002eb00040f780008003700c510800063
:102170000400240004826200e00f520008003200d4
:102180001000200066fe07001e0fe800341f20002c
:102190009e027800848f5200f4ff34000100370063
:1021a00000000000441f20009e027800848f52002f
:1021b00002003a0014c0b3000b003700c5108000c5
:1021c0000400280004826200e00f52000300320085
:1021d000c0ff070014c0b300030037001000200048
:1021e0004ffe07000042eb00044078000080fa0038
:1021f000000006000400fa000002eb00040f780063
:102200000042eb00244798001662a8000500370042
:102210001e0fe800047d20009e027800848f52008b
:1022200005003c00c410800062026200e00f520012
:10223000f7ff32000100370000000000841080002a
:10224000244798002e429000044078000080fa0055
:10225000000006000400fa000002eb00040f780002
:102260000042eb00244798001662a80005003700e2
:102270001e0fe800047d20009e027800848f52002b
:1022800005003c00c410800062026200e00f5200b2
:10229000f7ff3200010037000000000084108000ca
:1022a000244798001682a800100020001cfe07009a
:1022b0002e429000044078000080fa0000000600e2
:1022c0000200fa00004f78001147980052ff070003
:1022d0001e02fb000400780097ff07001e429000da
:1022e0000402fb000400780093ff070079ff070059
:1022f0000080fa00000006000400fa00004f780099
:10230000114798002247980043ff07001e02fb0078
:102310000400780088ff07001e4290000402fb00c2
:102320000400780084ff07002e4290000402fb00a6
:102330000400780080ff070066ff07000080fa00b5
:10234000000006000600fa00004f780011479800d0
:102350002247980033479800444798002eff070013
:102360001e02fb000400780073ff07001e4290006d
:102370000402fb00040078006fff07002e4290006b
:102380000402fb00040078006bff07003e4290004f
:102390000402fb000400780067ff07004e42900033
:1023a0000402fb000400780063ff070049ff0700f8
:1023b0000080fa00000006000600fa00881f78007e
:1023c00020479800314798002207980012ff070025
:1023d0002e4290000404a0000402fb0004007800d8
:1023e00055ff07000002eb00040f78000002eb002d
:1023f000040f7800090037001e027800ae0290003a
:102400000484420093ff070000427800044c7800e7
:1024100040012000c2fd07001e0fe8003e42900070
:102420000402fb000402e9009e0f5200f2ff3c0090
:102430003e4290000402fb000402e900ae0290005c
:10244000048442006bff070000427800044c7800cf
:1024500020ff07004f0478000080fa00000006000b
:102460000c00fa0040079800510798004e029000b7
:10247000240798005e02900034079800640f47001c
:1024800066024700140798001e029000144278006c
:102490009e0290008502e800154078009e027800b8
:1024a000954378009e02e80015437800658220007d
:1024b0009542780080417800074178008640780096
:1024c000054078007bfe07000080fa00000006004f
:1024d0000600fa0010079800210798000e8fe80008
:1024e0001e027800144278009e02e8001540780031
:1024f0009e82e800954378001e037800e3024300c3
:10250000154378006582200095427800804178006c
:1025100007417800864078000540780065fe070096
:102520000080fa00000006000000fa00748220001b
:102530001442780012c0b30001c3b3000440780015
:1025400049fe07000071220075fd0700748220001b
:102550001442780082c0b30001c3b3000440780085
:1025600041fe0700007122006dfd0700748220000b
:102570001442780002c9b30061c0b300044078007f
:1025800039fe07000071220065fd070074822000fb
:102590001442780002ccb30081c0b300044078003c
:1025a00031fe0700007122005dfd070074822000eb
:1025b0001442780002c4b300a1c1b3000440780003
:1025c00029fe07000071220055fd070074822000db
:1025d0001442780032c3b30031c3b3000440780022
:1025e00021fe0700007122004dfd07000080fa0067
:1025f000000006000a00fa00300798004107980022
:10260000748220001442780061c3b3000440780053
:1026100007fe07006102470003000900005aeb00b3
:1026200074822000144278008e02e80005017800d0
:1026300041c0b300044078003bfe0700ae4290006a
:102640003e029000054a7800be4290004e02900083
:10265000054a78004e429000044f78003e029000f8
:102660000402e8001e03fb0005032000850263004e
:10267000c4aade0085427800054a78004e02900028
:102680000402e8001e03fb00050c20008502630025
:10269000c6aade0085427800054a78000080fa006c
:1026a000000006000000fa00848220001442780036
:1026b00012c0b30001c3b300044078000eff07004e
:1026c0000071220016fd0700848220001442780069
:1026d00082c0b30001c3b3000440780006ff0700c6
:1026e000007122000efd0700848220001442780051
:1026f00002c9b30061c0b30004407800fefe0700c9
:102700000071220006fd0700848220001442780038
:1027100002ccb30081c0b30004407800f6fe07008d
:1027200000712200fefc0700848220001442780021
:1027300002c4b300a1c1b30004407800eefe07005c
:1027400000712200f6fc0700848220001442780009
:1027500032c3b30031c3b30004407800e6fe070083
:1027600000712200eefc07000080fa000000060065
:102770000a00fa0030079800410798007482200090
:102780001442780061c3b30004407800ccfe070017
:102790006102470003000900005aeb008482200018
:1027a000144278008e02e8000501780041c0b300b1
:1027b0000440780000ff0700ae4290003e02900007
:1027c000054a7800be4290004e029000054a78000b
:1027d0004e429000044f78003e0290000402e80050
:1027e0001e03fb000503200085026300c4aade006f
:1027f00085427800054a78004e0290000402e80005
:102800001e03fb00050c200085026300c6aade0043
:1028100085427800054a78000080fa000000060032
:10282000849fbe00861f78003400f800040020005a
:10283000a40188000000fa008460a90014c0b3005d
:102840000443780025812000864a78000080fa0041
:102850003400f9004f0378004f02be00004006002c
:102860000000fa0040062000b9fc070040062000e6
:10287000d7fd07002cff07008aff07000042eb008e
:102880000443780005802000864a780014c0b30015
:102890000443780025812000864a780005e1a800dd
:1028a0000421a900240880000440a1000450a000d5
:1028b0002408880004712200140888000002eb003c
:1028c000040888009460a8008460a9000080fa00d1
:1028d000000006000600fa00881f78001007980024
:1028e000210798000042eb00044378002581200076
:1028f000864a78000002eb00444088004440800093
:102900002440880024408000344088003440800007
:102910001440880065802000248020008500780015
:102920000400780033ff07008580200044802000e9
:1029300085007800040078008dff070014408000b7
:10294000e00f52000300320024408000e00f5200ec
:1029500003003a0000c2eb00044f78002c0037005f
:1029600015408000e43f2000848f52000f003c009f
:1029700025408000e43f2000848f52000b003c0083
:10298000265121002540800014408000ae019000b7
:102990001e01900085007800040078000600010008
:1029a00024c0b300044f78001900370015408000a0
:1029b000e43f2000848f5200040034002540800052
:1029c000e43f2000848f52000f003c00287121005a
:1029d0004140800020408000374080001640800049
:1029e000ae0290001e029000810178000001780084
:1029f00087007800060078000800010014c0b300ca
:102a0000044f7800020037000042eb00044f7800ca
:102a10001e427800044078004f0478000080fa00dd
:102a2000000006002000fa00889fbe008a9fbe00ba
:102a3000400f9800510f9800620f9800730f980094
:102a40004e0a9000c423b100cfa2de000400be00f5
:102a500085f707000002be0002002c00f3472400a7
:102a60000400be001ff707000002be0002002000a5
:102a7000432024000400be00d3f707000002be007c
:102a800002002000433b24000400be0015f70700ad
:102a90000002be000401be000400be00b0f6070044
:102aa0000002be00b2fd2000930424000400be001a
:102ab000c5f707000002be00048fbe005e0a90004a
:102ac000341db100cfa2de000400be0066f707008f
:102ad0000002be0002002c00f34724000400be00e8
:102ae00000f707000002be0002002000432024007f
:102af0000400be00b4f707000002be000200200080
:102b0000433b24000400be00f6f607000002be00ae
:102b10000401be000400be0091f607000002be00e2
:102b2000b2fd2000930424000400be00a6f70700b5
:102b30000002be0024079800350798002e0190007f
:102b4000be01900040612e00e1fb230083f60700e8
:102b50000002be000400be001bf907000004be0016
:102b600082c7290023da23001e00be007cf607007e
:102b70000002be0082c7290023da23000400be0041
:102b800077f607000002be002e019000be01900003
:102b90000400be0072f607000002be000400be0082
:102ba00009f907000002be0002002000030a240009
:102bb0000400be00cbf607000002be000401be0008
:102bc0000800be00c7f607000002be0005f0a10025
:102bd000440798005507980082c7290023da23008c
:102be0001e00be005ef607000002be000401be002b
:102bf000b0fd200091fc230058f607000002be0043
:102c00000400be00f0f807000004be0082c72900df
:102c100023da23001e00be0051f607000002be00aa
:102c200082c7290023da23000400be004cf6070007
:102c30000002be002e019000be0190000400be0004
:102c400047f607000002be000400be00def80700e1
:102c50000002be0002002000030a24000400be009f
:102c6000a0f607000002be000401be000800be007e
:102c70009cf607000002be0005f0a1006407980062
:102c8000750798004e029000de0290000401be001d
:102c90000400be004cf707000002be000200200046
:102ca000830c24000400be002df607000002be00c5
:102cb0000404be004e029000de0290000401be003b
:102cc0000400be0026f607000002be00020020003d
:102cd000030224000400be003bf707000002be0010
:102ce0000405be001e01be0040612e00e1fb230072
:102cf0001af607000002be000400be0077f60700c7
:102d00000002be000401be000a00be002ef707004c
:102d10000002be000401be000800be000ff607005e
:102d20000002be000200200003f023000400be00e9
:102d300059f707000002be007e0b9000048bbe0016
:102d40007e0a90001403be00060f9800170f98002b
:102d50001e01be0040612e00e1fb2300fff50700cd
:102d60000002be000400be0097f807000002be008b
:102d70000e0990009e0990000400be0059f607005d
:102d80000002be004e019000de0190000400be0073
:102d90000df707000002be000400be004df607005c
:102da0000002be00b2fd200093fc23000400be0020
:102db000eaf507000002be006e0b9000048bbe0017
:102dc0006e0a90001403be00260f9800370f98007b
:102dd00018c0b3006e019000fe0190004e009000fc
:102de000de00900083f6070000027800e00f52003a
:102df00001003c000044eb00e04f540005003200ad
:102e00002e0a9000be0a900005f0a2006e0b900002
:102e1000048bbe004f05be004f04be000080fa00c8
:102e2000000006001c00fa00881f78006007980068
:102e300071079800020f9800130f9800240f980054
:102e4000350f9800460f9800570f980018c0b30030
:102e500002002c00f34724006e009000fe0090005a
:102e600064f6070000027800e00f520001003d0008
:102e70000044eb00e04f54003b0032002e0a90006b
:102e8000be0a9000048fbe004e0a9000de0a900039
:102e900024079800350798000200240023402400ee
:102ea0004e089000de089000acf507000002be005e
:102eb00044079800550798004e009000de009000ef
:102ec00043f807000002be00a299290093012400e4
:102ed0000400be00bcf607000002be003ebb970027
:102ee000048bbe0002002800933e24002e089000b0
:102ef000be08900099f507000002be0002002c00f9
:102f0000f34724000400be00f6f507000002be00ef
:102f100002002000432024000400be00aaf607009f
:102f20000002be0002002000433b24000400be005b
:102f3000ecf507000002be000401be000400be0064
:102f400087f507000002be00b2fd200093042400b4
:102f50000400be009cf607000002be004ebb9700b6
:102f6000048bbe004800370018c0b30002002c00dc
:102f7000f34724002e089000be0890001df60700bd
:102f800000027800e00f520001003d000044eb0019
:102f9000e04f54003b0032006e029000fe029000b1
:102fa000048fbe000e0a90009e0a9000240798002d
:102fb0003507980002002800034024000e08900006
:102fc0009e08900065f507000002be0044079800c7
:102fd000550798004e009000de009000fcf70700b7
:102fe0000002be00a2992900930124000400be0043
:102ff00075f607000002be003ebb9700048bbe00c2
:1030000002002000f34024006e009000fe009000bb
:1030100052f507000002be0002002c00f347240016
:103020000400be00aff507000002be000200200051
:10303000432024000400be0063f607000002be0027
:1030400002002000433b24000400be00a5f5070059
:103050000002be000401be000400be0040f50700ef
:103060000002be00b2fd2000930424000400be0054
:1030700055f607000002be004ebb9700048bbe0051
:1030800001003700000000004f0478000080fa00c3
:10309000000006003400f800881f780008002000b7
:1030a000a80188004f0478000000fa008500a900fc
:1030b0000080fa003400f900004006000000fa0029
:1030c000c002a900c042a900c822a90013e1a800bb
:1030d0001221a900940880000440a1000450a0001f
:1030e0009408880014272000740888000002eb0070
:1030f000540888009500a8008500a90044058000b8
:103100000400a1000410a1000420a00044058800d0
:10311000240d800004a0a00004b0a10004c0a10000
:10312000240d8800240d80000400a1000410a000dc
:103130000420a000240d8800350d800004fe2f001f
:1031400004826200d400b300340d880013e1a900aa
:1031500074088000050020000400be00c5f50700cb
:103160000002be0002002000030024000400be0094
:103170005cf507000002be000400be009ff50700da
:103180000002be0004027800540d88000080fa009e
:10319000000006000200fa00000f78001e0278000e
:1031a000e00f520003003a00c442a900c422a90063
:1031b00002003700c442a800c422a800950880007d
:1031c0000400280004826200e00f520001003a006f
:1031d00013e1a8000080fa00000006000200fa00d7
:1031e000000f78001e027800e00f520003003a0042
:1031f000c442a900c422a80002003700c442a800ab
:10320000c422a900950880000400280004826200fe
:10321000e00f520001003a0013e1a8000080fa001c
:10322000000006000000fa0013e1a900c222a90074
:10323000c242a9000080fa00000006000600fa0061
:10324000008fbe00220798002e029000e00f52006f
:1032500003003a00c242a900c222a90002003700be
:10326000c242a800c222a80013e1a8000080fa0010
:10327000000006000600fa00008fbe00220798003a
:103280002e029000e00f520003003a00c242a90053
:10329000c222a80002003700c242a800c222a90030
:1032a00013e1a8000080fa00000006003600f800d4
:1032b000809fbe00829fbe00849fbe00869fbe008e
:1032c000881f78003400f80000002000a00188006a
:1032d0000000fa0084e0a900a4408000b54080000e
:1032e000a2702d0033ca23000400be009cf4070026
:1032f0000002be00a4408800b5408800a4408000c1
:10330000b540800018c0b30002002000031724005d
:103310000400be0037f5070000027800e00f5200fd
:1033200001003d000044eb00e04f5400110032006a
:10333000a4408000b540800018c0b3000200200007
:10334000432324000400be0028f507000002780093
:10335000e00f5200010034000044eb00e04f540045
:103360000400320014c0b3000443780085812000bb
:10337000864a7800a4408000b540800018c0b300a1
:1033800002002000432324000400be0019f50700ba
:1033900000027800e00f520001003d000044eb0005
:1033a000e04f540011003200a4408000b54080007e
:1033b00018c0b30002002000632924000400be00ee
:1033c0000af5070000027800e00f52000100340007
:1033d0000044eb00e04f54000400320024c0b3006e
:1033e0000443780085812000864a7800a44080004c
:1033f000b540800018c0b3000200200063292400fb
:103400000400be00fbf4070000027800e00f520049
:1034100001003d000044eb00e04f54001100320079
:10342000a4408000b540800018c0b3000200200016
:10343000232d24000400be00ecf4070000027800f5
:10344000e00f5200010034000044eb00e04f540054
:103450000400320034c0b3000443780085812000aa
:10346000864a78000080fa003400f9004f047800a2
:103470004f03be004f02be004f01be004f00be0012
:103480003600f900004006000000fa0011e1a80033
:103490001021a900840880000440a0000450a0006e
:1034a0008408880084132000640888000002eb0070
:1034b0003408880094e0a80084e0a9006022b800e5
:1034c000a4408800b54088000042eb000443780027
:1034d00085812000864a78000080fa0000000600fe
:1034e0000000fa00d40c800004a0a10004b0a100e8
:1034f00004c0a100d40c8800d40c80000400a100fa
:103500000410a0000420a000d40c8800e50c80006a
:1035100004fe2f0004826200c400b300e40c8800a3
:1035200004012000040d88000002eb00040d880057
:103530000080fa00000006000400fa00881f7800ee
:1035400004012000040d8800a4408000b5408000e4
:10355000048fbe00000000000200200003f02300e2
:103560001e00be00fef307000002be000403be0002
:10357000a4408000b540800018c0b3000401be0024
:103580000600be009bf4070000027800e00f520026
:1035900001003c000044eb00e04f5400eeff3a0015
:1035a000f4012000040d880000000000020020004b
:1035b00003f823001e00be00e9f307000002be006e
:1035c0000403be00a4408000b540800018c0b300d2
:1035d0000401be000600be0086f407000002780069
:1035e000e00f520001003c000044eb00e04f5400ab
:1035f000eeff3a000002eb00040d88004f04780053
:103600000080fa00000006000200fa00004f780077
:10361000114798001e429000e04f52001300320004
:1036200000ff0700e4408000e00f520003003a0072
:1036300014002000e44088000f003700e4408000c0
:10364000e50f520003003a0064002000e4408800c7
:1036500009003700e4408000ea0f520006003a00fb
:10366000b4002000e4408800030037001e02fb0085
:1036700004007800d9fe0700040078000080fa00fa
:10368000000006000200fa00881f7800004f780052
:103690001e427800e04f5200370032005640800052
:1036a00067408000744180008541800018c0b300ed
:1036b0000401be000600be004ef4070000027800c0
:1036c000e00f520001003c000044eb00e04f5400ca
:1036d0000300320010002000c0fe07003800370051
:1036e00074418000854180000403be0007f0a20001
:1036f000544080006540800018c0b3000401be0043
:103700000600be003bf4070000027800e00f520004
:1037100001003c000044eb00e04f54000300320085
:103720000000eb00adfe070025003700bdfe0700de
:10373000e4408000e10f520003003a002400200022
:10374000e44088001e003700e4408000e60f52008d
:1037500003003a0074002000e4408800180037009d
:10376000e4408000eb0f520015003a00c400200036
:10377000e440880012003700aafe0700e440800001
:10378000e10f520003003a000002eb00e440880021
:103790000b003700e4408000e60f520003003a00bf
:1037a00054002000e440880005003700e440800019
:1037b000eb0f520002003a00a4002000e440880011
:1037c000040078004f0478000080fa000000060032
:1037d0000600fa00881f7800008fbe00424798005c
:1037e0004e429000e04f52009f0032007441800032
:1037f000854180000401be000400be0058f30700ac
:103800000002be000403be005440800065408000fa
:1038100018c0b3000401be000600be00f3f30700a9
:1038200000027800e00f5200010035000044eb0078
:10383000e04f540014003a0074418000854180003c
:103840000200200003002c000400be005ef407000c
:103850000002be000403be005440800065408000aa
:1038600018c0b3000401be000600be00e1f307006b
:1038700000027800e00f520001003c000044eb0021
:10388000e04f54001300320066fe0700e440800061
:10389000e20f520003003a0014002000e4408800c8
:1038a00099003700e4408000e70f520003003a001f
:1038b00064002000e440880093003700e44080006a
:1038c000ec0f52008b003a00b4002000e440880066
:1038d0008d00370054418000654180000401be0026
:1038e0001e00be001df307000002be000403be0060
:1038f000744080008540800018c0b3000401be0001
:103900000600be00b9f3070000027800e00f520085
:10391000010035000044eb00e04f54002600320067
:1039200054418000654180001e01be000400be00bd
:103930000bf307000002be000403be0074408000c9
:103940008540800018c0b3000401be000600be0020
:10395000a8f3070000027800e00f520001003c00cd
:103960000044eb00e04f5400130032002dfe07002e
:10397000e4408000e20f520003003a0044002000bf
:10398000e440880060003700e4408000e70f520008
:1039900003003a0084002000e44088005a00370009
:1039a000e4408000ec0f520054003a00d4002000a4
:1039b000e440880054003700544180006541800095
:1039c0000401be001e00be00e4f207000002be00bb
:1039d0000403be00744080008540800018c0b3001e
:1039e0000401be000600be0082f30700000278005a
:1039f000e00f520001003c000044eb00e04f540097
:103a00000300320010002000e2fd07003e003700f6
:103a100054418000654180001e01be000400be00cc
:103a2000cff207000002be000403be007440800015
:103a30008540800018c0b3000401be000600be002f
:103a40006af3070000027800e00f52000100350021
:103a50000044eb00e04f54002a0032000000eb006d
:103a6000ccfd070028003700eefd0700e440800091
:103a7000e20f520003003a000002eb00e44088002d
:103a800021003700e4408000e70f520013003a00a5
:103a9000744080008540800018c0b3000200200000
:103aa000031424000400be0050f307000002780055
:103ab000e00f5200010035000044eb00e04f5400dd
:103ac0000300320084002000e44088000e0037002c
:103ad00054002000e44088000b003700e4408000e0
:103ae000ec0f520008003a00a4002000e4408800d7
:103af0000500370000000000030037000000000050
:103b00000100370000000000040078004f04780036
:103b10000080fa00000006000400fa00881f780008
:103b2000008fbe00a4408000b540800018c0b300e4
:103b30001e01be000400be002ef307000002780044
:103b4000e00f520001003c000044eb00e04f540045
:103b50000200320014c0b300010037000042eb0045
:103b6000044078004f0478000080fa00000006004e
:103b70000200fa00004f7800040078000080fa008c
:103b8000000006000400fa00100798000002eb0095
:103b9000040f78000900370067fe0700d44080005a
:103ba0000402e800d4408800d44080000402e80009
:103bb000d44088001e0fe8001e0fe8001e0290008f
:103bc0009e027800848f5200f3ff3500940020009d
:103bd000e4408800040078000080fa00000006003d
:103be0000000fa0054002000e44088000002eb00ce
:103bf000f44088001afb070030fd070022fe070092
:103c000037fe0700c022a900c042a900c822a900af
:103c1000c802a9000475270065d5230074418800f7
:103c20008541880001003700000000002481200049
:103c300014427800e04f520007003200e18020007b
:103c4000a080200023fb0700004278000443780096
:103c500045822000864a7800f4408000e00f520040
:103c6000f1ff3a00e440800005002000c60020007b
:103c700007002000860f5200878f5a004a003e003e
:103c8000046001000c0037001100370015003700f8
:103c9000450037001a0037001c00370021003700ac
:103ca000250037002b0037002c0037002c00370090
:103cb000310037003500370044822000144278007c
:103cc0008440780010c0b3004ffe07003900370071
:103cd00044822000144278000440780069fe070006
:103ce00034003700448220001442780004417800f8
:103cf0000000200061202400b5fe07002d003700e1
:103d00000002eb00e44088002a00370044822000d3
:103d1000144278008440780010c0b3003afe0700d7
:103d200024003700448220001442780004407800c8
:103d300054fe07001f003700448220001442780020
:103d4000044178000000200001142400a0fe0700b8
:103d500018003700600020008aff070015003700b8
:103d600044822000144278008440780010c0b300e0
:103d700025fe07000f00370044822000144278001f
:103d8000044078003ffe07000a003700448220000c
:103d900014427800044178000000200061202400d3
:103da0008bfe0700030037000002eb00e4408800b0
:083db000000000009dff370038
:020000040000fa
:103db800260800000c0000000200000008b0b00057
:103dc800000000000040500077563d000008000049
:103dd8002600000000000000320800000200000079
:083de8000000000000000000d3
:020000040000fa
:0200000401f009
:04000c00f8ff0000f9
:00000001FF
