:020000040000fa
:080000000002040000000000f2
:020000040000fa
:100008009a0200009a0200009a0200009a02000078
:100018009a0200009a0200009a0200009a02000068
:100028009a0200009a0200009a0200009a02000058
:100038009a0200009a0200009a0200009a02000048
:10004800780700009a0200009a0200009a02000055
:100058009a0200009a0200009a0200009a02000028
:100068009a0200009a0200009a0200009a02000018
:100078009a0200009a0200009a0200009a02000008
:100088009a0200009a0200009a0200009a020000f8
:100098009a0200009a0200009a0200009a020000e8
:1000a8009a0200009a0200009a0200009a020000d8
:1000b8009a0200009a0200009a0200009a020000c8
:1000c8009a0200009a0200009a0200009a020000b8
:1000d8009a0200009a0200009a0200009a020000a8
:1000e8009a0200009a0200009a0200009a02000098
:1000f8009a0200009a0200009a0200009a02000088
:100108009a0200009a0200009a0200009a02000077
:100118009a0200009a0200009a0200009a02000067
:100128009a0200009a0200009a0200009a02000057
:100138009a0200009a0200009a0200009a02000047
:100148009a0200009a0200009a0200009a02000037
:100158009a0200009a0200009a0200009a02000027
:100168009a0200009a0200009a0200009a02000017
:100178009a0200009a0200009a0200009a02000007
:100188009a0200009a0200009a0200009a020000f7
:100198009a0200009a0200009a0200009a020000e7
:1001a8009a0200009a0200009a0200009a020000d7
:1001b8009a0200009a0200009a0200009a020000c7
:1001c8009a0200009a0200009a0200009a020000b7
:1001d8009a0200009a0200009a0200009a020000a7
:1001e8009a0200009a0200009a0200009a02000097
:0801f8009a0200009a020000c7
:020000040000fa
:100208009a0200009a0200009a0200009a02000076
:100218009a0200009a0200009a0200009a02000066
:100228009a0200009a0200009a0200009a02000056
:100238009a0200009a0200009a0200009a02000046
:10024800780700009a0200009a0200009a02000053
:100258009a0200009a0200009a0200009a02000026
:100268009a0200009a0200009a0200009a02000016
:100278009a0200009a0200009a0200009a02000006
:100288009a0200009a0200009a0200009a020000f6
:100298009a0200009a0200009a0200009a020000e6
:1002a8009a0200009a0200009a0200009a020000d6
:1002b8009a0200009a0200009a0200009a020000c6
:1002c8009a0200009a0200009a0200009a020000b6
:1002d8009a0200009a0200009a0200009a020000a6
:1002e8009a0200009a0200009a0200009a02000096
:1002f8009a0200009a0200009a0200009a02000086
:100308009a0200009a0200009a0200009a02000075
:100318009a0200009a0200009a0200009a02000065
:100328009a0200009a0200009a0200009a02000055
:100338009a0200009a0200009a0200009a02000045
:100348009a0200009a0200009a0200009a02000035
:100358009a0200009a0200009a0200009a02000025
:100368009a0200009a0200009a0200009a02000015
:100378009a0200009a0200009a0200009a02000005
:100388009a0200009a0200009a0200009a020000f5
:100398009a0200009a0200009a0200009a020000e5
:1003a8009a0200009a0200009a0200009a020000d5
:1003b8009a0200009a0200009a0200009a020000c5
:1003c8009a0200009a0200009a0200009a020000b5
:1003d8009a0200009a0200009a0200009a020000a5
:1003e8009a0200009a0200009a0200009a02000095
:0803f8009a0200009a020000c5
:020000040000fa
:100400002f8220000eff20000e0188000000000057
:10041000000020000000e000020032000001200087
:10042000200288000c000700a08e200001002000a0
:1004300011000700000020000000e0000200320070
:100440000000020000000000a00702000000000001
:100450000040da000000fe004440a9000001200036
:100460000000e0000300320000002000a00188002e
:100470004440a80000000600910188008000780038
:100480000000eb0015003700e280400032a0b4000d
:100490009101ba00e280400032a0b4009102ba009b
:1004a000e280400032a0b4000002eb00472bde00e7
:1004b000f507b200602ce10004003a000059eb009f
:1004c0008301e900fdff3e00040037006128e100e0
:1004d000010032000082eb00040007001101ba00a5
:1004e0000200e000e8ff3a00000006003159ba00bf
:1004f0008301e9000c0032002159ba008301e900b0
:10050000080032000400e00003003a00e2804000ee
:1005100032a0b400f5ff370011d9ba008301e90019
:10052000faff3a008100e800e180400032a0b40008
:10053000000006000040da000000fe0003f0a20008
:10054000889fbe008a9fbe008c1f7800180107009c
:100550001f0133006450e1004f0032006420e100cd
:100560005200320003826c0007003b000905d000f6
:100570000306d000820f54000c065d000200390013
:100580000200320089017800030678008582550058
:1005900004003d000003fd008103fd008502ea0028
:1005a0008b854200840f720002003b006000100047
:1005b000e08018006011b8000005eb007a28e10027
:1005c0000a00390006007800c75ddd00f707b200b9
:1005d000878075002d003700828171000a01780044
:1005e000610560008180d1000080d3008502e900b0
:1005f000f9ff3b00060440008784480002003b00ee
:1006000060041400e0841c000988a3000700320085
:100610008a81710082817100610164008904d100c6
:100620000884d3008b05e800170037000978a30081
:1006300013003a000b00e000130034008b05e900c2
:100640000804440089844c000a4474000978a3001b
:100650000d003a000b00e000070034008b05e900b4
:100660000804440089844c0001003a000b0020007b
:100670000978a300f7ff32000001eb000200370009
:10068000828171000a0178008e0007000cf0a7003b
:1006900001f0a000d70037006420e10002003a001a
:1006a000838f6c00d70033000801be000200be003b
:1006b000d0003700889fbe008a9fbe008c1f780044
:1006c000bb000700c200330003866c006450e100e9
:1006d0002e0032006420e100330032006150e1005e
:1006e0002f0032006120e100310032008585550085
:1006f000eb07b000090020000804200005003700c7
:100700000804440089844c000a00310006034300b9
:1007100087834b000001530081815b00f8ff3300a9
:100720000203be000800a0000804440089844c00b5
:10073000f6ff3900c639dd00830173000100320085
:10074000130020008904d1000884d3000998a30075
:10075000050032000800a7000300a0008904d100b2
:100760000884d3008b05e8008904d1000884d300f5
:100770000001eb000281d2005200070001f0a1004d
:100780000cf0a70001f0a0009a0037006420e100ff
:100790009c0032000801be000200be00f7ff3700d7
:1007a0006120e100970032006000b800f3ff3700dd
:1007b0000000200001f82700f0ff3700140020009f
:1007c000c7003700f4ff2f00c50037000001be004e
:1007d000620007000470a70003f0a1006509b100e2
:1007e000160032000d0035006828e10006003500d3
:1007f000f0ff2f00f1ff27000300e00013003b0093
:100800000100280000000500000040008180480031
:100810008502e900fcff3a0008003700f88f42002b
:1008200002003c008000eb00000005008100d100c8
:100830000080d3008502e800fcff3a000300e000de
:1008400002003b0060001000e0801800000006007d
:100850000001be00410007000470a70003f0a100e2
:1008600003f8a30013003a006509b100100032003c
:10087000090035006928e100020035000100280068
:100880000000050000004000818048008502e9006a
:10089000fcff3a0000000600f88f4200050035001a
:1008a0008100d1000080d3008502e800fcff3a00ff
:1008b000000006008000eb00000005006011b80099
:1008c000a200370081002000618055000b003d0030
:1008d0000b00200061fe2f000100e1001d0034002c
:1008e00082817100610164008904d1000884d30011
:1008f0000000e800faff3a00710020006100640087
:10090000030070000200600009003200610444002e
:10091000e0844c000988a500050032008b05e80042
:100920006808e10002003a008904d1000884d3007d
:10093000f20f20000258e10005003d00c75ddd0018
:10094000f907b200898075000800780000000600f1
:100950000bf827008b00780000000500c70ade00b6
:10096000f107b200f50fb20008003200e1cf4200fb
:10097000020032000170a00024000500810f700009
:10098000010032000408050044000500810f7000da
:1009900002003a00140005008502e9000000400052
:1009a00081c04800fcff3b000170a000240005004e
:1009b0000004be00e9ff07000003be000405be00fe
:1009c0000200be00e5ff0700844f7500000006002e
:1009d0000200be006450e100050036006420e10022
:1009e000020036000968a30001003a000800be00ba
:1009f0000160a0004f0678004f05be004f04be0006
:100a000000000600f0ff2f00f1ff2700f9ff37007c
:100a1000889fbe008a9fbe008c1f7800e4ff0700fd
:100a2000ebff330003866c006450e10024003200c9
:100a30006420e100270032006150e1002200320012
:100a40006120e100210032008b854200eb07b100fc
:100a50000134b800003ab8000804420089844a0012
:100a6000013ab8000030b8008880400009014a000f
:100a7000040033000000400081804800020149006a
:100a80008b05e900c909dd00830170000100320017
:100a900013002000c814de004814dd004709de0002
:100aa0001200b200c808de000884700085ff07004d
:100ab00001f0a1000cf0a70001f0a000cdff37006d
:100ac0006120e100cfff32000801be000200be003d
:100ad000f7ff37006150e100fcff3a00c9ff370023
:100ae000889fbe008a9fbe00841f7800b0ff070069
:100af0004f00780011003300f0ff2f00838f6c004f
:100b000006003b00040565000a00a7000800370046
:100b100009f0a6001000200008003700820f5400e2
:100b2000838f5c00030039001000200001003e00ac
:100b30000000200009f0a7000000ea004f05be00f9
:100b40004f04be000000e00000000600889fbe00c9
:100b50008a9fbe000082700004027100048271004e
:100b6000260032000004be000200be006011b80082
:100b70006b092000950220000182cf000a00390095
:100b80000541b1000082cf00070039000541b100e6
:100b90000982cf00040039000541b1000882cf006e
:100ba000010039000541b100054252001200320037
:100bb0000a003b0082817100610164008100d10064
:100bc0000080d3008984d3000884d3008b05e8001b
:100bd0000442e800f7ff3a00070037000804440029
:100be00089844c0000004800818048008b05e900a2
:100bf0000442e900f9ff3a0032ff07004f05be004a
:080c00004f04be0000000600d5
:020000040000fa
:100c0800000000002040000000000000803f0000bd
:100c180000000000000000000000000000000000cc
:020000040000fa
:100c28000800fa00889fbe00008fbe0022079800c7
:100c38003307980014408000254080003440880025
:100c4800454088002e019000be0190001e00be00a5
:100c580038fe07000002be001440880025408800c6
:100c6800144080002540800054408800654088007a
:100c780076408000874080003440800045408000f6
:100c88000401be000600be002bfe07000002be00e5
:100c98007440880085408800164080002740800006
:100ca80034408000454080000401be000600be00bc
:100cb80020fe07000002be0094408800a54088007e
:100cc8007640800087408000b4408000c5408000a6
:100cd80018c0b3000401be000600be00b5fe070040
:100ce80000027800e00f5200010035000044eb00dc
:100cf800e04f540005003200b4408000c540800039
:100d080074408800854088001200370076408000d3
:100d180087408000d4408000e540800018c0b300c0
:100d28000401be000600be00a4fe07000002780011
:100d3800e00f520001003c000044eb00e04f54007b
:100d480004003200d4408000e540800074408800f0
:100d58008540880046308400573084005440800025
:100d6800654080000401be000600be0026ff0700a3
:100d78000002be000404be006630840077308400a0
:100d880074408000854080000401be000600be005b
:100d98001dff07000002be000401be000800be00df
:100da800e5fd07000002be000404be008630840092
:100db8009730840094408000a54080000401be0064
:100dc8000600be0010ff07000002be000401be00be
:100dd8000800be00d8fd07000002be000400be00e7
:100de8004f04be000080fa00000006000600fa006a
:100df800008fbe00220798002e029000e00f5200dc
:100e080003003a00cb82a900c282a9000200370081
:100e1800cb82a800c282a8000002eb00f440880040
:100e28002430840035308400b2fd2000930424006f
:100e38000400be00f4fe07000002be000401be006c
:100e4800000020008134240018fe07000002be00c4
:100e58001e01be000400be00ebfe07000002be003b
:100e68000400be0057fe07000002be00040278001e
:100e78000441880013e1a8000080fa000000060081
:100e88000600fa00008fbe00220798002e0290008c
:100e9800e00f520003003a00cb82a900c282a800ea
:100ea80002003700cb82a800c282a9000002eb0032
:100eb800f440880032d8220083fd23001e00be00c3
:100ec800d1fe07000002be000400be003dfe070080
:100ed8000002be00040278000441880013e1a80063
:100ee8000080fa0000000600849fbe003400f8006d
:100ef80004002000a40188000000fa008500a90071
:100f0800f44080000402e800f4408800f5408000c6
:100f180004418000848f520003003500c282a9007a
:100f2800cb82a90013e1a9000080fa003400f9007f
:100f38004f02be00004006000400fa00000f7800cf
:100f4800110798000002eb00041688000002eb006d
:100f5800441688000002eb00042788000002eb001a
:100f68001427880005e1a8000421a90024088000ae
:100f78000440a0000450a1002408880084382100ff
:100f8800140888000002eb000408880011e1a8009a
:100f98001021a900840880000440a0000450a1008a
:100fa8008408880084382100640888000002eb0067
:100fb8003408880013e1a8001221a90094088000d1
:100fc8000440a1000450a0009408880014272000c1
:100fd800740888000002eb0054088800840c800024
:100fe80004a0a10004b0a10004c0a000840c8800e3
:100ff800840c80000400a1000410a0000420a000bc
:10100800840c8800950c800004fe2f000482620086
:10101800b400b300940c8800d40c800004a0a10094
:1010280004b0a10004c0a100d40c8800d40c800036
:101038000400a1000410a0000420a000d40c880023
:10104800e50c800004fe2f0004826200c400b30097
:10105800e40c8800240d800004a0a00004b0a100c6
:1010680004c0a100240d8800240d80000400a10004
:101078000410a0000420a000240d8800350d800075
:1010880004fe2f0004826200d400b300340d8800ef
:10109800440580000400a1000410a1000420a00061
:1010a800440588009500a8008500a9000002eb000f
:1010b800044088006022b800144088002540880059
:1010c8006022b80034408800454088006022b8009b
:1010d80054408800654088006022b8007440880049
:1010e800854088006022b80094408800a5408800a8
:1010f8006022b800b4408800c54088000400200081
:1011080005122400d4408800e54088000002eb0066
:10111800f44088000002eb0004418800ca22a900bc
:10112800c282a90074088000050020000400be00e7
:10113800e0fd07000002be000200200003f02300cb
:101148000400be0030fe07000002be000400be001e
:10115800bdfd07000002be0004027800540d88009f
:1011680013e1a9000900370000000000070037005c
:1011780000000000050037000000000003003700f1
:10118800000000000100370000000000044080005b
:10119800e00f5200f4ff320004408000e10f5200db
:1011a800f3ff320004408000e20f5200f2ff3200e9
:1011b80004408000e30f5200f1ff32000440800039
:0c11c800e40f5200f0ff3200f0ff37008f
:020000040000fa
:1011d40000080000220000000000000000000000e1
:020000040000fa
:0200000401f009
:04000c00d8ff000019
:00000001FF
