:020000040000fa
:080000000002040000000000f2
:020000040000fa
:10000800aa020000aa020000aa020000aa02000038
:10001800aa020000aa020000aa020000aa02000028
:10002800aa020000aa020000aa020000aa02000018
:10003800aa020000aa020000aa020000aa02000008
:020000040000fa
:020000040000fa
:10040000ef8120000eff20000e0188000000000098
:10041000000020000000e000020032000001200087
:10042000200288000c000700c0a32100010020006a
:1004300011000700000020000000e0000200320070
:10044000000002000000000056180200000000003a
:100450000040da000000fe004440a90080002000b7
:100460000000e0000300320000002000a00188002e
:100470004440a80000000600910188008000780038
:100480000000eb0015003700e280400032a0b4000d
:100490009101ba00e280400032a0b4009102ba009b
:1004a000e280400032a0b4000002eb00472bde00e7
:1004b000f507b200602ce10004003a000059eb009f
:1004c0008301e900fdff3e00040037006128e100e0
:1004d000010032000082eb00040007001101ba00a5
:1004e0000200e000e8ff3a00000006003159ba00bf
:1004f0008301e9000c0032002159ba008301e900b0
:10050000080032000400e00003003a00e2804000ee
:1005100032a0b400f5ff370011d9ba008301e90019
:10052000faff3a008100e800e180400032a0b40008
:1005300000000600000000000000000000000000b5
:1005400000000000000000000000000000000000ab
:10055000000000000040da000000fe0003f0a200ee
:10056000889fbe008a9fbe008c1f78000001070094
:10057000070133006450e1004f0032006420e100c5
:100580005200320003826c0007003b000905d000d6
:100590000306d000820f54000c065d0002003900f3
:1005a0000200320089017800030678008582550038
:1005b00004003d000003fd008103fd008502ea0008
:1005c0008b854200840f720002003b006000100027
:1005d000e08018006011b8000005eb007a28e10007
:1005e0000a00390006007800c75ddd00f707b20099
:1005f000878075002d003700828171000a01780024
:10060000610560008180d1000080d3008502e9008f
:10061000f9ff3b00060440008784480002003b00cd
:1006200060041400e0841c000988a3000700320065
:100630008a81710082817100610164008904d100a6
:100640000884d3008b05e800170037000978a30061
:1006500013003a000b00e000130034008b05e900a2
:100660000804440089844c000a4474000978a300fb
:100670000d003a000b00e000070034008b05e90094
:100680000804440089844c0001003a000b0020005b
:100690000978a300f7ff32000001eb0002003700e9
:1006a000828171000a017800760007000cf0a70033
:1006b00001f0a000bf0037006420e10002003a0012
:1006c000838f6c00bf0033000801be000200be0033
:1006d000b80037000001eb00a90237000081eb00f1
:1006e000d2013700889fbe008a9fbe008c1f780011
:1006f0009f000700a600330003866c006450e100f1
:100700002e0032006420e100330032006150e1002d
:100710002f0032006120e100310032008585550054
:10072000eb07b00009002000080420000500370096
:100730000804440089844c000a0031000603430089
:1007400087834b000001530081815b00f8ff330079
:100750000203be000800a0000804440089844c0085
:10076000f6ff3900c639dd00830173000100320055
:10077000130020008904d1000884d3000998a30045
:10078000050032000800a7000300a0008904d10082
:100790000884d3008b05e8008904d1000884d300c5
:1007a0000001eb000281d2003600070001f0a10039
:1007b0000cf0a70001f0a0007e0037006420e100eb
:1007c000800032000801be000200be00f7ff3700c3
:1007d0006120e1007b0032006000b800f3ff3700c9
:1007e0000000200001f82700f0ff3700f4ff2f0081
:1007f000530337000001be00480007000470a70043
:1008000003f0a1006509b100160032000d003500ab
:100810006828e10006003500f0ff2f00f1ff2700f7
:100820000300e00013003b00010028000000050069
:1008300000004000818048008502e900fcff3a008a
:1008400008003700f88f420002003c008000eb00f7
:10085000000005008100d1000080d3008502e8007f
:10086000fcff3a000300e00002003b0060001000c3
:10087000e0801800000006004f89de008201780049
:100880004c03370081002000618055000b003d00c3
:100890000b00200061fe2f000100e1001d0034006c
:1008a00082817100610164008904d1000884d30051
:1008b0000000e800faff3a007100200061006400c7
:1008c000030070000200600009003200610444006f
:1008d000e0844c000988a500050032008b05e80083
:1008e0006808e10002003a008904d1000884d300be
:1008f000f20f20000258e10005003d00c75ddd0059
:10090000f907b20089807500080078000000060031
:100910000bf827008b00780000000500c70ade00f6
:10092000f107b200f50fb20008003200e1cf42003b
:10093000020032000170a00024000500810f700049
:10094000010032000408050044000500810f70001a
:1009500002003a00140005008502e9000000400092
:1009600081c04800fcff3b000170a000240005008e
:100970000004be00e9ff07000003be000405be003e
:100980000200be00e5ff0700844f7500000006006e
:100990000200be006450e100050036006420e10062
:1009a000020036000968a30001003a000800be00fa
:1009b0000160a0004f0678004f05be004f04be0046
:1009c00000000600f0ff2f00f1ff2700f9ff3700bd
:1009d000889fbe008a9fbe008c1f7800e4ff07003e
:1009e000ebff330003866c006450e100240032000a
:1009f0006420e100270032006150e1002200320053
:100a00006120e100210032008b854200eb07b1003c
:100a10000134b800003ab8000804420089844a0052
:100a2000013ab8000030b8008880400009014a004f
:100a300004003300000040008180480002014900aa
:100a40008b05e900c909dd00830170000100320057
:100a500013002000c814de004814dd004709de0042
:100a60001200b200c808de000884700085ff07008d
:100a700001f0a1000cf0a70001f0a000cdff3700ad
:100a80006120e100cfff32000801be000200be007d
:100a9000f7ff37006150e100fcff3a00c9ff370063
:100aa0000c00fa00889fbe008a9fbe008c9fbe008b
:100ab000afff07000206be00840578000200be00fa
:100ac000020020007702070005003a008b02b30005
:100ad000120020007302070001003a00f8856d0043
:100ae0000c01be00c60007000800be009b003200db
:100af0000b08a3009e003a000df0a7000be0a00039
:100b000009f0a7000bf0a00009f0a1000801be0049
:100b1000bb0007000bf0a6009500320001003c006e
:100b20000bd0a0008acf7500b20033006000b8007f
:100b30006250e10099003900a1003e000b28a3009b
:100b4000a2003a000bf8a300060032000b58a300e5
:100b5000a70032000801be00a90007000800be007f
:100b6000940032000800be00780107000004be00b7
:100b7000050578000bf0a7000b30a6000bf0a100d4
:100b80005b079800324f200053f3230087020700d1
:100b900005003d000800be001200200015030700fc
:100ba0000004be000a05e9004a0798006150b90038
:100bb00031ff0700008fbe000c01be0084ff07005c
:100bc0000cff0700300798000100e00002003d0024
:100bd00060001000e0801800f2ff2700820f500034
:100be000e08f580064003e000c00be0001ff0700cb
:100bf00020079800f2072000820f5000e08f580075
:100c000005003c0012f82f00f3ff2f00820f500068
:100c1000838f580009003d000a00e0000300320005
:100c200001003c000201ea00020578006000b80003
:100c3000200798003a079800190037003e009000fe
:100c40006100b9000cff0700809fbe000c00be00d1
:100c50004109dd004811de007208b10011020700f1
:100c60000005be001e01be0059ff07004f01be0077
:100c70003afe0700809fbe000c00be000a01be00c5
:100c800036fe07001e01be0051ff07004f01be00e7
:100c900033fe07008221270013f323004cff0700d7
:100ca0000005be002e0090006100b900f2fe0700b2
:100cb00001f0a2000c01be0029fe07000006be00e4
:100cc0000800be00ed0207000c01be0040ff070057
:100cd0000a01be0022fe0700809fbe004a000700f6
:100ce0002e0590000af0a7000a05ea00050037006b
:100cf0000800be000801be0035ff07000004be006a
:100d00000c00be000801be000a00a70030ff07006b
:100d10000006be000a05d100f5ff3a005e01900012
:100d200002e0a600030037000001be003600070005
:100d30006cfe07000004be004f00be0077010700f4
:100d40000801be0022ff07003e019000a902070033
:100d5000de0590000bf0a70001f0a2004f06be00d8
:100d60004f05be004f04be000080fa0000000600e0
:100d700025000700f9ff3700270007006000b800d2
:100d80000bd0a7000bc0a0000be0a7000bc0a20077
:100d90000bc0a70001f82700f0ff37000df8a300f3
:100da000020032001e000700190007000bf8a30024
:100db000eaff32000b30a70001f0a200e7ff370086
:100dc0000df8a300f9ff3a00f7ff37000801be0055
:100dd0000b000700e6ff320001003c000df0a2000e
:100de0006000b8000df0a70009000700dbff370026
:100df0000b000700f1ff2700f0ff2f00d7ff37009f
:100e000001000700e901370001f823000000050098
:100e100001f8270000000500200220000100370033
:100e200010022000e040880000000600889fbe00fd
:100e30008a9fbe008c9fbe00820578000004be0021
:100e4000b6fe07000800be006420e100070039007c
:100e500002003a00f1ff2700f0ff2f000160a00020
:100e600012022000e2408800550037006120e100b6
:100e700003003a000b00a70001f8230050003700e0
:100e800001f0a1000200210093642400c7010700c3
:100e90000800be0004003500b2fd2000930c2400c1
:100ea000030207000004be000005eb000b00a600d3
:100eb0004f0dde0001f0a1000004be0032982f00ab
:100ec00023ea2300c2fe07000001eb0003f0230029
:100ed0000b00a70003f82300a1fd070045fe070053
:100ee0000000a7000a00a20063fe07000b00e0005c
:100ef000030032000200200003f0230097fd0700ea
:100f000001f0a2000006be000200200093042400ad
:100f1000affe07000801be0091fd0700809fbe00e4
:100f20000c00be0022a22a00d3a72300a8fe0700bf
:100f30004f01be008afd07000004be0001f0a100c1
:100f40000200200003982300980107000800be005b
:100f5000190035000001be009dfe07000006be001e
:100f6000b2c52900e362230099fe070022222b006c
:100f7000f3942b007afd07000c01be0094fe0700dd
:100f8000e273280083c0230075fd07000c01be003a
:100f90008ffe070042aa2a00a3e22b0070fd070083
:100fa0000c01be008afe07000801be0088fe070093
:100fb0000801be006afd07000a00a70001f0a200b8
:100fc0004f06be004f05be004f04be0000000600e5
:100fd0000001eb0095ff3700889fbe008a9fbe008e
:100fe0000004be004dfe07000800be006420e100c2
:100ff0000700390002003a00f1ff2700f0ff2f0040
:101000000160a00012022000e24088004c0037007e
:1010100001f0a10002802000935c2400630107001e
:101020000800be0004003500b2fd20009304240037
:101030009f0107000004be0032982f0023f2230016
:1010400063fe07000200200003f0230001f0a70068
:1010500003f0a00042fd0700e6fd0700801f7800b6
:1010600005fe070001f0a2000005be0002002000fe
:1010700093fc230056fe07000801be0038fd070060
:10108000809fbe000a00be0022a22a00d39f230038
:101090004ffe07004f01be0031fd07000004be00f7
:1010a00001f0a1000200200003982300cffd0700fb
:1010b00003003d000000200001f823001800370065
:1010c0000800be000001be0041fe07000005be0092
:1010d000823b230043dc2b003dfe07000801be00dd
:1010e0003bfe07000801be001dfd07000004be0016
:1010f0000a00be0052372300f3c1230034fe07006c
:10110000f27a2b00b3ed2b0015fd07000a01be009b
:101110002ffe07000200200003f8230010fd070047
:101120004f00a600030037000801be0003f0a20034
:10113000020037000001be000800be0069fd070084
:101140004f05be004f04be00000006000003be00b5
:10115000f2fd07006220e100020032000600be003e
:1011600005000500e507b100f107b20004f0230017
:101170008480700007f0a70001f0a00024000500a3
:10118000889fbe008a9fbe008c9fbe00020678002a
:1011900001f0a7000cf0a0000004be00dffd070076
:1011a0000800be006420e1000700390002003a0098
:1011b000f1ff2700f0ff2f000160a00012022000c5
:1011c000e24088005100370009f0a1000800be008d
:1011d0000200200003f8230084fd0700f4ff3c0018
:1011e0000800be000200200003982300ef00070063
:1011f0000800be00300035000200200003f023008c
:101200007afd070005003c000800be000801be0092
:10121000effd07000005be000e0037000c10a20015
:101220000000200001f823000801be00cbfc0700ed
:101230000200200003f02300e5fd07000005be00ca
:10124000e50107000200200003002c00e0fd07007c
:101250000004be000a00be00b2d02800130b2c0010
:10126000bffc07000a01be00d9fd0700020f2500e0
:10127000330b2400bafc0700809fbe000a00be00aa
:101280005206220013f02b00d1fd0700b2662100a8
:10129000f3f62300b2fc07000a01be00ccfd0700f4
:1012a0004f01be000ffd07000801be00c8fd07008a
:1012b0000801be00aafc07000c00a70007003700c9
:1012c000b2fd200093fc23000c10a700a4fc070033
:1012d0000cf0a70001f0a2000c0037000cf0a700f2
:1012e0000200370001f0a20004003700b2fd200028
:1012f000930424000c10a60003003700b2fd200068
:1013000093fc23000c10a70095fc07004f06be00bd
:101310004f05be004f04be0000000600889fbe00bf
:101320008a9fbe008c9fbe000004be007bfd0700ac
:101330000800be006420e10048003e005500320075
:1013400072212700132b240028fd070047003c00d2
:101350000800be00c2ec2800e32c2c00930007001c
:10136000470035000800be0001f0a1000200200087
:10137000033823008d000700430035000800be003d
:10138000b2a32a0083fb230091fd07000200200086
:1013900003f0230001f0a70003f0a00070fc070099
:1013a00014fd07000005be0033fd070001f0a20098
:1013b0000006be000200280013f3230084fd07008e
:1013c0000801be0066fc0700809fbe000c00be0046
:1013d00032082800e3952b007dfd07004f01be0079
:1013e0005ffc07000006be000001be0078fd07009c
:1013f000809fbe004241250083b8230074fd070092
:101400000200200003e8230055fc07000c01be0089
:101410006ffd07000006be004f00be00f2f92b0072
:10142000c3d423006afd07000200200003f023005c
:101430004bfc07000c01be0048fc07000001be0089
:101440000c00be00a7fc07000200200003f02300f0
:1014500043fc070061014500e60007004f06be009f
:101460004f05be004f04be000000060001f8270033
:101470000000200022022000e2408800f7ff370031
:101480006000b800fbff370001f8230000002000d7
:10149000f2ff370009f8a300f0ff32006000b80047
:1014a000eeff3700889fbe008a9fbe000003be008b
:1014b0001afd070085057800828152000200200095
:1014c0006220e10004003a00f307b1000400350097
:1014d0007718e100040035000600be001400370054
:1014e0006000b8000f003700f50f2000faff2f0052
:1014f0008502d1000a85d3008301e900fcff3b008f
:101500008184620000046500890f7400f2ff3200dc
:101510008582ea000a85ea00818462000004650091
:10152000d8fc070007f0a70001f0a0000081eb0045
:101530000200e0004f05be004f04be0000000600a0
:10154000889fbe008a9fbe00841f780008fd0700a8
:101550004f00780011003300f0ff2f00838f6c00e4
:1015600006003b00040565000a00a70008003700dc
:1015700009f0a6001000200008003700820f540078
:10158000838f5c00030039001000200001003e0042
:101590000000200009f0a7000000ea004f05be008f
:1015a0004f04be000000e000000006001400200010
:1015b000e3ff3700881f7800030478000300e00091
:1015c00007003d0060001000e08018006001190075
:1015d000e081190002003b0001f02d0003003700fc
:1015e0000400070008f0a70001f0a0004f047800f5
:1015f00000000600889fbe008a9fbe000082700027
:101600000402710004827100260032000004be0052
:101610000200be006011b8006b0920009502200096
:101620000182cf000a0039000541b1000082cf00dd
:10163000070039000541b1000982cf0004003900dc
:101640000541b1000882cf00010039000541b10019
:1016500005425200120032000a003b0082817100f4
:10166000610164008100d1000080d3008984d3002f
:101670000884d3008b05e8000442e800f7ff3a0035
:10168000070037000804440089844c00000048002b
:10169000818048008b05e9000442e900f9ff3a0027
:1016a00078fc07004f05be004f04be000000060096
:1016b0000400200000003700889fbe008a9fbe0003
:1016c0008c1f78004f26dd00a9fc0700b0fc33001a
:1016d0006120e100430032006250e10041003e0021
:1016e0003e0039006420e1003c00320005825500d4
:1016f0000f003b000402e80038003a00800f53005e
:10170000818f5b00350034000800be0003f0a100ab
:1017100001f0a60003f0a0000cf0a70090fb07006a
:10172000a4fc37000603430087834b000c464600a9
:101730000005530081855b00020033000a03be00f0
:101740000c00a0000402e900f6ff3b0085057800cc
:101750000602430087824b0004003a006000b80094
:1017600009f0a70001f0a00092fc3700000252002f
:1017700081825a000704e00004003300060343009e
:1017800087834b008b05e900faff370009057800d5
:101790000604be000203be006011b80039fc070059
:1017a000e00f5200e08f5a000700350002003c00b5
:1017b0000c08a300040032000601be0003f0a000e4
:1017c0000cf0a70066fb07000a85680001f0a10085
:1017d0000af0a70001f0a00076fc37000800be0068
:1017e00074fc3700100220000cf0a600e0408800d6
:1017f00074fc37000003be0048fc07006220e100d3
:10180000020032000600be00000006008502410012
:10181000e30f20000328e10005003c00a3fe2f0099
:101820000328e10007003d0005002000010037000b
:10183000f50f200020022000e04088006000b80082
:1018400008003700130020008381520005003d008e
:101850008100d1000080d3008301e800fcff3a0042
:1018600005002000c72add00f107b2008580700066
:1018700007f0a70001f0a00000000600889fbe004e
:101880008a9fbe008c9fbe0030fe07008504780052
:101890000005be006420e10049003e006220e10036
:1018a00003003200090035000bf8a30044003200a9
:1018b0000bf8a3000800320010022000e04088006e
:1018c000f0ff2f00f1ff27003d00370001f82f0047
:1018d000000020003a0037003d0007001ffb070012
:1018e0000006be000a00be00324f200053f3230062
:1018f000befb0700060034000c00be0034000700e9
:1019000016fb07000006be000a00be0002003700fa
:101910008904e9000c00be002d0007002cfc070024
:101920002b0007000efb07000001be000c00be00ec
:101930006cfb07000005be000001be0024fc070090
:101940000006be00a2f32300430d2c0004fb070099
:10195000809fbe000c00be00d2e32700d3f02b0016
:101960001bfc07004f01be005efb07000006be0027
:101970000a01be0016fc07000a01be00f8fa0700c3
:101980000006be006148b900bbfb07000005be00b1
:1019900032082800e3952b000dfc07000c01be0067
:1019a000effa07000006be000a00be000200280091
:1019b00013f3230006fc07000c01be00e8fa070041
:1019c0004f06be004f05be004f04be0000000600db
:1019d00003f0230002000500889fbe008a9fbe001e
:1019e0008c1f78000004be00ccfb07000478a30025
:1019f00026003a006120e1002500320009f8a3002a
:101a000025003a006420e10021003200f507b10012
:101a10000508a30002003200000040008180480059
:101a20006044b800031020000200200000004000c5
:101a3000818048000805440089854c000a05410062
:101a40008b8549000a0550008b8558000300330040
:101a50000a00be0002047400838474008301d10074
:101a60000281d300830f7100f0ff3a008904d10096
:101a70000884d3006001490082017800c1adde0016
:101a8000fb07b0007ffb0700cafb37000960a0001e
:101a90000800be00c7fb370012022000e2408800a9
:0c1aa000f0ff2f00f1ff2700c2fb370011
:020000040000fa
:101aac0000000000a040000035fa00000e3c0000d1
:020000040000fa
:101abc000400fa00100798000002eb00040f7800f5
:101acc00010037001e0fe8009e0278001e029000f5
:101adc00848f5200fbff39000080fa0000000600e2
:101aec000400fa00100798001e02900024108800d1
:101afc0007e2a9000722a8008620a90007e2a80097
:101b0c0004108000040f780004df200004000100a2
:101b1c000080fa00000006000200fa000002eb0050
:101b2c00040f780006a2a900a0002000e0ff070027
:101b3c000602a8000000000006003700100020007c
:101b4c00dbff07001e0fe8001e027800f40f5200a6
:101b5c0005003c003410800061026200e00f52006e
:101b6c00f6ff3a00010037000000000020002000c2
:101b7c00cfff07000080fa00000006000200fa0008
:101b8c000002eb00040f78000622a8000000000001
:101b9c000600370010002000c5ff07001e0fe800ec
:101bac001e027800f40f520005003c003410800037
:101bbc0062026200e00f5200f6ff3a0001003700ab
:101bcc000000000020002000b9ff07000080fa0090
:101bdc00000006000200fa000002eb00040f78007f
:101bec000642a8000600370010002000b0ff0700d6
:101bfc001e0fe8001e027800f40f520005003c0096
:101c0c003410800064026200e00f5200f6ff3a00cc
:101c1c0001003700000000000662a9008620a90020
:101c2c0008e2a9000942a900a0002000a0ff0700bb
:101c3c000080fa00000006000400fa00100798006b
:101c4c00000000004410800061026200e00f5200ae
:101c5c00fcff3a008620a9001e0290001410880098
:101c6c000002eb00040f78000800370045108000dc
:101c7c000400240004826200e00f520008003200cd
:101c8c00100020008aff07001e0fe800341f200000
:101c9c009e027800848f5200f4ff3400010037005c
:101cac0000000000441f20009e027800848f520028
:101cbc0002003a0014c0b3000b003700451080003e
:101ccc000400280004826200e00f5200030032007e
:101cdc00c0ff070014c0b300030037001000200041
:101cec0073ff07000042eb00044078000080fa000c
:101cfc00000006000400fa000002eb00040f78005c
:101d0c000042eb00244798000662a800050037004b
:101d1c001e0fe800047d20009e027800848f520084
:101d2c0005003c004410800062026200e00f52008b
:101d3c00f7ff3200010037000000000004108000a3
:101d4c00244798002e429000044078000080fa004e
:101d5c00000006000400fa000002eb00040f7800fb
:101d6c000042eb00244798000662a80005003700eb
:101d7c001e0fe800047d20009e027800848f520024
:101d8c0005003c004410800062026200e00f52002b
:101d9c00f7ff320001003700000000000410800043
:101dac00244798000682a8001000200040ff07007e
:101dbc002e429000044078000080fa0000000600db
:101dcc000200fa00004f78001147980052ff0700fc
:101ddc001e02fb000400780097ff07001e429000d3
:101dec000402fb000400780093ff070079ff070052
:101dfc000080fa00000006000400fa00004f780092
:101e0c00114798002247980043ff07001e02fb0071
:101e1c000400780088ff07001e4290000402fb00bb
:101e2c000400780084ff07002e4290000402fb009f
:101e3c000400780080ff070066ff07000080fa00ae
:101e4c00000006000600fa00004f780011479800c9
:101e5c002247980033479800444798002eff07000c
:101e6c001e02fb000400780073ff07001e42900066
:101e7c000402fb00040078006fff07002e42900064
:101e8c000402fb00040078006bff07003e42900048
:101e9c000402fb000400780067ff07004e4290002c
:101eac000402fb000400780063ff070049ff0700f1
:101ebc000080fa00000006000600fa00881f780077
:101ecc0020479800314798002207980012ff07001e
:101edc002e4290000404a0000402fb0004007800d1
:101eec0055ff07000002eb00040f78000002eb0026
:101efc00040f7800090037001e027800ae02900033
:101f0c000484420093ff070000427800044c7800e0
:101f1c0040012000e6fe07001e0fe8003e42900044
:101f2c000402fb000402e9009e0f5200f2ff3c0089
:101f3c003e4290000402fb000402e900ae02900055
:101f4c00048442006bff070000427800044c7800c8
:101f5c0020ff07004f0478000080fa000000060004
:101f6c000400fa00100798000002eb000427880018
:101f7c000002eb00142788001e029000a4108800b9
:101f8c0017e2a9001722a8008a40a90017e2a800ae
:101f9c0084108000040f78008403210004000100e9
:101fac000080fa00000006000200fa000002eb00bc
:101fbc00040f780016a2a900a0002000bcfe0700a8
:101fcc001602a800000000000600370010002000d8
:101fdc00b7fe07001e0fe8001e027800f40f520037
:101fec0005003c00b410800061026200e00f52005a
:101ffc00f6ff3a000100370000000000200020002e
:10200c00abfe07000080fa00000006000200fa0098
:10201c000002eb00040f78001622a800000000005c
:10202c000600370010002000a1fe07001e0fe8007c
:10203c001e027800f40f520005003c00b410800022
:10204c0062026200e00f5200f6ff3a000100370016
:10205c00000000002000200095fe07000080fa0020
:10206c00000006000200fa000002eb00040f7800ea
:10207c001642a80006003700100020008cfe070056
:10208c001e0fe8001e027800f40f520005003c0001
:10209c00b410800064026200e00f5200f6ff3a00b8
:1020ac0001003700000000001662a9008a40a90058
:1020bc0018e2a9001942a900a00020007cfe07002c
:1020cc000080fa00000006000400fa0010079800d7
:1020dc0000000000c410800061026200e00f52009a
:1020ec00fcff3a008a40a9001e0290009410880060
:1020fc000002eb00040f780008003700c5108000c8
:10210c000400240004826200e00f52000800320038
:10211c001000200066fe07001e0fe800341f200090
:10212c009e027800848f5200f4ff340001003700c7
:10213c0000000000441f20009e027800848f520093
:10214c0002003a0014c0b3000b003700c510800029
:10215c000400280004826200e00f520003003200e9
:10216c00c0ff070014c0b3000300370010002000ac
:10217c004ffe07000042eb00044078000080fa009c
:10218c00000006000400fa000002eb00040f7800c7
:10219c000042eb00244798001662a80005003700a7
:1021ac001e0fe800047d20009e027800848f5200f0
:1021bc0005003c00c410800062026200e00f520077
:1021cc00f7ff32000100370000000000841080008f
:1021dc00244798002e429000044078000080fa00ba
:1021ec00000006000400fa000002eb00040f780067
:1021fc000042eb00244798001662a8000500370047
:10220c001e0fe800047d20009e027800848f52008f
:10221c0005003c00c410800062026200e00f520016
:10222c00f7ff32000100370000000000841080002e
:10223c00244798001682a800100020001cfe0700fe
:10224c002e429000044078000080fa000000060046
:10225c000200fa00004f78001147980052ff070067
:10226c001e02fb000400780097ff07001e4290003e
:10227c000402fb000400780093ff070079ff0700bd
:10228c000080fa00000006000400fa00004f7800fd
:10229c00114798002247980043ff07001e02fb00dd
:1022ac000400780088ff07001e4290000402fb0027
:1022bc000400780084ff07002e4290000402fb000b
:1022cc000400780080ff070066ff07000080fa001a
:1022dc00000006000600fa00004f78001147980035
:1022ec002247980033479800444798002eff070078
:1022fc001e02fb000400780073ff07001e429000d2
:10230c000402fb00040078006fff07002e429000cf
:10231c000402fb00040078006bff07003e429000b3
:10232c000402fb000400780067ff07004e42900097
:10233c000402fb000400780063ff070049ff07005c
:10234c000080fa00000006000600fa00881f7800e2
:10235c0020479800314798002207980012ff070089
:10236c002e4290000404a0000402fb00040078003c
:10237c0055ff07000002eb00040f78000002eb0091
:10238c00040f7800090037001e027800ae0290009e
:10239c000484420093ff070000427800044c78004c
:1023ac0040012000c2fd07001e0fe8003e429000d5
:1023bc000402fb000402e9009e0f5200f2ff3c00f5
:1023cc003e4290000402fb000402e900ae029000c1
:1023dc00048442006bff070000427800044c780034
:1023ec0020ff07004f0478000080fa000000060070
:1023fc000000fa00848120001442780012c0b3005f
:10240c0001c3b300044078007bfe0700007122007a
:10241c00a7fd0700848120001442780082c0b3001d
:10242c0001c3b3000440780073fe07000071220062
:10243c009ffd0700848120001442780002c9b3007c
:10244c0061c0b300044078006bfe070000712200ed
:10245c0097fd0700848120001442780002ccb30061
:10246c0081c0b3000440780063fe070000712200b5
:10247c008ffd0700848120001442780002c4b30051
:10248c00a1c1b300044078005bfe0700007122007c
:10249c0087fd0700848120001442780032c3b3000a
:1024ac0031c3b3000440780053fe070000712200d2
:1024bc007ffd07000080fa00000006000a00fa0009
:1024cc00300798004107980084812000144278005e
:1024dc0061c3b3000440780039fe07006102470075
:1024ec0003000900005aeb0084812000144278009c
:1024fc008e02e8000501780041c0b300044078006a
:10250c006dfe07003e0290000402e800ae4290000f
:10251c00054a78004e0290000402e800be4290008a
:10252c00054a78004e429000044f78009e02fb0052
:10253c00040320000482620044a2de00844278007e
:10254c003e029000054a78009e02fb00040c20001d
:10255c000482620046a2de00844278004e029000a3
:10256c00054a78000080fa00000006000000fa001e
:10257c00948120001442780012c0b30001c3b30050
:10258c000440780040ff07000071220048fd07005e
:10259c00948120001442780082c0b30001c3b300c0
:1025ac000440780038ff07000071220040fd07004e
:1025bc00948120001442780002c9b30061c0b300ba
:1025cc000440780030ff07000071220038fd07003e
:1025dc00948120001442780002ccb30081c0b30077
:1025ec000440780028ff07000071220030fd07002e
:1025fc00948120001442780002c4b300a1c1b3003e
:10260c000440780020ff07000071220028fd07001d
:10261c00948120001442780032c3b30031c3b3005c
:10262c000440780018ff07000071220020fd07000d
:10263c000080fa00000006000a00fa00300798003b
:10264c0041079800848120001442780061c3b300d4
:10265c0004407800fefe07006102470003000900f9
:10266c00005aeb0094812000144278008e02e8009e
:10267c000501780041c0b3000440780032ff070028
:10268c003e0290000402e800ae429000054a780039
:10269c004e0290000402e800be429000054a780009
:1026ac004e429000044f78009e02fb000403200071
:1026bc000482620044a2de00844278003e02900054
:1026cc00054a78009e02fb00040c20000482620084
:1026dc0046a2de00844278004e029000054a780043
:1026ec000080fa00000006000200fa00c002a900f7
:1026fc00c202a9000002eb00040f78000002eb00fc
:10270c00040f780009003700cc42a800cd02a800c5
:10271c00cd22a800cde2a800cc42a900cd02a90090
:10272c00cd22a900cde2a9001e0fe8001e02780000
:10273c00e90f5200f4ff340040062000e8fc0700cb
:10274c004006200006fe070029ff070087ff070050
:10275c000080fa00000006000600fa00881f7800ce
:10276c0010079800210798000002eb003440880005
:10277c0034408000144088001440800024408800bd
:10278c002440800004408800458020000480200004
:10279c00850078000400780048ff07006580200061
:1027ac00248020008500780004007800a2ff070038
:1027bc0004408000e00f52000300320014408000ff
:1027cc00e00f52000b003a00c7ff07001e039000f9
:1027dc00b4fd200095fc2300048bbe002e0390005a
:1027ec0004002000051f2400048bbe000042eb00f7
:1027fc003800370004408000e00f520005003a001a
:10280c0014408000e00f520002003a0034c0b300c4
:10281c00044f780005408000e43f2000848f520074
:10282c000400340015408000e43f2000848f5200e7
:10283c0025003c0005408000e43f2000848f5200be
:10284c0004003c0015408000e43f2000848f5200bf
:10285c0010003400a86b2100314080001040800033
:10286c002740800006408000e40247000e82e8000a
:10287c00810178000001780087007800060078005c
:10288c000800010014c0b300044f780000000000e1
:10289c000f0037008747210015408000044080005e
:1028ac00640047000e83e800800178000601780080
:1028bc0085007800040078000700010024c0b300f4
:1028cc00044f7800020037000042eb00044f780000
:1028dc001e427800044078004f0478000080fa0013
:1028ec00000006002c00fa00889fbe008a9fbe00e4
:1028fc0000179800111798002217980033179800aa
:10290c00441798005517980002002c00d34024005f
:10291c000e1090009e1090000df707000002be00f4
:10292c0002002c00f34724000400be006af70700e5
:10293c000002be0002002000432024000400be0060
:10294c0020f807000002be0002002000433b2400d8
:10295c000400be0060f707000002be000401be00c8
:10296c000400be00fbf607000002be00b2fd200012
:10297c00930424000400be0012f807000002be00fd
:10298c00048fbe0002002800034024002e1090008b
:10299c00be109000eef607000002be0002002c00f4
:1029ac00f34724000400be004bf707000002be00f2
:1029bc0002002000432024000400be0001f80700a0
:1029cc000002be0002002000433b24000400be00b5
:1029dc0041f707000002be000401be000400be0067
:1029ec00dcf607000002be00b2fd200093042400b8
:1029fc000400be00f3f707000002be002407980095
:102a0c00350798002e019000be01900000d32c00d9
:102a1c00e1032c00cef607000002be000400be004d
:102a2c0068f907000004be00f2a82a00130924006c
:102a3c001e00be00c7f607000002be00f2a82a0066
:102a4c00130924000400be00c2f607000002be00f9
:102a5c002e019000be0190000400be00bdf60700e0
:102a6c000002be000400be0056f907000002be00c2
:102a7c0002002000030a24000400be0016f7070021
:102a8c000002be000401be000800be0012f70700e1
:102a9c000002be004407980055079800f2a82a00cf
:102aac00130924001e00be00aaf607000002be0097
:102abc000401be00b0fd200091fc2300a4f6070029
:102acc000002be000400be003ef907000004be0078
:102adc00f2a82a00130924001e00be009df6070070
:102aec000002be00f2a82a00130924000400be0054
:102afc0098f607000002be002e019000be01900067
:102b0c000400be0093f607000002be000400be00e5
:102b1c002cf907000002be0002002000030a24006a
:102b2c000400be00ecf607000002be000401be006b
:102b3c000800be00e8f607000002be00640798001b
:102b4c00750798004e029000de0290000401be0052
:102b5c000400be009bf707000002be00020020002c
:102b6c00830c24000400be007af607000002be00ad
:102b7c000404be004e029000de0290000401be0070
:102b8c000400be0073f607000002be000200200025
:102b9c00030224000400be008af707000002be00f6
:102bac000405be001e01be0000d32c00e1032c0066
:102bbc0067f607000002be000400be00c4f6070062
:102bcc000002be000401be000a00be007df7070033
:102bdc000002be000401be000800be005cf6070047
:102bec000002be000200200003f023000400be001f
:102bfc00a8f707000002be005e139000048bbe0015
:102c0c005e1290001403be00060f9800170f980078
:102c1c001e01be0000d32c00e1032c004cf6070073
:102c2c000002be000400be00e6f807000002be0071
:102c3c000e0990009e0990000400be00a6f6070045
:102c4c000002be004e019000de0190000400be00a8
:102c5c005cf707000002be000400be009af60700f5
:102c6c000002be00b2fd200093fc23000400be0055
:102c7c0037f607000002be004e139000048bbe0016
:102c8c004e1290001403be00260f9800370f9800c8
:102c9c0018c0b3006e019000fe0190004e00900031
:102cac00de009000cef6070000027800e00f520024
:102cbc0001003c000044eb00e04f540005003200e2
:102ccc002e0a9000be0a900005f0a2004e13900050
:102cdc00048bbe002e089000be089000c2f60700c0
:102cec000002be0004027800640f98000e089000e9
:102cfc009e089000bcf607000002be00040278009b
:102d0c00740f98007c024700440f98007e02470025
:102d1c00540f98005e0a900014427800de0a90006e
:102d2c008502e80015407800ce0a900095437800a3
:102d3c00ce0a90008502e80015437800a58120009a
:102d4c0095427800804178000741780086407800f1
:102d5c00054078005ffd07004f05be004f04be0024
:102d6c000080fa00000006001c00fa00881f7800a2
:102d7c006007980071079800020f9800130f9800d5
:102d8c00240f9800350f9800460f9800570f9800a5
:102d9c0018c0b30002002c00f34724006e00900012
:102dac00fe0090008ef6070000027800e00f520043
:102dbc0001003d000044eb00e04f54003b003200aa
:102dcc002e0a9000be0a9000048fbe004e0a90009e
:102ddc00de0a9000240798003507980002002800ae
:102dec00034024004e089000de089000d8f5070040
:102dfc000002be0044079800550798004e00900052
:102e0c00de00900071f807000002be00a2992900b4
:102e1c00930124000400be00eaf607000002be0085
:102e2c003ebb9700048bbe00020028000340240028
:102e3c002e089000be089000c5f507000002be00e9
:102e4c0002002c00f34724000400be0022f6070009
:102e5c000002be0002002000432024000400be003b
:102e6c00d8f607000002be0002002000433b2400fd
:102e7c000400be0018f607000002be000401be00ec
:102e8c000400be00b3f507000002be00b2fd200036
:102e9c00930424000400be00caf607000002be0022
:102eac004ebb9700048bbe004800370018c0b3001f
:102ebc0002002c00f34724002e089000be0890005e
:102ecc0047f6070000027800e00f520001003d00b9
:102edc000044eb00e04f54003b0032006e029000c7
:102eec00fe029000048fbe000e0a90009e0a900015
:102efc00240798003507980002002000533e240058
:102f0c000e0890009e08900091f507000002be008c
:102f1c0044079800550798004e009000de00900082
:102f2c002af807000002be00a29929009301240090
:102f3c000400be00a3f607000002be003ebb9700d3
:102f4c00048bbe0002002c00d34024006e009000c5
:102f5c00fe0090007ef507000002be0002002c006f
:102f6c00f34724000400be00dbf507000002be009e
:102f7c0002002000432024000400be0091f607004c
:102f8c000002be0002002000433b24000400be00ef
:102f9c00d1f507000002be000401be000400be0013
:102fac006cf507000002be00b2fd20009304240063
:102fbc000400be0083f607000002be004ebb970063
:102fcc00048bbe0001003700000000004f047800a5
:102fdc000080fa00000006000000fa00c022a900e0
:102fec00c042a900c822a9000002eb0004278800f7
:102ffc000002eb0014278800c9a2a800c9c2a800cf
:10300c000080fa00000006000200fa00004f780071
:10301c001e427800e04f520003003a00c442a9005f
:10302c00c402a90002003700c442a800c402a800d0
:10303c00cc22a8000080fa00000006000200fa0072
:10304c00004f78001e427800e04f520003003a0017
:10305c00c442a900c402a80002003700c442a80060
:10306c00c402a900cc22a8000080fa0000000600cf
:10307c000000fa00cc22a9000080fa000000060033
:10308c000200fa004181200000812000b2fd0700ff
:10309c0000427800044f78000080fa00000006001f
:1030ac000000fa00030007008ffd07002200070054
:1030bc00feff37000000fa000002eb0044408800dd
:1030cc006022b800a4408800b54088006022b80097
:1030dc008440880095408800c042a900c022a90005
:1030ec00c822a900c242a900c222a900ca22a90072
:1030fc000080fa00000006000000fa000040eb001f
:10310c00ceff07000000000041812000008120005c
:10311c0091fd07000042780005c3b300854f5200b3
:10312c00f9ff3200d2ff0700140020004440880051
:10313c000080fa00000006000a00fa00d0ff070029
:10314c00010037000000000004802000040f78000c
:10315c004480200014079800248020002407980045
:10316c0064802000340798001e02900014427800fe
:10317c009e0290008502e800154078009e027800bf
:10318c00954378009e02e80015437800a581200045
:10319c00954278008041780007417800864078009d
:1031ac00054078004bfc07003e029000144278006a
:1031bc00be0290008502e80015407800ae02900037
:1031cc0095437800ae0290008502e8001543780024
:1031dc00a581200095427800804178000741780055
:1031ec0086407800054078003afc070041812000b9
:1031fc000081200058fd070000427800044f980021
:10320c0005408000b4242000848f52000a00340052
:10321c001540800064212000848f5200030034008c
:10322c000040eb0085ff0700c7ff37000040eb00b4
:10323c0075ff0700c4ff37000540800024222000e2
:10324c00848f52000a003c0015408000d41e2000e0
:10325c00848f520003003c0010c0b30077ff0700be
:10326c00b9ff370010c0b30067ff0700b6ff370087
:10327c001540800064212000848f5200030034002c
:10328c0010c0b30060ff0700afff3700154080008f
:10329c00d41e2000848f5200aaff3c000040eb009b
:1032ac0059ff0700a8ff37000000fa00881f7800bc
:1032bc0010c0b30054ff0700000000004181200043
:1032cc000081200024fd07000042780005c3b300f4
:1032dc00854f5200f9ff3200a4408000b5408000b9
:1032ec000401be00000020006120240044000700ff
:1032fc00004278000440780043ff070011003700bb
:10330c00418120000081200013fd0700004278005d
:10331c00d5c6b300854f52000a003a0086ff07005d
:10332c00a4408000b54080000401be0000002000d5
:10333c00612024003200070000427800044078002d
:10334c0031ff0700a4408000b54080000401be009e
:10335c0000002000612024001d0007000002be00b8
:10336c000400be0020f507000002be000402780035
:10337c0004f0a7000402ea00cfa2de000400be00a5
:10338c003af507000003be00b46a8400c56a8400e5
:10339c0018c0b3000401be000600be0010f5070003
:1033ac0000027800e00f520001003c000044eb00ea
:1033bc00e04f5400d2ff3a002dff070044002000dc
:1033cc00444088004f0478000080fa00000006009a
:1033dc000800fa00008fbe002207980033079800ff
:1033ec002e019000be0190001e00be0058f4070094
:1033fc000002be000400be000080fa0000000600bf
:10340c000800fa00881f7800008fbe002207980081
:10341c00330798002e019000be0190001e00be00e4
:10342c00ebff07000002be0018c0b3006011b8002b
:10343c000400be00eaf4070000027800e00f52001e
:10344c0001003c000044eb00e04f5400020032004d
:10345c000042eb000100370014c0b30004407800b8
:0c346c004f0478000080fa000000060009
:020000040000fa
:10347800180800000400000002000000b0b00800b6
:103488000000000000080000180000000000000014
:103498001c080000020000000000000000000000fe
:020000040000fa
:0200000401f009
:04000c00f8ff0000f9
:00000001FF
