:020000040000fa
:080000000002040000000000f2
:020000040000fa
:10000800a2020000a2020000a2020000a202000058
:10001800a2020000a2020000a2020000a202000048
:10002800a2020000a2020000a20200003017000095
:10003800a2020000a2020000a2020000a202000028
:10004800a2020000a2020000a2020000a202000018
:10005800a2020000a2020000a2020000a202000008
:10006800a2020000a2020000a2020000a2020000f8
:10007800a2020000a2020000a2020000a2020000e8
:10008800a2020000a2020000a2020000a2020000d8
:10009800a2020000a2020000a2020000a2020000c8
:1000a800a2020000a2020000a2020000a2020000b8
:1000b800a2020000a2020000a2020000a2020000a8
:1000c800a2020000a2020000a2020000a202000098
:1000d800a2020000a2020000a2020000a202000088
:1000e800a2020000a2020000a2020000a202000078
:1000f800a2020000a2020000a2020000a202000068
:10010800a2020000a2020000a2020000a202000057
:10011800a2020000a2020000a2020000a202000047
:10012800a2020000a2020000a2020000a202000037
:10013800a2020000a2020000a2020000a202000027
:10014800a2020000a2020000a2020000a202000017
:10015800a2020000a2020000a2020000a202000007
:10016800a2020000a2020000a2020000a2020000f7
:10017800a2020000a2020000a2020000a2020000e7
:10018800a2020000a2020000a2020000a2020000d7
:10019800a2020000a2020000a2020000a2020000c7
:1001a800a2020000a2020000a2020000a2020000b7
:1001b800a2020000a2020000a2020000a2020000a7
:1001c800a2020000a2020000a2020000a202000097
:1001d800a2020000a2020000a2020000a202000087
:1001e800a2020000a2020000a2020000a202000077
:0801f800a2020000a2020000b7
:020000040000fa
:10020800a2020000a2020000a2020000a202000056
:10021800a2020000a2020000a2020000a202000046
:10022800a2020000a2020000a20200003017000093
:10023800a2020000a2020000a2020000a202000026
:10024800a2020000a2020000a2020000a202000016
:10025800a2020000a2020000a2020000a202000006
:10026800a2020000a2020000a2020000a2020000f6
:10027800a2020000a2020000a2020000a2020000e6
:10028800a2020000a2020000a2020000a2020000d6
:10029800a2020000a2020000a2020000a2020000c6
:1002a800a2020000a2020000a2020000a2020000b6
:1002b800a2020000a2020000a2020000a2020000a6
:1002c800a2020000a2020000a2020000a202000096
:1002d800a2020000a2020000a2020000a202000086
:1002e800a2020000a2020000a2020000a202000076
:1002f800a2020000a2020000a2020000a202000066
:10030800a2020000a2020000a2020000a202000055
:10031800a2020000a2020000a2020000a202000045
:10032800a2020000a2020000a2020000a202000035
:10033800a2020000a2020000a2020000a202000025
:10034800a2020000a2020000a2020000a202000015
:10035800a2020000a2020000a2020000a202000005
:10036800a2020000a2020000a2020000a2020000f5
:10037800a2020000a2020000a2020000a2020000e5
:10038800a2020000a2020000a2020000a2020000d5
:10039800a2020000a2020000a2020000a2020000c5
:1003a800a2020000a2020000a2020000a2020000b5
:1003b800a2020000a2020000a2020000a2020000a5
:1003c800a2020000a2020000a2020000a202000095
:1003d800a2020000a2020000a2020000a202000085
:1003e800a2020000a2020000a2020000a202000075
:0803f800a2020000a2020000b5
:020000040000fa
:10040000cf8020000eff20000e01880000000000b9
:10041000000020000000e000020032000001200087
:10042000200288000c0007006085210001002000e8
:1004300011000700000020000000e0000200320070
:100440000000020000000000501702000000000041
:100450000040da000000fe004440a9000000200037
:100460000000e0000300320000002000a00188002e
:100470004440a80000000600910188008000780038
:100480000000eb0015003700e280400032a0b4000d
:100490009101ba00e280400032a0b4009102ba009b
:1004a000e280400032a0b4000002eb00472bde00e7
:1004b000f507b200602ce10004003a000059eb009f
:1004c0008301e900fdff3e00040037006128e100e0
:1004d000010032000082eb00040007001101ba00a5
:1004e0000200e000e8ff3a00000006003159ba00bf
:1004f0008301e9000c0032002159ba008301e900b0
:10050000080032000400e00003003a00e2804000ee
:1005100032a0b400f5ff370011d9ba008301e90019
:10052000faff3a008100e800e180400032a0b40008
:1005300000000600000000000000000000000000b5
:10054000000000000040da000000fe0003f0a200fe
:10055000889fbe008a9fbe008c1f7800ca000700db
:10056000d10033006450e1004f0032006420e1000c
:100570005200320003826c0007003b000905d000e6
:100580000306d000820f54000c065d000200390003
:100590000200320089017800030678008582550048
:1005a00004003d000003fd008103fd008502ea0018
:1005b0008b854200840f720002003b006000100037
:1005c000e08018006011b8000005eb007a28e10017
:1005d0000a00390006007800c75ddd00f707b200a9
:1005e000878075002d003700828171000a01780034
:1005f000610560008180d1000080d3008502e900a0
:10060000f9ff3b00060440008784480002003b00dd
:1006100060041400e0841c000988a3000700320075
:100620008a81710082817100610164008904d100b6
:100630000884d3008b05e800170037000978a30071
:1006400013003a000b00e000130034008b05e900b2
:100650000804440089844c000a4474000978a3000b
:100660000d003a000b00e000070034008b05e900a4
:100670000804440089844c0001003a000b0020006b
:100680000978a300f7ff32000001eb0002003700f9
:10069000828171000a017800550007000cf0a70064
:1006a00001f0a000890037006420e10002003a0058
:1006b000838f6c00890033000801be000200be0079
:1006c000820037000001eb00730237000081eb006d
:1006d0009c013700889fbe008a9fbe008c1f780057
:1006e000690007007000330003866c006450e1006d
:1006f0002e0032006420e100330032006150e1003e
:100700002f0032006120e100310032008585550064
:10071000eb07b000090020000804200005003700a6
:100720000804440089844c000a0031000603430099
:1007300087834b000001530081815b00f8ff330089
:100740000203be000800a0000804440089844c0095
:10075000f6ff3900c639dd00830173000100320065
:10076000130020008904d1000884d3000998a30055
:10077000050032000800a7000300a0008904d10092
:100780000884d3008b05e8008904d1000884d300d5
:100790000001eb000281d2001500070001f0a1006a
:1007a0000cf0a70001f0a000480037006420e10031
:1007b0004a0032000801be000200be00f7ff370009
:1007c0006120e100450032006000b800f3ff37000f
:1007d0000000200001f82700f0ff3700f4ff2f0091
:1007e0001d0337004f89de0082017800580337006f
:1007f00081002000618055000b003d000b002000af
:1008000061fe2f000100e1001d00340082817100b3
:10081000610164008904d1000884d3000000e8006d
:10082000faff3a00710020006100640003007000cc
:10083000020060000900320061044400e0844c00c2
:100840000988a500050032008b05e8006808e10072
:1008500002003a008904d1000884d300f20f20007e
:100860000258e10005003d00c75ddd00f907b20058
:100870008980750008007800000006000bf827004a
:100880008b007800000005000004be00c0030700d4
:100890000003be000405be000200be00bc0307004a
:1008a000844f7500000006000200be006450e100a5
:1008b000050036006420e100020036000968a3004c
:1008c00001003a000800be000160a0004f06780059
:1008d0004f05be004f04be0000000600f0ff2f00d1
:1008e000f1ff2700f9ff3700889fbe008a9fbe00f6
:1008f0008c1f7800e4ff0700ebff330003866c00d9
:100900006450e100240032006420e100270032003e
:100910006150e100220032006120e100210032003c
:100920008b854200eb07b1000134b800003ab800f3
:100930000804420089844a00013ab8000030b80037
:100940008880400009014a00040033000000400094
:1009500081804800020149008b05e900c909dd00da
:10096000830170000100320013002000c814de0073
:100970004814dd004709de001200b200c808de009e
:10098000088470009aff070001f0a1000cf0a70096
:1009900001f0a000cdff37006120e100cfff320061
:1009a0000801be000200be00f7ff37006150e10001
:1009b000fcff3a00c9ff37000c00fa00889fbe0018
:1009c0008a9fbe008c9fbe00afff07000206be00dc
:1009d000840578000200be000200200077020700b4
:1009e00005003a008b02b3001200200073020700da
:1009f00001003a00f8856d000c01be00c60007003a
:100a00000800be009b0032000b08a3009e003a00c5
:100a10000df0a7000be0a00009f0a7000bf0a0006c
:100a200009f0a1000801be00bb0007000bf0a60002
:100a30009500320001003c000bd0a0008acf750069
:100a4000b20033006000b8006250e1009900390044
:100a5000a1003e000b28a300a2003a000bf8a3005f
:100a6000060032000b58a300a70032000801be00a8
:100a7000a90007000800be00940032000800be0074
:100a8000780107000004be00050578000bf0a70000
:100a90000b30a6000bf0a1005b079800324f20003e
:100aa00053f323008702070005003d000800be0045
:100ab000120020004b0307000004be000a05e900f5
:100ac0004a0798006150b90046ff0700008fbe003a
:100ad0000c01be0084ff07007c020700300798006d
:100ae0000100e00002003d0060001000e0801800fe
:100af000f2ff2700820f5000e08f580064003e0094
:100b00000c00be007102070020079800f2072000c9
:100b1000820f5000e08f580005003c0012f82f00b3
:100b2000f3ff2f00820f5000838f580009003d0013
:100b30000a00e0000300320001003c000201ea006c
:100b4000020578006000b800200798003a07980076
:100b5000190037003e0090006100b90021ff070036
:100b6000809fbe000c00be004109dd004811de0080
:100b70007208b100110207000005be001e01be0090
:100b800059ff07004f01be0070fe0700809fbe00a6
:100b90000c00be000a01be006cfe07001e01be0074
:100ba00051ff07004f01be0069fe070082212700a8
:100bb00013f323004cff07000005be002e00900039
:100bc0006100b90007ff070001f0a2000c01be00a0
:100bd0005ffe07000006be000800be0023030700fa
:100be0000c01be0040ff07000a01be0058fe0700ce
:100bf000809fbe004a0007002e0590000af0a70063
:100c00000a05ea00050037000800be000801be0022
:100c100035ff07000004be000c00be000801be0046
:100c20000a00a70030ff07000006be000a05d10039
:100c3000f5ff3a005e01900002e0a60003003700d5
:100c40000001be0036000700a2fe07000004be003f
:100c50004f00be00770107000801be0022ff070019
:100c60003e019000df020700de0590000bf0a700b8
:100c700001f0a2004f06be004f05be004f04be00ab
:100c80000080fa000000060025000700f9ff370089
:100c9000270007006000b8000bd0a7000bc0a00021
:100ca0000be0a7000bc0a2000bc0a70001f82700b3
:100cb000f0ff37000df8a300020032001e0007000d
:100cc000190007000bf8a300eaff32000b30a70061
:100cd00001f0a200e7ff37000df8a300f9ff3a008a
:100ce000f7ff37000801be000b000700e6ff3200e7
:100cf00001003c000df0a2006000b8000df0a7005c
:100d000009000700dbff37000b000700f1ff270099
:100d1000f0ff2f00d7ff370001000700e90137007f
:100d200001f823000000050001f82700000005007d
:100d300020022000010037001002200050408800ef
:100d400000000600889fbe008a9fbe008c9fbe00e8
:100d5000820578000004be008d0207000800be0076
:100d60006420e1000700390002003a00f1ff27008b
:100d7000f0ff2f000160a000120220005240880006
:100d8000550037006120e10003003a000b00a70086
:100d900001f823005000370001f0a10002002100fb
:100da00093642400c70107000800be00040035005a
:100db000b2fd2000930c2400240207000004be00b2
:100dc0000005eb000b00a6004f0dde0001f0a100b6
:100dd0000004be0032982f0023ea2300c2fe070061
:100de0000001eb0003f023000b00a70003f8230031
:100df000d7fd0700b50107000000a7000a00a20008
:100e000078fe07000b00e000030032000200200023
:100e100003f02300cdfd070001f0a2000006be0094
:100e20000200200093042400affe07000801be006a
:100e3000c7fd0700809fbe000c00be0022a22a0052
:100e4000d3a72300a8fe07004f01be00c0fd070086
:100e50000004be0001f0a10002002000039823005e
:100e6000980107000800be00190035000001be000f
:100e70009dfe07000006be00b2c52900e362230004
:100e800099fe070022222b00f3942b00b0fd0700ef
:100e90000c01be0094fe0700e273280083c023000b
:100ea000abfd07000c01be008ffe070042aa2a001e
:100eb000a3e22b00a6fd07000c01be008afe07007e
:100ec0000801be0088fe07000801be00a0fd070063
:100ed0000a00a70001f0a2004f06be004f05be00a9
:100ee0004f04be00000006000001eb0095ff370034
:100ef000889fbe008a9fbe000004be002402070037
:100f00000800be006420e1000700390002003a003a
:100f1000f1ff2700f0ff2f000160a0001202200067
:100f2000524088004c00370001f0a10002802000f0
:100f3000935c2400630107000800be000400350034
:100f4000b2fd200093042400c00107000004be008d
:100f500032982f0023f2230063fe070002002000d6
:100f600003f0230001f0a70003f0a00078fd0700c4
:100f700056010700801f78001afe070001f0a2004a
:100f80000005be000200200093fc230056fe07006f
:100f90000801be006efd0700809fbe000a00be0073
:100fa00022a22a00d39f23004ffe07004f01be005c
:100fb00067fd07000004be0001f0a1000200200050
:100fc0000398230005fe070003003d0000002000f9
:100fd00001f82300180037000800be000001be0021
:100fe00041fe07000005be00823b230043dc2b00ce
:100ff0003dfe07000801be003bfe07000801be00e1
:1010000053fd07000004be000a00be005237230053
:10101000f3c1230034fe0700f27a2b00b3ed2b005e
:101020004bfd07000a01be002ffe07000200200052
:1010300003f8230046fd07004f00a6000300370019
:101040000801be0003f0a200020037000001be004c
:101050000800be009ffd07004f05be004f04be0004
:10106000000006000003be00c90107006220e10085
:10107000020032000600be0005000500e507b100d1
:10108000f107b20004f023008480700007f0a7008d
:1010900001f0a00024000500889fbe008a9fbe00ca
:1010a0008c9fbe000206780001f0a7000cf0a000a3
:1010b0000004be00b60107000800be006420e10085
:1010c0000700390002003a00f1ff2700f0ff2f006f
:1010d0000160a00012022000524088005100370039
:1010e00009f0a1000800be000200200003f8230060
:1010f000bafd0700f4ff3c000800be00020020001b
:1011000003982300ef0007000800be003000350000
:101110000200200003f02300b0fd070005003c00a2
:101120000800be000801be00effd07000005be007c
:101130000e0037000c10a2000000200001f8230070
:101140000801be0001fd07000200200003f023009b
:10115000e5fd07000005be001b020700020020009d
:1011600003002c00e0fd07000004be000a00be00e2
:10117000b2d02800130b2c00f5fc07000a01be00ba
:10118000d9fd0700020f2500330b2400f0fc0700f7
:10119000809fbe000a00be005206220013f02b0002
:1011a000d1fd0700b2662100f3f62300e8fc07003a
:1011b0000a01be00ccfd07004f01be0045fd07003f
:1011c0000801be00c8fd07000801be00e0fc0700e2
:1011d0000c00a70007003700b2fd200093fc23009d
:1011e0000c10a700dafc07000cf0a70001f0a20029
:1011f0000c0037000cf0a7000200370001f0a2003d
:1012000004003700b2fd2000930424000c10a60057
:1012100003003700b2fd200093fc23000c10a70050
:10122000cbfc07004f06be004f05be004f04be00ba
:1012300000000600889fbe008a9fbe008c9fbe00f3
:101240000004be00520107000800be006420e10057
:1012500048003e005500320072212700132b240065
:101260005efd070047003c000800be00c2ec2800fd
:10127000e32c2c0093000700470035000800be0057
:1012800001f0a10002002000033823008d000700b8
:10129000430035000800be00b2a32a0083fb2300f0
:1012a00091fd07000200200003f0230001f0a700d9
:1012b00003f0a000a6fc0700840007000005be00a4
:1012c00048fd070001f0a2000006be000200280051
:1012d00013f3230084fd07000801be009cfc0700f7
:1012e000809fbe000c00be0032082800e3952b0052
:1012f0007dfd07004f01be0095fc07000006be0003
:101300000001be0078fd0700809fbe00424125001d
:1013100083b8230074fd07000200200003e82300c7
:101320008bfc07000c01be006ffd07000006be002d
:101330004f00be00f2f92b00c3d423006afd070062
:101340000200200003f0230081fc07000c01be0016
:101350007efc07000001be000c00be00ddfc0700a3
:101360000200200003f0230079fc07006101450022
:101370001c0107004f06be004f05be004f04be0013
:101380000000060001f827000000200022022000d3
:1013900052408800f7ff37006000b800fbff3700bd
:1013a00001f8230000002000f2ff370009f8a30035
:1013b000f0ff32006000b800eeff3700889fbe00eb
:1013c0008a9fbe000003be00f1000700850578007b
:1013d00082815200020020006220e10004003a00f5
:1013e000f307b100040035007718e1000400350070
:1013f0000600be00140037006000b8000f00370080
:10140000f50f2000faff2f008502d1000a85d300d6
:101410008301e900fcff3b00818462000004650059
:10142000890f7400f2ff32008582ea000a85ea0023
:101430008184620000046500edfc070007f0a7004e
:1014400001f0a0000081eb000200e0004f05be00ab
:101450004f04be0000000600889fbe008a9fbe00a9
:10146000841f780008fd07004f007800110033004a
:10147000f0ff2f00838f6c0006003b000405650021
:101480000a00a7000800370009f0a600100020009d
:1014900008003700820f5400838f5c00030039007e
:1014a0001000200001003e000000200009f0a7000d
:1014b0000000ea004f05be004f04be000000e0003f
:1014c0000000060014002000e3ff37000001be000a
:1014d000af0007000470a70003f0a1006509b10088
:1014e000160032000d0035006828e10006003500c6
:1014f000f0ff2f00f1ff27000300e00013003b0086
:101500000100280000000500000040008180480024
:101510008502e900fcff3a0008003700f88f42001e
:1015200002003c008000eb00000005008100d100bb
:101530000080d3008502e800fcff3a000300e000d1
:1015400002003b0060001000e08018000000060070
:10155000881f7800030478000300e00007003d00c6
:1015600060001000e080180060011900e08119009f
:1015700002003b0001f02d000300370004000700cb
:1015800008f0a70001f0a0004f047800000006005a
:10159000889fbe008a9fbe00008270000402710016
:1015a00004827100260032000004be000200be006a
:1015b0006011b8006b092000950220000182cf0065
:1015c0000a0039000541b1000082cf000700390050
:1015d0000541b1000982cf00040039000541b10086
:1015e0000882cf00010039000541b10005425200d8
:1015f000120032000a003b00828171006101640028
:101600008100d1000080d3008984d3000884d300f6
:101610008b05e8000442e800f7ff3a0007003700b6
:101620000804440089844c00000048008180480080
:101630008b05e9000442e900f9ff3a006cfc070061
:101640004f05be004f04be0000000600040020004d
:1016500000003700889fbe008a9fbe008c1f780064
:101660004f26dd0088fc07008ffc33006120e1007d
:10167000430032006250e10041003e003e0039006c
:101680006420e1003c003200058255000f003b0061
:101690000402e80038003a00800f5300818f5b009d
:1016a000350034000800be0003f0a10001f0a600e0
:1016b00003f0a0000cf0a700a5fb070083fc370097
:1016c0000603430087834b000c4646000005530089
:1016d00081855b00020033000a03be000c00a000fd
:1016e0000402e900f6ff3b0085057800060243008e
:1016f00087824b0004003a006000b80009f0a700a0
:1017000001f0a00071fc37000002520081825a00f3
:101710000704e000040033000603430087834b0006
:101720008b05e900faff3700090578000604be00c2
:101730000203be006011b8002dfc0700e00f52004c
:10174000e08f5a000700350002003c000c08a3009f
:10175000040032000601be0003f0a0000cf0a70058
:101760007bfb07000a85680001f0a1000af0a700d2
:1017700001f0a00055fc37000800be0053fc370004
:10178000100220000cf0a6005040880053fc3700e7
:10179000c70ade00f107b200f50fb2000800320000
:1017a000e1cf4200020032000170a00024000500d9
:1017b000810f70000100320004080500440005009c
:1017c000810f700002003a00140005008502e90054
:1017d0000000400081c04800fcff3b000170a000f9
:1017e000240005000003be00e9ff07006220e100bd
:1017f000020032000600be00000006008502410023
:10180000e30f20000328e10005003c00a3fe2f00a9
:101810000328e10007003d0005002000010037001b
:10182000f50f200020022000504088006000b80022
:1018300008003700130020008381520005003d009e
:101840008100d1000080d3008301e800fcff3a0052
:1018500005002000c72add00f107b2008580700076
:1018600007f0a70001f0a00000000600889fbe005e
:101870008a9fbe008c9fbe00fafd07008504780099
:101880000005be006420e10049003e006220e10046
:1018900003003200090035000bf8a30044003200b9
:1018a0000bf8a3000800320010022000504088000e
:1018b000f0ff2f00f1ff27003d00370001f82f0057
:1018c000000020003a0037003d0007001ffb070022
:1018d0000006be000a00be00324f200053f3230072
:1018e000befb0700060034000c00be0034000700f9
:1018f00016fb07000006be000a00be00020037000b
:101900008904e9000c00be002d000700f6fb07006b
:101910002b0007000efb07000001be000c00be00fc
:101920006cfb07000005be000001be00eefb0700d7
:101930000006be00a2f32300430d2c0004fb0700a9
:10194000809fbe000c00be00d2e32700d3f02b0026
:10195000e5fb07004f01be005efb07000006be006e
:101960000a01be00e0fb07000a01be00f8fa07000a
:101970000006be006148b9009afb07000005be00e2
:1019800032082800e3952b00d7fb07000c01be00ae
:10199000effa07000006be000a00be0002002800a1
:1019a00013f32300d0fb07000c01be00e8fa070088
:1019b0004f06be004f05be004f04be0000000600eb
:1019c00003f0230002000500889fbe008a9fbe002e
:1019d0008c1f78000004be006dff07000478a30090
:1019e00026003a006120e1002500320009f8a3003a
:1019f00025003a006420e10021003200f507b10023
:101a00000508a30002003200000040008180480069
:101a10006044b800031020000200200000004000d5
:101a2000818048000805440089854c000a05410072
:101a30008b8549000a0550008b8558000300330050
:101a40000a00be0002047400838474008301d10084
:101a50000281d300830f7100f0ff3a008904d100a6
:101a60000884d3006001490082017800c1adde0026
:101a7000fb07b0005efb070094fb37000960a00085
:101a80000800be0091fb370012022000524088007f
:0c1a9000f0ff2f00f1ff27008cfb370057
:020000040000fa
:101a9c000400fa00100798000002eb00040f780015
:101aac00010037001e0fe8009e0278001e02900015
:101abc00848f5200fbff39000080fa000000060002
:101acc000400fa00100798001e02900024108800f1
:101adc0007e2a9000722a8008620a90007e2a800b7
:101aec0004108000040f780004de200004000100c4
:101afc000080fa00000006000200fa000002eb0071
:101b0c00040f780006a2a900a0002000e0ff070047
:101b1c000602a8000000000006003700100020009c
:101b2c00dbff07001e0fe8001e027800f40f5200c6
:101b3c0005003c003410800061026200e00f52008e
:101b4c00f6ff3a00010037000000000020002000e2
:101b5c00cfff07000080fa00000006000200fa0028
:101b6c000002eb00040f78000622a8000000000021
:101b7c000600370010002000c5ff07001e0fe8000c
:101b8c001e027800f40f520005003c003410800057
:101b9c0062026200e00f5200f6ff3a0001003700cb
:101bac000000000020002000b9ff07000080fa00b0
:101bbc00000006000200fa000002eb00040f78009f
:101bcc000642a8000600370010002000b0ff0700f6
:101bdc001e0fe8001e027800f40f520005003c00b6
:101bec003410800064026200e00f5200f6ff3a00ed
:101bfc0001003700000000000662a9008620a90041
:101c0c0008e2a9000942a900a0002000a0ff0700db
:101c1c000080fa00000006000400fa00100798008b
:101c2c00000000004410800061026200e00f5200ce
:101c3c00fcff3a008620a9001e02900014108800b8
:101c4c000002eb00040f78000800370045108000fc
:101c5c000400240004826200e00f520008003200ed
:101c6c00100020008aff07001e0fe800341f200020
:101c7c009e027800848f5200f4ff3400010037007c
:101c8c0000000000441f20009e027800848f520048
:101c9c0002003a0014c0b3000b003700451080005e
:101cac000400280004826200e00f5200030032009e
:101cbc00c0ff070014c0b300030037001000200061
:101ccc0073ff07000042eb00044078000080fa002c
:101cdc00000006000400fa000002eb00040f78007c
:101cec000042eb00244798000662a800050037006c
:101cfc001e0fe800047d20009e027800848f5200a5
:101d0c0005003c004410800062026200e00f5200ab
:101d1c00f7ff3200010037000000000004108000c3
:101d2c00244798002e429000044078000080fa006e
:101d3c00000006000400fa000002eb00040f78001b
:101d4c000042eb00244798000662a800050037000b
:101d5c001e0fe800047d20009e027800848f520044
:101d6c0005003c004410800062026200e00f52004b
:101d7c00f7ff320001003700000000000410800063
:101d8c00244798000682a8001000200040ff07009e
:101d9c002e429000044078000080fa0000000600fb
:101dac000200fa00004f78001147980052ff07001c
:101dbc001e02fb000400780097ff07001e429000f3
:101dcc000402fb000400780093ff070079ff070072
:101ddc000080fa00000006000400fa00004f7800b2
:101dec00114798002247980043ff07001e02fb0092
:101dfc000400780088ff07001e4290000402fb00dc
:101e0c000400780084ff07002e4290000402fb00bf
:101e1c000400780080ff070066ff07000080fa00ce
:101e2c00000006000600fa00004f780011479800e9
:101e3c002247980033479800444798002eff07002c
:101e4c001e02fb000400780073ff07001e42900086
:101e5c000402fb00040078006fff07002e42900084
:101e6c000402fb00040078006bff07003e42900068
:101e7c000402fb000400780067ff07004e4290004c
:101e8c000402fb000400780063ff070049ff070011
:101e9c000080fa00000006000600fa00881f780097
:101eac0020479800314798002207980012ff07003e
:101ebc002e4290000404a0000402fb0004007800f1
:101ecc0055ff07000002eb00040f78000002eb0046
:101edc00040f7800090037001e027800ae02900053
:101eec000484420093ff070000427800044c780001
:101efc0040012000e6fe07001e0fe8003e42900065
:101f0c000402fb000402e9009e0f5200f2ff3c00a9
:101f1c003e4290000402fb000402e900ae02900075
:101f2c00048442006bff070000427800044c7800e8
:101f3c0020ff07004f0478000080fa000000060024
:101f4c000400fa00100798000002eb000427880038
:101f5c000002eb00142788001e029000a4108800d9
:101f6c0017e2a9001722a8008a40a90017e2a800ce
:101f7c0084108000040f780084022100040001000a
:101f8c000080fa00000006000200fa000002eb00dc
:101f9c00040f780016a2a900a0002000bcfe0700c8
:101fac001602a800000000000600370010002000f8
:101fbc00b7fe07001e0fe8001e027800f40f520057
:101fcc0005003c00b410800061026200e00f52007a
:101fdc00f6ff3a000100370000000000200020004e
:101fec00abfe07000080fa00000006000200fa00b9
:101ffc000002eb00040f78001622a800000000007d
:10200c000600370010002000a1fe07001e0fe8009c
:10201c001e027800f40f520005003c00b410800042
:10202c0062026200e00f5200f6ff3a000100370036
:10203c00000000002000200095fe07000080fa0040
:10204c00000006000200fa000002eb00040f78000a
:10205c001642a80006003700100020008cfe070076
:10206c001e0fe8001e027800f40f520005003c0021
:10207c00b410800064026200e00f5200f6ff3a00d8
:10208c0001003700000000001662a9008a40a90078
:10209c0018e2a9001942a900a00020007cfe07004c
:1020ac000080fa00000006000400fa0010079800f7
:1020bc0000000000c410800061026200e00f5200ba
:1020cc00fcff3a008a40a9001e0290009410880080
:1020dc000002eb00040f780008003700c5108000e8
:1020ec000400240004826200e00f52000800320059
:1020fc001000200066fe07001e0fe800341f2000b1
:10210c009e027800848f5200f4ff340001003700e7
:10211c0000000000441f20009e027800848f5200b3
:10212c0002003a0014c0b3000b003700c510800049
:10213c000400280004826200e00f52000300320009
:10214c00c0ff070014c0b3000300370010002000cc
:10215c004ffe07000042eb00044078000080fa00bc
:10216c00000006000400fa000002eb00040f7800e7
:10217c000042eb00244798001662a80005003700c7
:10218c001e0fe800047d20009e027800848f520010
:10219c0005003c00c410800062026200e00f520097
:1021ac00f7ff3200010037000000000084108000af
:1021bc00244798002e429000044078000080fa00da
:1021cc00000006000400fa000002eb00040f780087
:1021dc000042eb00244798001662a8000500370067
:1021ec001e0fe800047d20009e027800848f5200b0
:1021fc0005003c00c410800062026200e00f520037
:10220c00f7ff32000100370000000000841080004e
:10221c00244798001682a800100020001cfe07001e
:10222c002e429000044078000080fa000000060066
:10223c000200fa00004f78001147980052ff070087
:10224c001e02fb000400780097ff07001e4290005e
:10225c000402fb000400780093ff070079ff0700dd
:10226c000080fa00000006000400fa00004f78001d
:10227c00114798002247980043ff07001e02fb00fd
:10228c000400780088ff07001e4290000402fb0047
:10229c000400780084ff07002e4290000402fb002b
:1022ac000400780080ff070066ff07000080fa003a
:1022bc00000006000600fa00004f78001147980055
:1022cc002247980033479800444798002eff070098
:1022dc001e02fb000400780073ff07001e429000f2
:1022ec000402fb00040078006fff07002e429000f0
:1022fc000402fb00040078006bff07003e429000d4
:10230c000402fb000400780067ff07004e429000b7
:10231c000402fb000400780063ff070049ff07007c
:10232c000080fa00000006000600fa00881f780002
:10233c0020479800314798002207980012ff0700a9
:10234c002e4290000404a0000402fb00040078005c
:10235c0055ff07000002eb00040f78000002eb00b1
:10236c00040f7800090037001e027800ae029000be
:10237c000484420093ff070000427800044c78006c
:10238c0040012000c2fd07001e0fe8003e429000f5
:10239c000402fb000402e9009e0f5200f2ff3c0015
:1023ac003e4290000402fb000402e900ae029000e1
:1023bc00048442006bff070000427800044c780054
:1023cc0020ff07004f0478000080fa000000060090
:1023dc000000fa00648020001442780012c0b300a0
:1023ec0001c3b300044078007bfe0700007122009b
:1023fc00a7fd0700648020001442780082c0b3005f
:10240c0001c3b3000440780073fe07000071220082
:10241c009ffd0700648020001442780002c9b300bd
:10242c0061c0b300044078006bfe0700007122000d
:10243c0097fd0700648020001442780002ccb300a2
:10244c0081c0b3000440780063fe070000712200d5
:10245c008ffd0700648020001442780002c4b30092
:10246c00a1c1b300044078005bfe0700007122009c
:10247c0087fd0700648020001442780032c3b3004b
:10248c0031c3b3000440780053fe070000712200f2
:10249c007ffd07000080fa00000006000a00fa0029
:1024ac00300798004107980064802000144278009f
:1024bc0061c3b3000440780039fe07006102470095
:1024cc0003000900005aeb006480200014427800dd
:1024dc008e02e8000501780041c0b300044078008a
:1024ec006dfe07003e0290000402e800ae42900030
:1024fc00054a78004e0290000402e800be429000ab
:10250c00054a78004e429000044f78009e02fb0072
:10251c00040320000482620044a2de00844278009e
:10252c003e029000054a78009e02fb00040c20003d
:10253c000482620046a2de00844278004e029000c3
:10254c00054a78000080fa00000006000000fa003e
:10255c00748020001442780012c0b30001c3b30091
:10256c000440780040ff07000071220048fd07007e
:10257c00748020001442780082c0b30001c3b30001
:10258c000440780038ff07000071220040fd07006e
:10259c00748020001442780002c9b30061c0b300fb
:1025ac000440780030ff07000071220038fd07005e
:1025bc00748020001442780002ccb30081c0b300b8
:1025cc000440780028ff07000071220030fd07004e
:1025dc00748020001442780002c4b300a1c1b3007f
:1025ec000440780020ff07000071220028fd07003e
:1025fc00748020001442780032c3b30031c3b3009e
:10260c000440780018ff07000071220020fd07002d
:10261c000080fa00000006000a00fa00300798005b
:10262c0041079800648020001442780061c3b30015
:10263c0004407800fefe0700610247000300090019
:10264c00005aeb0074802000144278008e02e800df
:10265c000501780041c0b3000440780032ff070048
:10266c003e0290000402e800ae429000054a780059
:10267c004e0290000402e800be429000054a780029
:10268c004e429000044f78009e02fb000403200091
:10269c000482620044a2de00844278003e02900074
:1026ac00054a78009e02fb00040c200004826200a4
:1026bc0046a2de00844278004e029000054a780063
:1026cc000080fa00000006000000fa00400620001e
:1026dc00fbfc07004006200019fe07003cff07002a
:1026ec009aff07000080fa00000006002a00fa009a
:1026fc00889fbe008a9fbe00700f9800011798003b
:10270c001217980023179800341798004517980053
:10271c0084c0b300044f78000002eb00140798004b
:10272c000002eb002407980002002c00d340240088
:10273c007e0890008e10900081f707000002be000a
:10274c0002002c00f34724000400be00def7070053
:10275c000002be0002002000432024000400be0042
:10276c005ef807000002be0002002000433b24007c
:10277c000400be00d4f707000002be000401be0036
:10278c000400be006ff707000002be00b2fd20007f
:10279c00930424000400be0050f807000002be00a1
:1027ac0034079800450798000200280003402400d5
:1027bc001e109000ae10900061f707000002be00e2
:1027cc0002002c00f34724000400be00bef70700f3
:1027dc000002be0002002000432024000400be00c2
:1027ec003ef807000002be0002002000433b24001c
:1027fc000400be00b4f707000002be000401be00d6
:10280c000400be004ff707000002be00b2fd20001e
:10281c00930424000400be0030f807000002be0040
:10282c0054079800650798005e019000ee01900037
:10283c0040612e00e1fb230041f707000002be00bf
:10284c000400be00a5f907000004be0082c72900e1
:10285c0023da23003e009000ce00900039f70700e9
:10286c000002be0082c7290023da23000400be0048
:10287c0034f707000002be005e019000ee019000ec
:10288c000400be002ff707000002be000400be00cb
:10289c0092f907000002be0002002000030a240087
:1028ac000400be0088f707000002be000401be0051
:1028bc000800be0084f707000002be0074079800f1
:1028cc00050f980082c7290023da23003e009000f0
:1028dc00ce0090001bf707000002be000401be00f2
:1028ec00b0fd200091fc230015f707000002be008c
:1028fc000400be0079f907000004be0082c729005d
:10290c0023da23003e009000ce0090000df7070064
:10291c000002be0082c7290023da23000400be0097
:10292c0008f707000002be005e019000ee01900067
:10293c000400be0003f707000002be000400be0046
:10294c0066f907000002be0002002000030a240002
:10295c000400be005cf707000002be000401be00cc
:10296c000800be0058f707000002be00140f9800c4
:10297c00250f98007e0290008e0a90000401be0084
:10298c000400be00d5f707000002be0002002000c4
:10299c00830c24000400be00eaf607000002be000f
:1029ac000404be007e0290008e0a90000401be005a
:1029bc000400be00e3f607000002be000200200087
:1029cc00030224000400be00c4f707000002be008e
:1029dc000405be003e019000ce01900040612e0027
:1029ec00e1fb2300d6f607000002be000400be0087
:1029fc0033f707000002be000401be000a00be004f
:102a0c00b6f707000002be000401be000800be00bd
:102a1c00cbf607000002be000200200003f02300ea
:102a2c000400be00e1f707000002be004e13900048
:102a3c00048bbe004e1290001403be00360f98009b
:102a4c00470f98003e019000ce01900040612e008f
:102a5c00e1fb2300baf607000002be000400be0032
:102a6c001ef907000002be003e099000ce0990003e
:102a7c000400be0014f707000002be007e019000a7
:102a8c008e0990000400be0094f707000002be00ff
:102a9c000400be0008f707000002be00b2fd2000d3
:102aac0093fc23000400be00a5f607000002be0044
:102abc003e139000048bbe003e1290001403be0027
:102acc00560f9800670f980018c0b3001e099000ad
:102adc00ae0990007e0090008e0890003cf7070035
:102aec0000027800e00f520001003c000044eb00b3
:102afc00e04f5400050032005e0a9000ee0a900090
:102b0c0005f0a2003e139000048bbe004f05be00e2
:102b1c004f04be000080fa00000006001c00fa0002
:102b2c00881f78006007980071079800020f9800c2
:102b3c00130f9800240f9800350f9800460f98003b
:102b4c00570f980018c0b30002002c00f347240064
:102b5c006e009000fe0090001df707000002780048
:102b6c00e00f520001003d000044eb00e04f540028
:102b7c003b0032002e0a9000be0a9000048fbe006b
:102b8c004e0a9000de0a9000240798003507980042
:102b9c0002002800034024004e089000de0890003c
:102bac0067f607000002be0044079800550798001e
:102bbc004e009000de009000caf807000002be0034
:102bcc00a2992900930124000400be0043f70700da
:102bdc000002be003ebb9700048bbe000200280022
:102bec00034024002e089000be08900054f6070005
:102bfc000002be0002002c00f34724000400be00bb
:102c0c00b1f607000002be000200200043202400a1
:102c1c000400be0031f707000002be0002002000d5
:102c2c00433b24000400be00a7f607000002be00d0
:102c3c000401be000400be0042f607000002be0004
:102c4c00b2fd2000930424000400be0023f707000b
:102c5c000002be004ebb9700048bbe00480037003c
:102c6c0018c0b30002002c00f34724002e0890007b
:102c7c00be089000d6f6070000027800e00f520064
:102c8c0001003d000044eb00e04f54003b003200db
:102c9c006e029000fe029000048fbe000e0a90009f
:102cac009e0a900024079800350798000200200027
:102cbc00533e24000e0890009e08900020f607005a
:102ccc000002be0044079800550798004e00900083
:102cdc00de00900083f807000002be00a2992900d4
:102cec00930124000400be00fcf607000002be00a5
:102cfc003ebb9700048bbe0002002c00d340240086
:102d0c006e009000fe0090000df607000002be0061
:102d1c0002002c00f34724000400be006af60700f2
:102d2c000002be0002002000432024000400be006c
:102d3c00eaf607000002be0002002000433b24001c
:102d4c000400be0060f607000002be000401be00d5
:102d5c000400be00fbf507000002be00b2fd20001f
:102d6c00930424000400be00dcf607000002be0041
:102d7c004ebb9700048bbe00010037000000000022
:102d8c004f0478000080fa00000006000c00fa00e6
:102d9c0040079800510798004e02900024079800b5
:102dac005e02900034079800640f470066024700eb
:102dbc00140798001e029000144278009e029000a6
:102dcc008502e800154078009e0278009543780053
:102ddc009e02e8001543780085802000954278001b
:102dec0080417800074178008640780005407800e3
:102dfc0030fd07000080fa00000006000600fa0013
:102e0c0010079800210798000e8fe8001e0278002a
:102e1c00144278009e02e800154078009e82e8007b
:102e2c00954378001e037800e302430015437800b5
:102e3c008580200095427800804178000741780019
:102e4c0086407800054078001afd07000080fa00e3
:102e5c0000000600849fbe00861f78003400f80036
:102e6c0004002000a40188000000fa008460a9007e
:102e7c0014c0b3000443780005802000864a780013
:102e8c000080fa003400f9004f0378004f02be00b6
:102e9c00004006001400fa00889fbe0054a32f00c7
:102eac00e5c02300144088002540880014c0b300fe
:102ebc000443780005802000864a7800c002a900ef
:102ecc00c042a900c822a9006022b800640798007b
:102edc00750798006022b800040f9800150f980031
:102eec0005e1a8000421a900240880000440a100e9
:102efc000450a000240888000471220014088800e3
:102f0c000002eb00040888009460a8008460a9000b
:102f1c0040062000eafa07004006200008fc0700e3
:102f2c002bfd070089fd0700048020001442780067
:102f3c00e04f5200300032000002eb0054079800c2
:102f4c005e029000340798003e02900044079800ff
:102f5c004e02900024079800e802470064024700e4
:102f6c0085007800040078004cfd0700ea02470059
:102f7c00660247008500780004007800a6fd070073
:102f8c000042eb000443780005802000864a78005c
:102f9c000400200085122400048fbe003e02900025
:102fac00cfa2de000400be000bf607000004be003a
:102fbc002e029000cfa2de000400be0006f6070031
:102fcc000003be00ec024700700247000801be007f
:102fdc000600be00c5fd07006e029000fe029000c8
:102fec000400be0085ff07000e0a90009e0a9000a8
:102ffc000400be0081ff07001440800025408000c3
:10300c000403be0007f0a2000e0a90009e0a900076
:10301c0018c0b3000401be000600be00ecf50700aa
:10302c0000027800e00f520001003c000044eb006d
:10303c00e04f540004003200c402a800c442a900ae
:10304c00cc22a800b8ff37000e0b90009e0b90000e
:10305c00144080002540800018c0b3000401be005d
:10306c000600be00daf5070000027800e00f5200ff
:10307c0001003c000044eb00e04f5400040032001f
:10308c00c402a900c442a800cc22a800a6ff3700a5
:10309c00cc22a900c402a900c442a900a2ff370097
:020000040000fa
:1030ac00060800000400000002000000b0b0080098
:1030bc0000000000000800000600000000000000f6
:1030cc000a080000020000000000000000000000e0
:020000040000fa
:0200000401f009
:04000c00f8ff0000f9
:00000001FF
