:020000040000fa
:080000000002040000000000f2
:020000040000fa
:10000800aa020000aa020000aa020000aa02000038
:10001800aa020000aa020000aa020000aa02000028
:10002800aa020000aa020000aa020000aa02000018
:10003800aa020000aa020000aa020000aa02000008
:10004800a6190000aa020000aa020000aa020000e5
:10005800aa020000aa020000aa020000aa020000e8
:10006800aa020000aa020000aa020000aa020000d8
:10007800aa020000aa020000aa020000aa020000c8
:10008800aa020000aa020000aa020000aa020000b8
:10009800aa020000aa020000aa020000aa020000a8
:1000a800aa020000aa020000aa020000aa02000098
:1000b800aa020000aa020000aa020000aa02000088
:1000c800aa020000aa020000aa020000aa02000078
:1000d800aa020000aa020000aa020000aa02000068
:1000e800aa020000aa020000aa020000aa02000058
:1000f800aa020000aa020000aa020000aa02000048
:10010800aa020000aa020000aa020000aa02000037
:10011800aa020000aa020000aa020000aa02000027
:10012800aa020000aa020000aa020000aa02000017
:10013800aa020000aa020000aa020000aa02000007
:10014800aa020000aa020000aa020000aa020000f7
:10015800aa020000aa020000aa020000aa020000e7
:10016800aa020000aa020000aa020000aa020000d7
:10017800aa020000aa020000aa020000aa020000c7
:10018800aa020000aa020000aa020000aa020000b7
:10019800aa020000aa020000aa020000aa020000a7
:1001a800aa020000aa020000aa020000aa02000097
:1001b800aa020000aa020000aa020000aa02000087
:1001c800aa020000aa020000aa020000aa02000077
:1001d800aa020000aa020000aa020000aa02000067
:1001e800aa020000aa020000aa020000aa02000057
:0801f800aa020000aa020000a7
:020000040000fa
:10020800aa020000aa020000aa020000aa02000036
:10021800aa020000aa020000aa020000aa02000026
:10022800aa020000aa020000aa020000aa02000016
:10023800aa020000aa020000aa020000aa02000006
:10024800a6190000aa020000aa020000aa020000e3
:10025800aa020000aa020000aa020000aa020000e6
:10026800aa020000aa020000aa020000aa020000d6
:10027800aa020000aa020000aa020000aa020000c6
:10028800aa020000aa020000aa020000aa020000b6
:10029800aa020000aa020000aa020000aa020000a6
:1002a800aa020000aa020000aa020000aa02000096
:1002b800aa020000aa020000aa020000aa02000086
:1002c800aa020000aa020000aa020000aa02000076
:1002d800aa020000aa020000aa020000aa02000066
:1002e800aa020000aa020000aa020000aa02000056
:1002f800aa020000aa020000aa020000aa02000046
:10030800aa020000aa020000aa020000aa02000035
:10031800aa020000aa020000aa020000aa02000025
:10032800aa020000aa020000aa020000aa02000015
:10033800aa020000aa020000aa020000aa02000005
:10034800aa020000aa020000aa020000aa020000f5
:10035800aa020000aa020000aa020000aa020000e5
:10036800aa020000aa020000aa020000aa020000d5
:10037800aa020000aa020000aa020000aa020000c5
:10038800aa020000aa020000aa020000aa020000b5
:10039800aa020000aa020000aa020000aa020000a5
:1003a800aa020000aa020000aa020000aa02000095
:1003b800aa020000aa020000aa020000aa02000085
:1003c800aa020000aa020000aa020000aa02000075
:1003d800aa020000aa020000aa020000aa02000065
:1003e800aa020000aa020000aa020000aa02000055
:0803f800aa020000aa020000a5
:020000040000fa
:100400004f8120000eff20000e0188000000000038
:10041000000020000000e000020032000001200087
:10042000200288000c00070000b921000100200014
:1004300011000700000020000000e0000200320070
:100440000000020000000000a017020000000000f1
:100450000040da000000fe004440a90080002000b7
:100460000000e0000300320000002000a00188002e
:100470004440a80000000600910188008000780038
:100480000000eb0015003700e280400032a0b4000d
:100490009101ba00e280400032a0b4009102ba009b
:1004a000e280400032a0b4000002eb00472bde00e7
:1004b000f507b200602ce10004003a000059eb009f
:1004c0008301e900fdff3e00040037006128e100e0
:1004d000010032000082eb00040007001101ba00a5
:1004e0000200e000e8ff3a00000006003159ba00bf
:1004f0008301e9000c0032002159ba008301e900b0
:10050000080032000400e00003003a00e2804000ee
:1005100032a0b400f5ff370011d9ba008301e90019
:10052000faff3a008100e800e180400032a0b40008
:1005300000000600000000000000000000000000b5
:1005400000000000000000000000000000000000ab
:10055000000000000040da000000fe0003f0a200ee
:10056000889fbe008a9fbe008c1f78001d01070077
:10057000240133006450e1004f0032006420e100a8
:100580005200320003826c0007003b000905d000d6
:100590000306d000820f54000c065d0002003900f3
:1005a0000200320089017800030678008582550038
:1005b00004003d000003fd008103fd008502ea0008
:1005c0008b854200840f720002003b006000100027
:1005d000e08018006011b8000005eb007a28e10007
:1005e0000a00390006007800c75ddd00f707b20099
:1005f000878075002d003700828171000a01780024
:10060000610560008180d1000080d3008502e9008f
:10061000f9ff3b00060440008784480002003b00cd
:1006200060041400e0841c000988a3000700320065
:100630008a81710082817100610164008904d100a6
:100640000884d3008b05e800170037000978a30061
:1006500013003a000b00e000130034008b05e900a2
:100660000804440089844c000a4474000978a300fb
:100670000d003a000b00e000070034008b05e90094
:100680000804440089844c0001003a000b0020005b
:100690000978a300f7ff32000001eb0002003700e9
:1006a000828171000a017800930007000cf0a70016
:1006b00001f0a000dc0037006420e10002003a00f5
:1006c000838f6c00dc0033000801be000200be0016
:1006d000d50037000001eb00c60237000081eb00b7
:1006e000ef013700889fbe008a9fbe008c1f7800f4
:1006f000bc000700c300330003866c006450e100b7
:100700002e0032006420e100330032006150e1002d
:100710002f0032006120e100310032008585550054
:10072000eb07b00009002000080420000500370096
:100730000804440089844c000a0031000603430089
:1007400087834b000001530081815b00f8ff330079
:100750000203be000800a0000804440089844c0085
:10076000f6ff3900c639dd00830173000100320055
:10077000130020008904d1000884d3000998a30045
:10078000050032000800a7000300a0008904d10082
:100790000884d3008b05e8008904d1000884d300c5
:1007a0000001eb000281d2005300070001f0a1001c
:1007b0000cf0a70001f0a0009b0037006420e100ce
:1007c0009d0032000801be000200be00f7ff3700a6
:1007d0006120e100980032006000b800f3ff3700ac
:1007e0000000200001f82700f0ff3700f4ff2f0081
:1007f000700337000001be00650007000470a70009
:1008000003f0a1006509b100160032000d003500ab
:100810006828e10006003500f0ff2f00f1ff2700f7
:100820000300e00013003b00010028000000050069
:1008300000004000818048008502e900fcff3a008a
:1008400008003700f88f420002003c008000eb00f7
:10085000000005008100d1000080d3008502e8007f
:10086000fcff3a000300e00002003b0060001000c3
:10087000e0801800000006000001be0044000700f0
:100880000470a70003f0a10003f8a30013003a00ce
:100890006509b10010003200090035006928e10047
:1008a00002003500010028000000050000004000a3
:1008b000818048008502e900fcff3a000000060044
:1008c000f88f4200050035008100d1000080d30080
:1008d0008502e800fcff3a00000006008000eb0003
:1008e000000005004f89de00820178004e033700ca
:1008f0006011b8005c033700810020006180550062
:100900000b003d000b00200061fe2f000100e10004
:100910001d00340082817100610164008904d100ee
:100920000884d3000000e800faff3a0071002000bc
:1009300061006400030070000200600009003200e2
:1009400061044400e0844c000988a50005003200e1
:100950008b05e8006808e10002003a008904d10034
:100960000884d300f20f20000258e10005003d008a
:10097000c75ddd00f907b2008980750008007800c6
:10098000000006000bf827008b007800000005002f
:10099000c70ade00f107b200f50fb200080032000e
:1009a000e1cf4200020032000170a00024000500e7
:1009b000810f7000010032000408050044000500aa
:1009c000810f700002003a00140005008502e90062
:1009d0000000400081c04800fcff3b000170a00007
:1009e000240005000004be00e9ff07000003be006c
:1009f0000405be000200be00e5ff0700844f75003d
:100a0000000006000200be006450e1000500360050
:100a10006420e100020036000968a30001003a00ea
:100a20000800be000160a0004f0678004f05be0020
:100a30004f04be0000000600f0ff2f00f1ff27006a
:100a4000f9ff3700889fbe008a9fbe008c1f780088
:100a5000e4ff0700ebff330003866c006450e10005
:100a6000240032006420e100270032006150e100e0
:100a7000220032006120e100210032008b8542001b
:100a8000eb07b1000134b800003ab8000804420096
:100a900089844a00013ab8000030b80088804000dc
:100aa00009014a0004003300000040008180480032
:100ab000020149008b05e900c909dd0083017000ce
:100ac0000100320013002000c814de004814dd00cd
:100ad0004709de001200b200c808de00088470007a
:100ae00085ff070001f0a1000cf0a70001f0a000b5
:100af000cdff37006120e100cfff32000801be00ca
:100b00000200be00f7ff37006150e100fcff3a0031
:100b1000c9ff37000c00fa00889fbe008a9fbe0004
:100b20008c9fbe00afff07000206be008405780060
:100b30000200be00020020007702070005003a0014
:100b40008b02b300120020007302070001003a007c
:100b5000f8856d000c01be00c60007000800be004d
:100b60009b0032000b08a3009e003a000df0a70086
:100b70000be0a00009f0a7000bf0a00009f0a10015
:100b80000801be00bb0007000bf0a6009500320074
:100b900001003c000bd0a0008acf7500b2003300ea
:100ba0006000b8006250e10099003900a1003e00e9
:100bb0000b28a300a2003a000bf8a30006003200a5
:100bc0000b58a300a70032000801be00a9000700cf
:100bd0000800be00940032000800be007801070043
:100be0000004be00050578000bf0a7000b30a6003e
:100bf0000bf0a1005b079800324f200053f3230055
:100c00008702070005003d000800be00120020001a
:100c1000150307000004be000a05e9004a07980012
:100c20006150b9002fff0700008fbe000c01be000d
:100c300084ff0700effe0700300798000100e00086
:100c400002003d0060001000e0801800f2ff270065
:100c5000820f5000e08f580064003e000c00be0080
:100c6000e4fe070020079800f2072000820f5000e2
:100c7000e08f580005003c0012f82f00f3ff2f0012
:100c8000820f5000838f580009003d000a00e000e9
:100c90000300320001003c000201ea000205780076
:100ca0006000b800200798003a0798001900370044
:100cb0003e0090006100b9000aff0700809fbe005f
:100cc0000c00be004109dd004811de007208b100d1
:100cd000110207000005be001e01be0059ff0700fb
:100ce0004f01be001dfe0700809fbe000c00be002d
:100cf0000a01be0019fe07001e01be0051ff0700d9
:100d00004f01be0016fe07008221270013f32300c7
:100d10004cff07000005be002e0090006100b900e6
:100d2000f0fe070001f0a2000c01be000cfe07005f
:100d30000006be000800be00ed0207000c01be0068
:100d400040ff07000a01be0005fe0700809fbe00ad
:100d50004a0007002e0590000af0a7000a05ea00e5
:100d6000050037000800be000801be0035ff07007f
:100d70000004be000c00be000801be000a00a7006f
:100d800030ff07000006be000a05d100f5ff3a005b
:100d90005e01900002e0a600030037000001be00e3
:100da000360007004ffe07000004be004f00be00e3
:100db000770107000801be0022ff07003e019000f6
:100dc000a9020700de0590000bf0a70001f0a200c9
:100dd0004f06be004f05be004f04be000080fa0063
:100de0000000060025000700f9ff37002700070074
:100df0006000b8000bd0a7000bc0a0000be0a7005c
:100e00000bc0a2000bc0a70001f82700f0ff3700bd
:100e10000df8a300020032001e00070019000700b1
:100e20000bf8a300eaff32000b30a70001f0a2008c
:100e3000e7ff37000df8a300f9ff3a00f7ff37008e
:100e40000801be000b000700e6ff320001003c0075
:100e50000df0a2006000b8000df0a7000900070027
:100e6000dbff37000b000700f1ff2700f0ff2f002a
:100e7000d7ff370001000700e901370001f8230020
:100e80000000050001f827000000050020022000f6
:100e9000010037001002200090408800000006008a
:100ea000889fbe008a9fbe008c9fbe00820578008e
:100eb0000004be00b6fe07000800be006420e1008a
:100ec0000700390002003a00f1ff2700f0ff2f0071
:100ed0000160a000120220009240880055003700f7
:100ee0006120e10003003a000b00a70001f8230095
:100ef0005000370001f0a10002002100936424009b
:100f0000c70107000800be0004003500b2fd200044
:100f1000930c2400030207000004be000005eb0050
:100f20000b00a6004f0dde0001f0a1000004be0082
:100f300032982f0023ea2300c2fe07000001eb00d5
:100f400003f023000b00a70003f8230084fd070033
:100f500028fe07000000a7000a00a20061fe0700ab
:100f60000b00e000030032000200200003f0230029
:100f70007afd070001f0a2000006be00020020007a
:100f800093042400affe07000801be0074fd0700b3
:100f9000809fbe000c00be0022a22a00d3a723001f
:100fa000a8fe07004f01be006dfd07000004be0053
:100fb00001f0a1000200200003982300980107001f
:100fc0000800be00190035000001be009dfe0700ac
:100fd0000006be00b2c52900e362230099fe0700a7
:100fe00022222b00f3942b005dfd07000c01be00b4
:100ff00094fe0700e273280083c0230058fd070019
:101000000c01be008ffe070042aa2a00a3e22b00bb
:1010100053fd07000c01be008afe07000801be0058
:1010200088fe07000801be004dfd07000a00a7006a
:1010300001f0a2004f06be004f05be004f04be00e7
:10104000000006000001eb0095ff3700889fbe00fe
:101050008a9fbe000004be004dfe07000800be00cf
:101060006420e1000700390002003a00f1ff270088
:10107000f0ff2f000160a0001202200092408800c3
:101080004c00370001f0a10002802000935c240096
:10109000630107000800be0004003500b2fd200017
:1010a000930424009f0107000004be0032982f0023
:1010b00023f2230063fe07000200200003f0230058
:1010c00001f0a70003f0a00025fd0700c9fd0700ff
:1010d000801f780003fe070001f0a2000005be009b
:1010e0000200200093fc230056fe07000801be000a
:1010f0001bfd0700809fbe000a00be0022a22a003e
:10110000d39f23004ffe07004f01be0014fd0700d0
:101110000004be0001f0a10002002000039823009b
:10112000b2fd070003003d000000200001f823008d
:10113000180037000800be000001be0041fe070095
:101140000005be00823b230043dc2b003dfe070070
:101150000801be003bfe07000801be0000fd0700bd
:101160000004be000a00be0052372300f3c1230072
:1011700034fe0700f27a2b00b3ed2b00f8fc0700d9
:101180000a01be002ffe07000200200003f8230022
:10119000f3fc07004f00a600030037000801be0063
:1011a00003f0a200020037000001be000800be00ec
:1011b0004cfd07004f05be004f04be0000000600b6
:1011c0000003be00f2fd07006220e10002003200d1
:1011d0000600be0005000500e507b100f107b200fa
:1011e00004f023008480700007f0a70001f0a00045
:1011f00024000500889fbe008a9fbe008c9fbe0011
:101200000206780001f0a7000cf0a0000004be0068
:10121000dffd07000800be006420e1000700390080
:1012200002003a00f1ff2700f0ff2f000160a0004c
:1012300012022000924088005100370009f0a100fe
:101240000800be000200200003f8230067fd07002d
:10125000f4ff3c000800be000200200003982300b9
:10126000ef0007000800be0030003500020020003b
:1012700003f023005dfd070005003c000800be00f0
:101280000801be00effd07000005be000e0037009c
:101290000c10a2000000200001f823000801be008d
:1012a000aefc07000200200003f02300e5fd07006c
:1012b0000005be00e50107000200200003002c002d
:1012c000e0fd07000004be000a00be00b2d0280006
:1012d000130b2c00a2fc07000a01be00d9fd070079
:1012e000020f2500330b24009dfc0700809fbe00e9
:1012f0000a00be005206220013f02b00d1fd0700a9
:10130000b2662100f3f6230095fc07000a01be0037
:10131000ccfd07004f01be00f2fc07000801be0033
:10132000c8fd07000801be008dfc07000c00a700e7
:1013300007003700b2fd200093fc23000c10a7002b
:1013400087fc07000cf0a70001f0a2000c0037009a
:101350000cf0a7000200370001f0a20004003700e3
:10136000b2fd2000930424000c10a60003003700f7
:10137000b2fd200093fc23000c10a70078fc0700ae
:101380004f06be004f05be004f04be000000060021
:10139000889fbe008a9fbe008c9fbe000004be00d6
:1013a0007bfd07000800be006420e10048003e000d
:1013b0005500320072212700132b24000bfd07007b
:1013c00047003c000800be00c2ec2800e32c2c00c3
:1013d00093000700470035000800be0001f0a1009f
:1013e00002002000033823008d0007004300350071
:1013f0000800be00b2a32a0083fb230091fd070072
:101400000200200003f0230001f0a70003f0a00079
:1014100053fc0700f7fc07000005be0031fd070084
:1014200001f0a2000006be000200280013f3230012
:1014300084fd07000801be0049fc0700809fbe0034
:101440000c00be0032082800e3952b007dfd07004c
:101450004f01be0042fc07000006be000001be00b6
:1014600078fd0700809fbe004241250083b823001d
:1014700074fd07000200200003e8230038fc070089
:101480000c01be006ffd07000006be004f00be004d
:10149000f2f92b00c3d423006afd070002002000ec
:1014a00003f023002efc07000c01be002bfc0700fc
:1014b0000001be000c00be008afc070002002000f4
:1014c00003f0230026fc070061014500e600070049
:1014d0004f06be004f05be004f04be0000000600d0
:1014e00001f827000000200022022000924088001e
:1014f000f7ff37006000b800fbff370001f823005a
:1015000000002000f2ff370009f8a300f0ff3200ce
:101510006000b800eeff3700889fbe008a9fbe00c3
:101520000003be001afd0700850578008281520085
:10153000020020006220e10004003a00f307b1003d
:10154000040035007718e100040035000600be00f5
:10155000140037006000b8000f003700f50f2000be
:10156000faff2f008502d1000a85d3008301e9002c
:10157000fcff3b008184620000046500890f740059
:10158000f2ff32008582ea000a85ea008184620067
:1015900000046500d8fc070007f0a70001f0a000d8
:1015a0000081eb000200e0004f05be004f04be00ca
:1015b00000000600889fbe008a9fbe00841f78003e
:1015c00008fd07004f00780011003300f0ff2f00e6
:1015d000838f6c0006003b00040565000a00a7002d
:1015e0000800370009f0a6001000200008003700ae
:1015f000820f5400838f5c0003003900100020002c
:1016000001003e000000200009f0a7000000ea00f1
:101610004f05be004f04be000000e00000000600c1
:1016200014002000e3ff3700881f780003047800cf
:101630000300e00007003d0060001000e08018009b
:1016400060011900e081190002003b0001f02d004b
:10165000030037000400070008f0a70001f0a00015
:101660004f04780000000600889fbe008a9fbe00dd
:1016700000827000040271000482710026003200b2
:101680000004be000200be006011b8006b0920001b
:10169000950220000182cf000a0039000541b10007
:1016a0000082cf00070039000541b1000982cf0058
:1016b000040039000541b1000882cf000100390063
:1016c0000541b10005425200120032000a003b0001
:1016d00082817100610164008100d1000080d3002b
:1016e0008984d3000884d3008b05e8000442e80015
:1016f000f7ff3a00070037000804440089844c00d3
:1017000000004800818048008b05e9000442e900a0
:10171000f9ff3a0078fc07004f05be004f04be00f9
:10172000000006000400200000003700889fbe0073
:101730008a9fbe008c1f78004f26dd00a9fc0700a1
:10174000b0fc33006120e100430032006250e10050
:1017500041003e003e0039006420e1003c003200c0
:10176000058255000f003b000402e80038003a00f3
:10177000800f5300818f5b00350034000800be00ed
:1017800003f0a10001f0a60003f0a0000cf0a700f8
:1017900073fb0700a4fc37000603430087834b005c
:1017a0000c4646000005530081855b0002003300b3
:1017b0000a03be000c00a0000402e900f6ff3b0093
:1017c000850578000602430087824b0004003a003a
:1017d0006000b80009f0a70001f0a00092fc3700fb
:1017e0000002520081825a000704e0000400330026
:1017f0000603430087834b008b05e900faff37009f
:10180000090578000604be000203be006011b8009e
:1018100039fc0700e00f5200e08f5a000700350046
:1018200002003c000c08a300040032000601be00c8
:1018300003f0a0000cf0a70049fb07000a85680030
:1018400001f0a1000af0a70001f0a00076fc37002b
:101850000800be0074fc3700100220000cf0a60047
:101860009040880074fc37000003be0048fc07006d
:101870006220e100020032000600be000000060007
:1018800085024100e30f20000328e10005003c0031
:10189000a3fe2f000328e10007003d000500200003
:1018a00001003700f50f2000200220009040880042
:1018b0006000b80008003700130020008381520048
:1018c00005003d008100d1000080d3008301e800c5
:1018d000fcff3a0005002000c72add00f107b20036
:1018e0008580700007f0a70001f0a000000006004e
:1018f000889fbe008a9fbe008c9fbe0030fe0700fe
:10190000850478000005be006420e10049003e0027
:101910006220e10003003200090035000bf8a3004b
:10192000440032000bf8a30008003200100220002f
:1019300090408800f0ff2f00f1ff27003d003700a6
:1019400001f82f00000020003a0037003d0007009a
:1019500002fb07000006be000a00be00324f200056
:1019600053f32300a1fb0700060034000c00be0067
:1019700034000700f9fa07000006be000a00be00a6
:10198000020037008904e9000c00be002d000700aa
:101990002cfc07002b000700f1fa07000001be0035
:1019a0000c00be004ffb07000005be000001be009a
:1019b00024fc07000006be00a2f32300430d2c0008
:1019c000e7fa0700809fbe000c00be00d2e32700ac
:1019d000d3f02b001bfc07004f01be0041fb0700aa
:1019e0000006be000a01be0016fc07000a01be0088
:1019f000dbfa07000006be006148b900b9fb07002a
:101a00000005be0032082800e3952b000dfc0700fe
:101a10000c01be00d2fa07000006be000a00be009c
:101a20000200280013f3230006fc07000c01be008f
:101a3000cbfa07004f06be004f05be004f04be00a4
:101a40000000060003f0230002000500889fbe008e
:101a50008a9fbe008c1f78000004be00ccfb0700ec
:101a60000478a30026003a006120e100250032003e
:101a700009f8a30025003a006420e10021003200ab
:101a8000f507b1000508a300020032000000400085
:101a9000818048006044b80003102000020020004c
:101aa00000004000818048000805440089854c0002
:101ab0000a0541008b8549000a0550008b855800b6
:101ac000030033000a00be00020474008384740023
:101ad0008301d1000281d300830f7100f0ff3a002f
:101ae0008904d1000884d300600149008201780094
:101af000c1adde00fb07b0007ffb0700cafb37006b
:101b00000960a0000800be00c7fb370012022000d9
:101b100092408800f0ff2f00f1ff2700c2fb370042
:020000040000fa
:101b200035fa00000e3c000000000000804000007c
:020000040000fa
:101b30000400fa00100798000002eb00040f780080
:101b4000010037001e0fe8009e0278001e02900080
:101b5000848f5200fbff39000080fa00000006006d
:101b60000400fa00100798001e029000241088005c
:101b700007e2a9000722a8008620a90007e2a80022
:101b800004108000040f7800a4e22000040001008b
:101b90000080fa00000006000200fa000002eb00dc
:101ba000040f780006a2a900a0002000e0ff0700b3
:101bb0000602a80000000000060037001000200008
:101bc000dbff07001e0fe8001e027800f40f520032
:101bd00005003c003410800061026200e00f5200fa
:101be000f6ff3a000100370000000000200020004e
:101bf000cfff07000080fa00000006000200fa0094
:101c00000002eb00040f78000622a800000000008c
:101c10000600370010002000c5ff07001e0fe80077
:101c20001e027800f40f520005003c0034108000c2
:101c300062026200e00f5200f6ff3a000100370036
:101c40000000000020002000b9ff07000080fa001b
:101c5000000006000200fa000002eb00040f78000a
:101c60000642a8000600370010002000b0ff070061
:101c70001e0fe8001e027800f40f520005003c0021
:101c80003410800064026200e00f5200f6ff3a0058
:101c900001003700000000000662a9008620a900ac
:101ca00008e2a9000942a900a0002000a0ff070047
:101cb0000080fa00000006000400fa0010079800f7
:101cc000000000004410800061026200e00f52003a
:101cd000fcff3a008620a9001e0290001410880024
:101ce0000002eb00040f7800080037004510800068
:101cf0000400240004826200e00f52000800320059
:101d0000100020008aff07001e0fe800341f20008b
:101d10009e027800848f5200f4ff340001003700e7
:101d200000000000441f20009e027800848f5200b3
:101d300002003a0014c0b3000b00370045108000c9
:101d40000400280004826200e00f52000300320009
:101d5000c0ff070014c0b3000300370010002000cc
:101d600073ff07000042eb00044078000080fa0097
:101d7000000006000400fa000002eb00040f7800e7
:101d80000042eb00244798000662a80005003700d7
:101d90001e0fe800047d20009e027800848f520010
:101da00005003c004410800062026200e00f520017
:101db000f7ff32000100370000000000041080002f
:101dc000244798002e429000044078000080fa00da
:101dd000000006000400fa000002eb00040f780087
:101de0000042eb00244798000662a8000500370077
:101df0001e0fe800047d20009e027800848f5200b0
:101e000005003c004410800062026200e00f5200b6
:101e1000f7ff3200010037000000000004108000ce
:101e2000244798000682a8001000200040ff070009
:101e30002e429000044078000080fa000000060066
:101e40000200fa00004f78001147980052ff070087
:101e50001e02fb000400780097ff07001e4290005e
:101e60000402fb000400780093ff070079ff0700dd
:101e70000080fa00000006000400fa00004f78001d
:101e8000114798002247980043ff07001e02fb00fd
:101e90000400780088ff07001e4290000402fb0047
:101ea0000400780084ff07002e4290000402fb002b
:101eb0000400780080ff070066ff07000080fa003a
:101ec000000006000600fa00004f78001147980055
:101ed0002247980033479800444798002eff070098
:101ee0001e02fb000400780073ff07001e429000f2
:101ef0000402fb00040078006fff07002e429000f0
:101f00000402fb00040078006bff07003e429000d3
:101f10000402fb000400780067ff07004e429000b7
:101f20000402fb000400780063ff070049ff07007c
:101f30000080fa00000006000600fa00881f780002
:101f400020479800314798002207980012ff0700a9
:101f50002e4290000404a0000402fb00040078005c
:101f600055ff07000002eb00040f78000002eb00b1
:101f7000040f7800090037001e027800ae029000be
:101f80000484420093ff070000427800044c78006c
:101f900040012000e6fe07001e0fe8003e429000d0
:101fa0000402fb000402e9009e0f5200f2ff3c0015
:101fb0003e4290000402fb000402e900ae029000e1
:101fc000048442006bff070000427800044c780054
:101fd00020ff07004f0478000080fa000000060090
:101fe0000400fa00100798000002eb0004278800a4
:101ff0000002eb00142788001e029000a410880045
:1020000017e2a9001722a8008a40a90017e2a80039
:1020100084108000040f78002407210004000100d0
:102020000080fa00000006000200fa000002eb0047
:10203000040f780016a2a900a0002000bcfe070033
:102040001602a80000000000060037001000200063
:10205000b7fe07001e0fe8001e027800f40f5200c2
:1020600005003c00b410800061026200e00f5200e5
:10207000f6ff3a00010037000000000020002000b9
:10208000abfe07000080fa00000006000200fa0024
:102090000002eb00040f78001622a80000000000e8
:1020a0000600370010002000a1fe07001e0fe80008
:1020b0001e027800f40f520005003c00b4108000ae
:1020c00062026200e00f5200f6ff3a0001003700a2
:1020d000000000002000200095fe07000080fa00ac
:1020e000000006000200fa000002eb00040f780076
:1020f0001642a80006003700100020008cfe0700e2
:102100001e0fe8001e027800f40f520005003c008c
:10211000b410800064026200e00f5200f6ff3a0043
:1021200001003700000000001662a9008a40a900e3
:1021300018e2a9001942a900a00020007cfe0700b7
:102140000080fa00000006000400fa001007980062
:1021500000000000c410800061026200e00f520025
:10216000fcff3a008a40a9001e02900094108800eb
:102170000002eb00040f780008003700c510800053
:102180000400240004826200e00f520008003200c4
:102190001000200066fe07001e0fe800341f20001c
:1021a0009e027800848f5200f4ff34000100370053
:1021b00000000000441f20009e027800848f52001f
:1021c00002003a0014c0b3000b003700c5108000b5
:1021d0000400280004826200e00f52000300320075
:1021e000c0ff070014c0b300030037001000200038
:1021f0004ffe07000042eb00044078000080fa0028
:10220000000006000400fa000002eb00040f780052
:102210000042eb00244798001662a8000500370032
:102220001e0fe800047d20009e027800848f52007b
:1022300005003c00c410800062026200e00f520002
:10224000f7ff32000100370000000000841080001a
:10225000244798002e429000044078000080fa0045
:10226000000006000400fa000002eb00040f7800f2
:102270000042eb00244798001662a80005003700d2
:102280001e0fe800047d20009e027800848f52001b
:1022900005003c00c410800062026200e00f5200a2
:1022a000f7ff3200010037000000000084108000ba
:1022b000244798001682a800100020001cfe07008a
:1022c0002e429000044078000080fa0000000600d2
:1022d0000200fa00004f78001147980052ff0700f3
:1022e0001e02fb000400780097ff07001e429000ca
:1022f0000402fb000400780093ff070079ff070049
:102300000080fa00000006000400fa00004f780088
:10231000114798002247980043ff07001e02fb0068
:102320000400780088ff07001e4290000402fb00b2
:102330000400780084ff07002e4290000402fb0096
:102340000400780080ff070066ff07000080fa00a5
:10235000000006000600fa00004f780011479800c0
:102360002247980033479800444798002eff070003
:102370001e02fb000400780073ff07001e4290005d
:102380000402fb00040078006fff07002e4290005b
:102390000402fb00040078006bff07003e4290003f
:1023a0000402fb000400780067ff07004e42900023
:1023b0000402fb000400780063ff070049ff0700e8
:1023c0000080fa00000006000600fa00881f78006e
:1023d00020479800314798002207980012ff070015
:1023e0002e4290000404a0000402fb0004007800c8
:1023f00055ff07000002eb00040f78000002eb001d
:10240000040f7800090037001e027800ae02900029
:102410000484420093ff070000427800044c7800d7
:1024200040012000c2fd07001e0fe8003e42900060
:102430000402fb000402e9009e0f5200f2ff3c0080
:102440003e4290000402fb000402e900ae0290004c
:10245000048442006bff070000427800044c7800bf
:1024600020ff07004f0478000080fa0000000600fb
:102470000000fa00048120001442780012c0b3006a
:1024800001c3b300044078007bfe07000071220006
:10249000a7fd0700048120001442780082c0b30029
:1024a00001c3b3000440780073fe070000712200ee
:1024b0009ffd0700048120001442780002c9b30088
:1024c00061c0b300044078006bfe07000071220079
:1024d00097fd0700048120001442780002ccb3006d
:1024e00081c0b3000440780063fe07000071220041
:1024f0008ffd0700048120001442780002c4b3005d
:10250000a1c1b300044078005bfe07000071220007
:1025100087fd0700048120001442780032c3b30015
:1025200031c3b3000440780053fe0700007122005d
:102530007ffd07000080fa00000006000a00fa0094
:102540003007980041079800048120001442780069
:1025500061c3b3000440780039fe07006102470000
:1025600003000900005aeb000481200014427800a7
:102570008e02e8000501780041c0b30004407800f5
:102580006dfe07003e0290000402e800ae4290009b
:10259000054a78004e0290000402e800be42900016
:1025a000054a78004e429000044f78009e02fb00de
:1025b000040320000482620044a2de00844278000a
:1025c0003e029000054a78009e02fb00040c2000a9
:1025d0000482620046a2de00844278004e0290002f
:1025e000054a78000080fa00000006000000fa00aa
:1025f000148120001442780012c0b30001c3b3005c
:102600000440780040ff07000071220048fd0700e9
:10261000148120001442780082c0b30001c3b300cb
:102620000440780038ff07000071220040fd0700d9
:10263000148120001442780002c9b30061c0b300c5
:102640000440780030ff07000071220038fd0700c9
:10265000148120001442780002ccb30081c0b30082
:102660000440780028ff07000071220030fd0700b9
:10267000148120001442780002c4b300a1c1b30049
:102680000440780020ff07000071220028fd0700a9
:10269000148120001442780032c3b30031c3b30068
:1026a0000440780018ff07000071220020fd070099
:1026b0000080fa00000006000a00fa0030079800c7
:1026c00041079800048120001442780061c3b300e0
:1026d00004407800fefe0700610247000300090085
:1026e000005aeb0014812000144278008e02e800aa
:1026f0000501780041c0b3000440780032ff0700b4
:102700003e0290000402e800ae429000054a7800c4
:102710004e0290000402e800be429000054a780094
:102720004e429000044f78009e02fb0004032000fc
:102730000482620044a2de00844278003e029000df
:10274000054a78009e02fb00040c2000048262000f
:1027500046a2de00844278004e029000054a7800ce
:102760000080fa00000006000000fa004006200089
:10277000fbfc07004006200019fe07003cff070095
:102780009aff07000080fa00000006000e00fa0021
:10279000881f780050079800610798000002eb003e
:1027a000440798004e029000340798003e029000c3
:1027b000240798002e02900014079800e4024700b6
:1027c0000e82e80085007800040078005bff0700b7
:1027d000e8024700660247008500780004007800a0
:1027e000b5ff07009e029000e43f2000848f520056
:1027f00007003400be029000e43f2000848f5200a6
:102800000300340004c3b300044f780023003700f2
:102810009e029000e43f2000848f520004003c00a0
:10282000be029000e43f2000848f52000f0034006d
:1028300088652100ce0090003e009000ae0390001d
:102840001e039000ec0247006a02470081017800f5
:102850000001780087007800060078000800010079
:10286000d4c6b300044f78000c0037008745210020
:10287000be0290001e0290006c0047006a034700f1
:102880008001780006017800850078000400780057
:102890000700010034c7b300044f78001e427800df
:1028a000044078004f0478000080fa000000060021
:1028b0002400fa00889fbe008a9fbe00400f980047
:1028c000510f9800620f9800730f9800041798003a
:1028d0001517980002002c00d34024004e089000e9
:1028e000de0890001df707000002be0002002c0069
:1028f000f34724000400be007af707000002be0080
:1029000002002000432024000400be004df8070010
:102910000002be0002002000433b24000400be0071
:1029200070f707000002be000401be000400be00f4
:102930000bf707000002be00b2fd20009304240044
:102940000400be003ff807000002be00048fbe0076
:1029500002002800034024006e089000fe0890004a
:10296000fef607000002be0002002c00f347240020
:102970000400be005bf707000002be00020020005a
:10298000432024000400be002ef807000002be0011
:1029900002002000433b24000400be0051f7070062
:1029a0000002be000401be000400be00ecf60700f9
:1029b0000002be00b2fd2000930424000400be000b
:1029c00020f807000002be00240798003507980091
:1029d0002e019000be01900000d32c00e1032c00da
:1029e000def607000002be000400be0095f90700f5
:1029f0000004be00f2a82a00130924001e00be0035
:102a0000d7f607000002be00f2a82a00130924002e
:102a10000400be00d2f607000002be002e019000a6
:102a2000be0190000400be00cdf607000002be000b
:102a30000400be0083f907000002be00020020006f
:102a4000030a24000400be0026f707000002be00af
:102a50000401be000800be0022f707000002be000d
:102a60004407980055079800f2a82a00130924008b
:102a70001e00be00baf607000002be000401be0040
:102a8000b0fd200091fc2300b4f607000002be0058
:102a90000400be006bf907000004be00f2a82a0083
:102aa000130924001e00be00adf607000002be00a0
:102ab000f2a82a00130924000400be00a8f60700ab
:102ac0000002be002e019000be0190000400be0076
:102ad000a3f607000002be000400be0059f907007b
:102ae0000002be0002002000030a24000400be0011
:102af000fcf607000002be000401be000800be0094
:102b0000f8f607000002be006407980075079800f9
:102b10004e029000de0290000401be000400be00e0
:102b2000c8f707000002be0002002000830c24004a
:102b30000400be008af607000002be000404be00c6
:102b40004e029000de0290000401be000400be00b0
:102b500083f607000002be000200200003022400ea
:102b60000400be00b7f707000002be000405be0067
:102b70001e01be0000d32c00e1032c0077f60700f5
:102b80000002be000400be00d4f607000002be0032
:102b90000401be000a00be00aaf707000002be0042
:102ba0000401be000800be006cf607000002be0073
:102bb0000200200003f023000400be00d5f7070048
:102bc0000002be001e139000048bbe001e12900077
:102bd0001403be00060f9800170f98001e01be00d8
:102be00000d32c00e1032c005cf607000002be00bd
:102bf0000400be0013f907000002be000e09900099
:102c00009e0990000400be00b6f607000002be0058
:102c10004e019000de0190000400be0089f707001d
:102c20000002be000400be00aaf607000002be00bb
:102c3000b2fd200093fc23000400be0047f607000d
:102c40000002be000e139000048bbe0018c0b3003b
:102c50006e019000fe0190004e009000de0090009a
:102c6000e2f6070000027800e00f520001003c008d
:102c70000044eb00e04f5400090032000e129000b7
:102c80001403be00260f9800370f98002e0a9000fc
:102c9000be0a900005f0a2000e139000048bbe0047
:102ca0004f05be004f04be000080fa000000060081
:102cb0001c00fa00881f78006007980071079800d0
:102cc000020f9800130f9800240f9800350f9800fa
:102cd000460f9800570f980018c0b30002002c0050
:102ce000f34724006e009000fe009000bff607003e
:102cf00000027800e00f520001003d000044eb00ac
:102d0000e04f54003b0032002e0a9000be0a9000b3
:102d1000048fbe004e0a9000de0a9000240798003f
:102d20003507980002002800034024004e08900058
:102d3000de08900009f607000002be004407980074
:102d4000550798004e009000de009000bff8070085
:102d50000002be00a2992900930124000400be00d5
:102d600038f707000002be003ebb9700048bbe0090
:102d700002002800034024002e089000be089000a6
:102d8000f6f507000002be0002002c00f347240005
:102d90000400be0053f607000002be00020020003f
:102da000432024000400be0026f707000002be00f6
:102db00002002000433b24000400be0049f6070047
:102dc0000002be000401be000400be00e4f50700de
:102dd0000002be00b2fd2000930424000400be00e7
:102de00018f707000002be004ebb9700048bbe0020
:102df0004800370018c0b30002002c00f34724003d
:102e00002e089000be08900078f6070000027800b7
:102e1000e00f520001003d000044eb00e04f540081
:102e20003b0032006e029000fe029000048fbe0054
:102e30000e0a90009e0a900024079800350798001b
:102e400002002000533e24000e0890009e089000cf
:102e5000c2f507000002be0044079800550798001d
:102e60004e009000de00900078f807000002be00df
:102e7000a2992900930124000400be00f1f6070086
:102e80000002be003ebb9700048bbe0002002c0077
:102e9000d34024006e009000fe009000aff50700c4
:102ea0000002be0002002c00f34724000400be0014
:102eb0000cf607000002be000200200043202400a0
:102ec0000400be00dff607000002be000200200082
:102ed000433b24000400be0002f607000002be00cf
:102ee0000401be000400be009df507000002be0004
:102ef000b2fd2000930424000400be00d1f60700b8
:102f00000002be004ebb9700048bbe0001003700dc
:102f1000000000004f0478000080fa000000060066
:102f20000200fa00c18020008080200017fe070008
:102f300000427800044f78000080fa00000006008c
:102f40000400fa00000f7800110798000400070041
:102f50006200070004fe070009010700ffff3700b9
:102f60000000fa000002eb00041688000002eb00eb
:102f7000441688000002eb00042788000002eb00e2
:102f800014278800c9a2a800c9c2a80005e1a800aa
:102f90000421a900240880000440a0000450a100de
:102fa0002408880084382100140888000002eb00ff
:102fb0000408880011e1a8001021a90084088000fd
:102fc0000440a0000450a100840888008438210037
:102fd000640888000002eb003408880013e1a800b0
:102fe0001221a900940880000440a1000450a00010
:102ff0009408880014272000740888000002eb0061
:1030000054088800840c800004a0a10004b0a10032
:1030100004c0a000840c8800840c80000400a1007f
:103020000410a0000420a000840c8800950c8000ef
:1030300004fe2f0004826200b400b300940c8800e8
:10304000d40c800004a0a10004b0a10004c0a10021
:10305000d40c8800d40c80000400a1000410a0004f
:103060000420a000d40c8800e50c800004fe2f0092
:1030700004826200c400b300e40c8800240d8000c8
:1030800004a0a00004b0a10004c0a100240d880089
:10309000240d80000400a1000410a0000420a00062
:1030a000240d8800350d800004fe2f00048262008c
:1030b000d400b300340d8800440580000400a10052
:1030c0000410a1000420a000440588009500a80079
:1030d0008500a9000080fa00000006000000fa0048
:1030e0000002eb00044088006022b80064408800c1
:1030f000754088006022b800444088005540880030
:103100000002eb0014408800046a28002440880074
:10311000c242a900c222a900740880000500200054
:103120000400be00f2f507000002be00020020000d
:1031300003f023000400be0042f607000002be00b8
:103140000400be00ccf507000002be0004027800b7
:10315000540d880013e1a9000080fa000000060069
:103160000800fa00008fbe0022079800330798007d
:103170002e019000be0190001e00be00f7f4070073
:103180000002be000400be000080fa00000006003d
:103190000800fa00881f7800008fbe002207980000
:1031a000330798002e019000be0190001e00be0063
:1031b000ebff07000002be0018c0b3006011b800aa
:1031c0000400be0089f5070000027800e00f5200fd
:1031d00001003c000044eb00e04f540002003200cc
:1031e0000002eb000100370014002000040078000a
:1031f0004f0478000080fa00000006000200fa0088
:10320000000f78001e027800e00f520003003a0021
:10321000c242a900c222a90002003700c242a8008f
:10322000c222a80013e1a8000080fa0000000600f6
:103230000200fa00000f78001e027800e00f520032
:1032400003003a00c242a900c222a80002003700cf
:10325000c242a800c222a90013e1a8000080fa001f
:10326000000006000000fa0013e1a900c222a90034
:10327000c242a9000080fa00000006000600fa0021
:10328000008fbe00220798002e029000e00f52002f
:1032900003003a00c242a900c222a900020037007e
:1032a000c242a800c222a8000002eb00144088001d
:1032b000427e2b00b31c24001e00be00e1f5070077
:1032c0000002be000400be004af507000002be0076
:1032d000040278002440880013e1a8000080fa006e
:1032e000000006000600fa00008fbe0022079800ca
:1032f0002e029000e00f520003003a00c242a900e3
:10330000c222a80002003700c242a800c222a900bf
:103310000002eb001440880032d8220083fd230015
:103320001e00be00c7f507000002be000400be007c
:1033300030f507000002be00040278002440880037
:1033400013e1a8000080fa0000000600841f780046
:103350003400f80004002000a40188000000fa00f6
:103360008500a900144080000402e8001440880091
:103370000080fa003400f9004f0278000040060097
:103380000000fa000000eb00a9ff070000000000a9
:10339000c180200080802000fcfc070000427800f3
:1033a00005c3b300854f5200f9ff3200adff07009f
:1033b00014002000044088000080fa00000006008d
:1033c0000000fa00881f7800d5fe0700b4fd200039
:1033d00095fc23004440880055408800444080000c
:1033e000554080000401be006000b80068ff07007f
:1033f00000027800040078008dff0700010037000c
:1034000098ff070044408000554080000401be0042
:103410006000b80052ff07000002be000400be00ba
:10342000f4f407000002be000402780004f0a700d4
:103430000402ea00cfa2de000400be0029f5070066
:103440000003be00a46c8400b56c840018c0b300f7
:103450000401be000600be00e4f40700000278008c
:10346000e00f520001003c000044eb00e04f54002c
:10347000e3ff3a0004408000e10f520002003a00ee
:10348000240020000440880004408000e50f520022
:1034900002003a00640020000440880004408000dc
:1034a000e90f520002003a00a40020000440880006
:1034b0004f0478000080fa00000006000600fa00c1
:1034c0006022b800048fbe0095fe070064408000b3
:1034d000754080000401be001e00be002cff0700e6
:1034e000000278000400780044ff07003000370035
:1034f000c180200080802000a4fc070000427800ea
:10350000d5c6b300854f52000a003a00acff070051
:1035100064408000754080000401be001e00be00b3
:103520001bff0700000278000400780033ff07004b
:103530001f003700541680004d22de00e142620079
:10354000541680004e22de006142620084cf520099
:1035500017003200541680004e22de0061426200e5
:103560000482fb00240798001000200023ff0700be
:10357000002424006ef907002e0290000400780059
:103580002bff07000024240069f9070064fe0700f0
:1035900064408000754080000401be001e00be0033
:1035a000fbfe0700000278000400780013ff07000c
:1035b000551680000400220004826200e00f5200d1
:1035c000cbff320055168000040024000482620004
:1035d000e00f5200c6ff320022ff070004408000c7
:1035e000e20f520002003a0034002000044088003c
:1035f0000080fa00000006000000fa00881f780032
:1036000010002000fdfe070000000000c180200027
:10361000808020005dfc07000042780005c3b300f5
:10362000854f5200f9ff32006440800075408000f1
:103630000401be000000200061202400d4fe070029
:103640000002780004007800ecfe0700110037004b
:10365000c1802000808020004cfc070000427800e0
:10366000d5c6b300854f52000a003a0054ff070048
:1036700064408000754080000401be00000020000e
:1036800061202400c2fe07000002780004007800d8
:10369000dafe070064408000754080000401be002f
:1036a0000000200061202400adfe07000002be00e3
:1036b0000400be004ff407000002be0004027800c0
:1036c00004f0a7000402ea00cfa2de000400be005e
:1036d00084f407000003be00846c8400956c8400b1
:1036e00018c0b3000401be000600be003ff407008e
:1036f00000027800e00f520001003c000044eb00a3
:10370000e04f5400d2ff3a00d6fe070044002000ec
:10371000044088004f0478000080fa000000060092
:020000040000fa
:10372000100800000200000002000000b0b000001d
:103730000008000010000000000000001208000057
:0c3740000200000000000000000000007b
:020000040000fa
:0200000401f009
:04000c00d8ff000019
:00000001FF
