:020000040000fa
:080000000002040000000000f2
:020000040000fa
:10000800500300005003000050030000500300009c
:10001800500300005003000050030000500300008c
:10002800500300005003000050030000500300007c
:10003800500300005003000050030000500300006c
:10004800500300005003000050030000500300005c
:10005800500300005003000050030000500300004c
:100068005003000050030000500300009a020000f3
:10007800500300005003000050030000500300002c
:10008800500300005003000050030000500300001c
:10009800500300005003000050030000500300000c
:1000a80050030000500300005003000050030000fc
:1000b80050030000500300005003000050030000ec
:1000c80050030000500300005003000050030000dc
:1000d80050030000500300005003000050030000cc
:1000e80050030000500300005003000050030000bc
:1000f80050030000500300005003000050030000ac
:10010800500300005003000050030000500300009b
:10011800500300005003000050030000500300008b
:10012800500300005003000050030000500300007b
:10013800500300005003000050030000500300006b
:10014800500300005003000050030000500300005b
:10015800500300005003000050030000500300004b
:10016800500300005003000050030000500300003b
:10017800500300005003000050030000500300002b
:10018800500300005003000050030000500300001b
:10019800500300005003000050030000500300000b
:1001a80050030000500300005003000050030000fb
:1001b80050030000500300005003000050030000eb
:1001c80050030000500300005003000050030000db
:1001d80050030000500300005003000050030000cb
:1001e80050030000500300005003000050030000bb
:0801f800500300005003000059
:020000040000fa
:10020800500300005003000050030000500300009a
:10021800500300005003000050030000500300008a
:10022800500300005003000050030000500300007a
:10023800500300005003000050030000500300006a
:10024800500300005003000050030000500300005a
:10025800500300005003000050030000500300004a
:100268005003000050030000500300009a020000f1
:10027800500300005003000050030000500300002a
:10028800500300005003000050030000500300001a
:10029800500300005003000050030000500300000a
:1002a80050030000500300005003000050030000fa
:1002b80050030000500300005003000050030000ea
:1002c80050030000500300005003000050030000da
:1002d80050030000500300005003000050030000ca
:1002e80050030000500300005003000050030000ba
:1002f80050030000500300005003000050030000aa
:100308005003000050030000500300005003000099
:100318005003000050030000500300005003000089
:100328005003000050030000500300005003000079
:100338005003000050030000500300005003000069
:100348005003000050030000500300005003000059
:100358005003000050030000500300005003000049
:100368005003000050030000500300005003000039
:100378005003000050030000500300005003000029
:100388005003000050030000500300005003000019
:100398005003000050030000500300005003000009
:1003a80050030000500300005003000050030000f9
:1003b80050030000500300005003000050030000e9
:1003c80050030000500300005003000050030000d9
:1003d80050030000500300005003000050030000c9
:1003e80050030000500300005003000050030000b9
:0803f800500300005003000057
:020000040000fa
:100400002f8020000eff20000e0188000000000059
:10041000000020000000e000020032000001200087
:10042000200288000c000700a04f200001002000df
:1004300011000700000020000000e0000200320070
:100440000000020000000000ce02020000000000d8
:100450000040da000000fe004440a9000000200037
:100460000000e0000300320000002000a00188002e
:100470004440a80000000600910188008000780038
:100480000000eb0015003700e280400032a0b4000d
:100490009101ba00e280400032a0b4009102ba009b
:1004a000e280400032a0b4000002eb00472bde00e7
:1004b000f507b200602ce10004003a000059eb009f
:1004c0008301e900fdff3e00040037006128e100e0
:1004d000010032000082eb00040007001101ba00a5
:1004e0000200e000e8ff3a00000006003159ba00bf
:1004f0008301e9000c0032002159ba008301e900b0
:10050000080032000400e00003003a00e2804000ee
:1005100032a0b400f5ff370011d9ba008301e90019
:10052000faff3a008100e800e180400032a0b40008
:1005300000000600841f78003400f800040020004a
:10054000a40188000000fa008660a900141680004b
:1005500062026200e00f520002003a0013e1a900bb
:10056000050037001416800062026200e00f52009e
:100570000100320013e1a800141680000402d1002b
:10058000614262000482fb00044088000080fa009f
:100590003400f9004f027800004006000400fa0021
:1005a000000f7800110798000200070029000700db
:1005b000ffff37000000fa000002eb00041688007d
:1005c0000002eb00441688000002eb0004278800bc
:1005d0000002eb0014278800c022a8006260a80077
:1005e0009660a8008660a90013e1a8001221a90066
:1005f000940880000440a1000450a00094088800e2
:1006000014272000740888000002eb0054088800ba
:10061000240d800004a0a00004b0a10004c0a1002b
:10062000240d8800240d80000400a1000410a00007
:100630000420a000240d8800350d800004fe2f004a
:1006400004826200d400b300340d88000080fa00f8
:10065000000006000000fa00740880000500200079
:100660000400be002b0007000002be0002002000b4
:1006700003f023000400be003d0007000002be009e
:100680000400be00080007000002be00040278005b
:10069000540d880013e1a9000080fa000000060054
:1006a0000040da000000fe000001be001b00070051
:1006b0000470a70003f0a10003f8a30013003a00a0
:1006c0006509b10010003200090035006928e10019
:1006d0000200350001002800000005000000400075
:1006e000818048008502e900fcff3a000000060016
:1006f000f88f4200050035008100d1000080d30052
:100700008502e800fcff3a00000006008000eb00d4
:10071000000005006011b80049003700c70ade007c
:10072000f107b200f50fb20008003200e1cf42003d
:10073000020032000170a00024000500810f70004b
:10074000010032000408050044000500810f70001c
:1007500002003a00140005008502e9000000400094
:1007600081c04800fcff3b000170a0002400050090
:10077000889fbe008a9fbe008c1f780085000700fe
:100780008c00330003866c006450e10024003200ca
:100790006420e100270032006150e10022003200b5
:1007a0006120e100210032008b854200eb07b1009f
:1007b0000134b800003ab8000804420089844a00b5
:1007c000013ab8000030b8008880400009014a00b2
:1007d000040033000000400081804800020149000d
:1007e0008b05e900c909dd008301700001003200ba
:1007f00013002000c814de004814dd004709de00a5
:100800001200b200c808de00088470003b00070038
:1008100001f0a1000cf0a70001f0a0006e0037006d
:100820006120e100700032000801be000200be003d
:10083000f7ff37006150e100fcff3a006a00370023
:10084000889fbe008a9fbe00008270000402710073
:1008500004827100260032000004be000200be00c7
:100860006011b8006b092000950220000182cf00c2
:100870000a0039000541b1000082cf0007003900ad
:100880000541b1000982cf00040039000541b100e3
:100890000882cf00010039000541b1000542520035
:1008a000120032000a003b00828171006101640085
:1008b0008100d1000080d3008984d3000884d30054
:1008c0008b05e8000442e800f7ff3a000700370014
:1008d0000804440089844c000000480081804800de
:1008e0008b05e9000442e900f9ff3a000300070024
:1008f0004f05be004f04be0000000600810020002e
:10090000618055000b003d000b00200061fe2f00b0
:100910000100e1001d00340082817100610164006a
:100920008904d1000884d3000000e800faff3a00ef
:10093000710020006100640003007000020060008c
:100940000900320061044400e0844c000988a500dd
:10095000050032008b05e8006808e10002003a005b
:100960008904d1000884d300f20f20000258e1006e
:1009700005003d00c75ddd00f907b2008980750004
:1009800008007800000006000bf827008b007800b4
:10099000000005000004be0060ff07000003be0069
:1009a0000405be000200be005cff0700844f750016
:1009b000000006000200be006450e10005003600a1
:1009c0006420e100020036000968a30001003a003b
:1009d0000800be000160a0004f0678004f05be0071
:1009e0004f04be0000000600f0ff2f00f1ff2700bb
:0409f000f9ff3700d4
:020000040000fa
:1009f40000080000020000000000000000000000e9
:020000040000fa
:0200000401f009
:04000c00d8ff000019
:00000001FF
