:020000040000fa
:080000000002040000000000f2
:020000040000fa
:10000800b2020000b2020000b2020000b202000018
:10001800b2020000b2020000b2020000b202000008
:10002800b2020000b2020000b2020000b2020000f8
:10003800b2020000b2020000b2020000b2020000e8
:020000040000fa
:020000040000fa
:100400004f8020000eff20000e0188000000000039
:10041000000020000000e000020032000001200087
:10042000200288000c0007006096200001002000d8
:1004300011000700000020000000e0000200320070
:10044000000002000000000056070200000000004b
:100450000040da000000fe004440a9000000200037
:100460000000e0000300320000002000a00188002e
:100470004440a80000000600910188008000780038
:100480000000eb0015003700e280400032a0b4000d
:100490009101ba00e280400032a0b4009102ba009b
:1004a000e280400032a0b4000002eb00472bde00e7
:1004b000f507b200602ce10004003a000059eb009f
:1004c0008301e900fdff3e00040037006128e100e0
:1004d000010032000082eb00040007001101ba00a5
:1004e0000200e000e8ff3a00000006003159ba00bf
:1004f0008301e9000c0032002159ba008301e900b0
:10050000080032000400e00003003a00e2804000ee
:1005100032a0b400f5ff370011d9ba008301e90019
:10052000faff3a008100e800e180400032a0b40008
:1005300000000600000000000000000000000000b5
:1005400000000000000000000000000000000000ab
:10055000000000000000000000000000000000009b
:0c056000000000000040da000000fe0077
:020000040000fa
:10056c000400fa00100798000002eb00040f78005a
:10057c00010037001e0fe8009e0278001e0290005a
:10058c00848f5200fbff39000080fa000000060047
:10059c000400fa00100798001e0290002410880036
:1005ac0007e2a9000722a8008620a90007e2a800fc
:1005bc0004108000040f7800843420000400010033
:1005cc000080fa00000006000200fa000002eb00b6
:1005dc00040f780006a2a900a0002000e0ff07008d
:1005ec000602a800000000000600370010002000e2
:1005fc00dbff07001e0fe8001e027800f40f52000c
:10060c0005003c003410800061026200e00f5200d3
:10061c00f6ff3a0001003700000000002000200027
:10062c00cfff07000080fa00000006000200fa006d
:10063c000002eb00040f78000622a8000000000066
:10064c000600370010002000c5ff07001e0fe80051
:10065c001e027800f40f520005003c00341080009c
:10066c0062026200e00f5200f6ff3a000100370010
:10067c000000000020002000b9ff07000080fa00f5
:10068c00000006000200fa000002eb00040f7800e4
:10069c000642a8000600370010002000b0ff07003b
:1006ac001e0fe8001e027800f40f520005003c00fb
:1006bc003410800064026200e00f5200f6ff3a0032
:1006cc0001003700000000000662a9008620a90086
:1006dc0008e2a9000942a900a0002000a0ff070021
:1006ec000080fa00000006000400fa0010079800d1
:1006fc00000000004410800061026200e00f520014
:10070c00fcff3a008620a9001e02900014108800fd
:10071c000002eb00040f7800080037004510800041
:10072c000400240004826200e00f52000800320032
:10073c00100020008aff07001e0fe800341f200065
:10074c009e027800848f5200f4ff340001003700c1
:10075c0000000000441f20009e027800848f52008d
:10076c0002003a0014c0b3000b00370045108000a3
:10077c000400280004826200e00f520003003200e3
:10078c00c0ff070014c0b3000300370010002000a6
:10079c0073ff07000042eb00044078000080fa0071
:1007ac00000006000400fa000002eb00040f7800c1
:1007bc000042eb00244798000662a80005003700b1
:1007cc001e0fe800047d20009e027800848f5200ea
:1007dc0005003c004410800062026200e00f5200f1
:1007ec00f7ff320001003700000000000410800009
:1007fc00244798002e429000044078000080fa00b4
:10080c00000006000400fa000002eb00040f780060
:10081c000042eb00244798000662a8000500370050
:10082c001e0fe800047d20009e027800848f520089
:10083c0005003c004410800062026200e00f520090
:10084c00f7ff3200010037000000000004108000a8
:10085c00244798000682a8001000200040ff0700e3
:10086c002e429000044078000080fa000000060040
:10087c000200fa00004f78001147980052ff070061
:10088c001e02fb000400780097ff07001e42900038
:10089c000402fb000400780093ff070079ff0700b7
:1008ac000080fa00000006000400fa00004f7800f7
:1008bc00114798002247980043ff07001e02fb00d7
:1008cc000400780088ff07001e4290000402fb0021
:1008dc000400780084ff07002e4290000402fb0005
:1008ec000400780080ff070066ff07000080fa0014
:1008fc00000006000600fa00004f7800114798002f
:10090c002247980033479800444798002eff070071
:10091c001e02fb000400780073ff07001e429000cb
:10092c000402fb00040078006fff07002e429000c9
:10093c000402fb00040078006bff07003e429000ad
:10094c000402fb000400780067ff07004e42900091
:10095c000402fb000400780063ff070049ff070056
:10096c000080fa00000006000600fa00881f7800dc
:10097c0020479800314798002207980012ff070083
:10098c002e4290000404a0000402fb000400780036
:10099c0055ff07000002eb00040f78000002eb008b
:1009ac00040f7800090037001e027800ae02900098
:1009bc000484420093ff070000427800044c780046
:1009cc00800c2000e6fe07001e0fe8003e4290005f
:1009dc000402fb000402e9009e0f5200f2ff3c00ef
:1009ec003e4290000402fb000402e900ae029000bb
:1009fc00048442006bff070000427800044c78002e
:100a0c0020ff07004f0478000080fa000000060069
:100a1c000400fa00100798000002eb00042788007d
:100a2c000002eb00142788001e029000a41088001e
:100a3c0017e2a9001722a8008a40a90017e2a80013
:100a4c0084108000040f7800045920000400010079
:100a5c000080fa00000006000200fa000002eb0021
:100a6c00040f780016a2a900a0002000bcfe07000d
:100a7c001602a8000000000006003700100020003d
:100a8c00b7fe07001e0fe8001e027800f40f52009c
:100a9c0005003c00b410800061026200e00f5200bf
:100aac00f6ff3a0001003700000000002000200093
:100abc00abfe07000080fa00000006000200fa00fe
:100acc000002eb00040f78001622a80000000000c2
:100adc000600370010002000a1fe07001e0fe800e2
:100aec001e027800f40f520005003c00b410800088
:100afc0062026200e00f5200f6ff3a00010037007c
:100b0c00000000002000200095fe07000080fa0085
:100b1c00000006000200fa000002eb00040f78004f
:100b2c001642a80006003700100020008cfe0700bb
:100b3c001e0fe8001e027800f40f520005003c0066
:100b4c00b410800064026200e00f5200f6ff3a001d
:100b5c0001003700000000001662a9008a40a900bd
:100b6c0018e2a9001942a900a00020007cfe070091
:100b7c000080fa00000006000400fa00100798003c
:100b8c0000000000c410800061026200e00f5200ff
:100b9c00fcff3a008a40a9001e02900094108800c5
:100bac000002eb00040f780008003700c51080002d
:100bbc000400240004826200e00f5200080032009e
:100bcc001000200066fe07001e0fe800341f2000f6
:100bdc009e027800848f5200f4ff3400010037002d
:100bec0000000000441f20009e027800848f5200f9
:100bfc0002003a0014c0b3000b003700c51080008f
:100c0c000400280004826200e00f5200030032004e
:100c1c00c0ff070014c0b300030037001000200011
:100c2c004ffe07000042eb00044078000080fa0001
:100c3c00000006000400fa000002eb00040f78002c
:100c4c000042eb00244798001662a800050037000c
:100c5c001e0fe800047d20009e027800848f520055
:100c6c0005003c00c410800062026200e00f5200dc
:100c7c00f7ff3200010037000000000084108000f4
:100c8c00244798002e429000044078000080fa001f
:100c9c00000006000400fa000002eb00040f7800cc
:100cac000042eb00244798001662a80005003700ac
:100cbc001e0fe800047d20009e027800848f5200f5
:100ccc0005003c00c410800062026200e00f52007c
:100cdc00f7ff320001003700000000008410800094
:100cec00244798001682a800100020001cfe070064
:100cfc002e429000044078000080fa0000000600ac
:100d0c000200fa00004f78001147980052ff0700cc
:100d1c001e02fb000400780097ff07001e429000a3
:100d2c000402fb000400780093ff070079ff070022
:100d3c000080fa00000006000400fa00004f780062
:100d4c00114798002247980043ff07001e02fb0042
:100d5c000400780088ff07001e4290000402fb008c
:100d6c000400780084ff07002e4290000402fb0070
:100d7c000400780080ff070066ff07000080fa007f
:100d8c00000006000600fa00004f7800114798009a
:100d9c002247980033479800444798002eff0700dd
:100dac001e02fb000400780073ff07001e42900037
:100dbc000402fb00040078006fff07002e42900035
:100dcc000402fb00040078006bff07003e42900019
:100ddc000402fb000400780067ff07004e429000fd
:100dec000402fb000400780063ff070049ff0700c2
:100dfc000080fa00000006000600fa00881f780048
:100e0c0020479800314798002207980012ff0700ee
:100e1c002e4290000404a0000402fb0004007800a1
:100e2c0055ff07000002eb00040f78000002eb00f6
:100e3c00040f7800090037001e027800ae02900003
:100e4c000484420093ff070000427800044c7800b1
:100e5c0040012000c2fd07001e0fe8003e4290003a
:100e6c000402fb000402e9009e0f5200f2ff3c005a
:100e7c003e4290000402fb000402e900ae02900026
:100e8c00048442006bff070000427800044c780099
:100e9c0020ff07004f0478000080fa0000000600d5
:100eac001000fa00c002a900c202a90040062000ee
:100ebc00b7fd070040062000d5fe0700a47e2000e9
:100ecc0004000100848a2000040001000002eb00f1
:100edc00740798007e029000540798005e02900000
:100eec00640798006e029000440798000685200065
:100efc00ec02470068024700850078000400780087
:100f0c0006000100e6902000ee0247006a0247004e
:100f1c00850078000400780006000100680f470087
:100f2c006c024700140798006a02470024079800d7
:100f3c006e024700340798001e029000144278009d
:100f4c009e0290008502e800154078009e02780011
:100f5c00954378009e02e800154378002580200018
:100f6c0095427800804178000741780086407800ef
:100f7c000540780083ff07003e0290001442780081
:100f8c00be0290008502e80015407800ae02900089
:100f9c0095437800ae0290008502e8001543780076
:100fac002580200095427800804178000741780028
:100fbc00864078000540780072ff0700006a280020
:100fcc0067fd0700c1ff37000000fa000480200015
:100fdc001442780012c0b30001c3b300044078007f
:100fec0031fe0700007122005dfd07000480200027
:100ffc001442780082c0b30001c3b30004407800ef
:10100c0029fe07000071220055fd07000480200016
:10101c001442780002c9b30061c0b30004407800e8
:10102c0021fe0700007122004dfd07000480200006
:10103c001442780002ccb30081c0b30004407800a5
:10104c0019fe07000071220045fd070004802000f6
:10105c001442780002c4b300a1c1b300044078006c
:10106c0011fe0700007122003dfd070004802000e6
:10107c001442780032c3b30031c3b300044078008b
:10108c0009fe07000071220035fd07000080fa0000
:10109c00000006000a00fa0030079800410798008b
:1010ac00048020001442780061c3b300044078002f
:1010bc00effd07006102470003000900005aeb0036
:1010cc0004802000144278008e02e80005017800ac
:1010dc0041c0b3000440780023fe07003e0290009c
:1010ec000402e800ae429000054a78004e029000df
:1010fc000402e800be429000054a78004e4290007f
:10110c00044f78009e02fb0004032000048262005e
:10111c0044a2de00844278003e029000054a78002a
:10112c009e02fb00040c20000482620046a2de003a
:10113c00844278004e029000054a78000080fa0044
:10114c00000006000000fa00148020001442780011
:10115c0012c0b30001c3b30004407800f6fe0700d0
:10116c0000712200fefc070014802000144278005d
:10117c0082c0b30001c3b30004407800eefe070048
:10118c0000712200f6fc0700148020001442780045
:10119c0002c9b30061c0b30004407800e6fe07004a
:1011ac0000712200eefc070014802000144278002d
:1011bc0002ccb30081c0b30004407800defe07000f
:1011cc0000712200e6fc0700148020001442780015
:1011dc0002c4b300a1c1b30004407800d6fe0700de
:1011ec0000712200defc07001480200014427800fd
:1011fc0032c3b30031c3b30004407800cefe070005
:10120c0000712200d6fc07000080fa0000000600e6
:10121c000a00fa003007980041079800048020006b
:10122c001442780061c3b30004407800b4fe070098
:10123c006102470003000900005aeb0014802000f3
:10124c00144278008e02e8000501780041c0b3001a
:10125c0004407800e8fe07003e0290000402e8001b
:10126c00ae429000054a78004e0290000402e8005d
:10127c00be429000054a78004e429000044f780020
:10128c009e02fb00040320000482620044a2de00e4
:10129c00844278003e029000054a78009e02fb00d2
:1012ac00040c20000482620046a2de008442780016
:1012bc004e029000054a78000080fa0000000600fb
:020000040000fa
:1012cc00000800000400000002000000b0b008009c
:0812dc0000000000000000000a
:020000040000fa
:0200000401f009
:04000c00f8ff0000f9
:00000001FF
